{"contracts/ValidationRegistry.sol":{"ValidationRegistry":{"abi":[{"inputs":[{"internalType":"address","name":"identityRegistry_","type":"address"}],"stateMutability":"nonpayable","type":"constructor"},{"anonymous":false,"inputs":[{"indexed":true,"internalType":"address","name":"validatorAddress","type":"address"},{"indexed":true,"internalType":"uint256","name":"agentId","type":"uint256"},{"indexed":false,"internalType":"string","name":"requestURI","type":"string"},{"indexed":false,"internalType":"bytes32","name":"requestHash","type":"bytes32"}],"name":"ValidationRequest","type":"event"},{"anonymous":false,"inputs":[{"indexed":true,"internalType":"bytes32","name":"requestHash","type":"bytes32"},{"indexed":false,"internalType":"uint8","name":"response","type":"uint8"},{"indexed":false,"internalType":"string","name":"responseURI","type":"string"},{"indexed":false,"internalType":"bytes32","name":"responseHash","type":"bytes32"},{"indexed":false,"internalType":"string","name":"tag","type":"string"}],"name":"ValidationResponse","type":"event"},{"inputs":[{"internalType":"uint256","name":"agentId","type":"uint256"}],"name":"getAgentValidations","outputs":[{"internalType":"bytes32[]","name":"","type":"bytes32[]"}],"stateMutability":"view","type":"function"},{"inputs":[{"internalType":"uint256","name":"agentId","type":"uint256"},{"internalType":"address[]","name":"validatorAddresses","type":"address[]"},{"internalType":"string","name":"tag","type":"string"}],"name":"getSummary","outputs":[{"internalType":"uint64","name":"count","type":"uint64"},{"internalType":"uint8","name":"averageResponse","type":"uint8"}],"stateMutability":"view","type":"function"},{"inputs":[{"internalType":"bytes32","name":"requestHash","type":"bytes32"}],"name":"getValidationStatus","outputs":[{"internalType":"address","name":"validatorAddress","type":"address"},{"internalType":"uint256","name":"agentId","type":"uint256"},{"internalType":"uint8","name":"response","type":"uint8"},{"internalType":"bytes32","name":"responseHash","type":"bytes32"},{"internalType":"string","name":"tag","type":"string"},{"internalType":"uint256","name":"lastUpdate","type":"uint256"}],"stateMutability":"view","type":"function"},{"inputs":[{"internalType":"address","name":"validatorAddress","type":"address"}],"name":"getValidatorRequests","outputs":[{"internalType":"bytes32[]","name":"","type":"bytes32[]"}],"stateMutability":"view","type":"function"},{"inputs":[{"internalType":"address","name":"validatorAddress","type":"address"},{"internalType":"uint256","name":"agentId","type":"uint256"},{"internalType":"string","name":"requestURI","type":"string"},{"internalType":"bytes32","name":"requestHash","type":"bytes32"}],"name":"validationRequest","outputs":[],"stateMutability":"nonpayable","type":"function"},{"inputs":[{"internalType":"bytes32","name":"requestHash","type":"bytes32"},{"internalType":"uint8","name":"response","type":"uint8"},{"internalType":"string","name":"responseURI","type":"string"},{"internalType":"bytes32","name":"responseHash","type":"bytes32"},{"internalType":"string","name":"tag","type":"string"}],"name":"validationResponse","outputs":[],"stateMutability":"nonpayable","type":"function"}],"evm":{"bytecode":{"linkReferences":{},"object":"60a034606657601f610ef838819003918201601f19168301916001600160401b03831184841017606a57808492602094604052833981010312606657516001600160a01b0381168103606657608052604051610e79908161007f8239608051816101830152f35b5f80fd5b634e487b7160e01b5f52604160045260245ffdfe60806040526004361015610011575f80fd5b5f3560e01c80631b7cabd61461096b5780633d659a96146106c75780634bf3158c146106515780638d5d0c2d146105da578063aaf400c4146101185763ff2febfc1461005b575f80fd5b34610114576020366003190112610114576004355f525f60205260405f2061008960ff600683015416610d37565b60e060018060a01b038254166020600184015493600460ff6002830154166003830154906100cd6005850154946100c66040518096819301610c84565b0384610d15565b6040519788968752858701526040860152606085015260c0608085015280519283918260c0870152018585015e5f83830185015260a0830152601f01601f19168101030190f35b5f80fd5b3461011457608036600319011261011457610131610bd2565b602480359167ffffffffffffffff60443581811161011457610157903690600401610ba4565b6040516331a9108f60e11b81526004810187905291939092602092606435926001600160a01b039290917f000000000000000000000000000000000000000000000000000000000000000084169086818b81855afa801561054e5785915f916105bd575b50169086338314928315610559575b83156104dd575b505050156104a157835f525f855260ff600660405f200154166104695760405191610100830183811083821117610456579084916040521697888352858301918a835260408401915f8352606085015f8152604051938985018581108582111761044357918a98979593918a9795936040525f85526080870194855260a087019542875260c08801995f60019c8d8d5260e08b019b828d5282525260405f209851166bffffffffffffffffffffffff60a01b895416178855518a88015560ff6002880191511660ff1982541617905551600386015560048501925190815192831161043057506102cb826102c58554610c4c565b85610d7c565b8990601f83116001146103a25782600695937f530436c3634a98e1e626b0898be2f1e9980cc1bd2a78c07a0aba52d0a48a50599e9d9c9b9a9998979593610327935f92610397575b50508160011b915f199060031b1c19161790565b90555b51600582015501915115159060ff61ff0084549251151560081b1692169061ffff191617179055875f5282526103638160405f20610e0a565b855f52600282526103778160405f20610e0a565b61038e604051948594604086526040860191610dcb565b918301520390a3005b015190505f80610313565b90601f19831691845f528b5f20925f5b81811061041b5750928a9998979593927f530436c3634a98e1e626b0898be2f1e9980cc1bd2a78c07a0aba52d0a48a50599f9e9d9c9b939286600699979410610403575b505050811b01905561032a565b01515f1960f88460031b161c191690555f80806103f6565b828401518555938b0193928d01928d016103b2565b634e487b7160e01b5f9081526041600452fd5b83634e487b7160e01b5f5260416004525ffd5b89634e487b7160e01b5f5260416004525ffd5b60405162461bcd60e51b8152600481018690526011818a01527012185cda08185b1c9958591e481d5cd959607a1b6044820152606490fd5b60405162461bcd60e51b8152600481018690526015818a0152742737ba1037bbb732b91037b91037b832b930ba37b960591b6044820152606490fd5b9091925060446040518094819363e985e9c560e01b835260048301528d33908301525afa90811561054e575f91610518575b508a86816101d1565b90508581813d8311610547575b61052f8183610d15565b8101031261011457518015158103610114578a61050f565b503d610525565b6040513d5f823e3d90fd5b92505060405163020604bf60e21b81528b600482015287818c81855afa801561054e5788915f91610590575b5086163314926101ca565b6105b09150823d84116105b6575b6105a88183610d15565b810190610deb565b8d610585565b503d61059e565b6105d49150883d8a116105b6576105a88183610d15565b8c6101bb565b3461011457602080600319360112610114576004355f5260018060205260405f20916040519182602085549182815201945f5260205f20925f905b82821061063c576106388661062c818a0382610d15565b60405191829182610be8565b0390f35b84548752958601959383019390830190610615565b3461011457602080600319360112610114576001600160a01b03610673610bd2565b165f52600260205260405f20906040519081602084549182815201935f5260205f20915f905b8282106106b0576106388561062c81890382610d15565b835486529485019460019384019390910190610699565b346101145760a0366003190112610114576004356024359060ff82168092036101145767ffffffffffffffff6044358181116101145761070b903690600401610ba4565b93906064359060843584811161011457610729903690600401610ba4565b9190966064851161092d57865f526020955f875260405f20600681019161075360ff845416610d37565b81546001600160a01b031633036108e857600282018860ff19825416179055866003830155600482019086116108d457610797866107918354610c4c565b83610d7c565b5f601f871160011461084357928695927fba9e771be8ee6ecac5c02ca5b5a4f61f407d53ceeb24dc8c863c3f647587edc29b9c95926107f3886108339b9a610820985f91610838575b508160011b915f199060031b1c19161790565b90555b60054291015561010061ff00198254161790556080604051998a998a528901526080880191610dcb565b9260408601528483036060860152610dcb565b0390a2005b90508901355f6107e0565b601f19871690825f528a5f20915f5b8181106108bd5750926108209592899895927fba9e771be8ee6ecac5c02ca5b5a4f61f407d53ceeb24dc8c863c3f647587edc29e9f98959a6108339c9b106108a4575b5050600188811b0190556107f6565b8801355f1960038b901b60f8161c191690558e80610895565b8e8301358455600190930192918c01918c01610852565b634e487b7160e01b5f52604160045260245ffd5b60405162461bcd60e51b8152600481018a9052601860248201527f4e6f7420617574686f72697a65642076616c696461746f7200000000000000006044820152606490fd5b60405162461bcd60e51b81526020600482015260166024820152750526573706f6e7365206d75737420626520302d3130360541b6044820152606490fd5b346101145760603660031901126101145767ffffffffffffffff60243511610114573660236024350112156101145767ffffffffffffffff60243560040135116101145736602480356004013560051b81350101116101145760443567ffffffffffffffff8111610114576109e4903690600401610ba4565b5f905f905f5b602435600401358110610a46578367ffffffffffffffff8416801580610a3957610a255760ff808260409404165b8351928352166020820152f35b634e487b7160e01b5f52601260045260245ffd5b506040915060ff5f610a18565b6001600160a01b0360248035600584901b01013590811690819003610114575f52600260205260405f205f8154915b828210610a87575050506001016109ea565b90939295610a988583999499610c23565b90549060031b1c5f525f60205260405f20600435600182015403610b295760ff600682015460081c1615610b295784151580610b34575b610b2957600260ff910154168101809111610b155767ffffffffffffffff90951667ffffffffffffffff8114610b15576001809101945b01909691969592939495610a75565b634e487b7160e01b5f52601160045260245ffd5b509493600190610b06565b50604051610b5081610b498160048601610c84565b0382610d15565b6020815191012067ffffffffffffffff86116108d457604051610b7d601f8801601f191660200182610d15565b8681526020810190368888011161011457878783375f602089830101525190201415610acf565b9181601f840112156101145782359167ffffffffffffffff8311610114576020838186019501011161011457565b600435906001600160a01b038216820361011457565b60209060206040818301928281528551809452019301915f5b828110610c0f575050505090565b835185529381019392810192600101610c01565b8054821015610c38575f5260205f2001905f90565b634e487b7160e01b5f52603260045260245ffd5b90600182811c92168015610c7a575b6020831014610c6657565b634e487b7160e01b5f52602260045260245ffd5b91607f1691610c5b565b80545f9392610c9282610c4c565b918282526020936001916001811690815f14610cf65750600114610cb8575b5050505050565b90939495505f92919252835f2092845f945b838610610ce257505050500101905f80808080610cb1565b805485870183015294019385908201610cca565b60ff19168685015250505090151560051b010191505f80808080610cb1565b90601f8019910116810190811067ffffffffffffffff8211176108d457604052565b15610d3e57565b60405162461bcd60e51b815260206004820152601660248201527514995c5d595cdd08191bd95cc81b9bdd08195e1a5cdd60521b6044820152606490fd5b601f8211610d8957505050565b5f5260205f20906020601f840160051c83019310610dc1575b601f0160051c01905b818110610db6575050565b5f8155600101610dab565b9091508190610da2565b908060209392818452848401375f828201840152601f01601f1916010190565b9081602091031261011457516001600160a01b03811681036101145790565b8054680100000000000000008110156108d457610e2c91600182018155610c23565b819291549060031b91821b915f19901b191617905556fea264697066735822122091a082d0a9687462757ad78fe8da4ad9646de6caea5aabb0a6c8d5a8e855795d64736f6c63430008190033","opcodes":"PUSH1 0xA0 CALLVALUE PUSH1 0x66 JUMPI PUSH1 0x1F PUSH2 0xEF8 CODESIZE DUP2 SWAP1 SUB SWAP2 DUP3 ADD PUSH1 0x1F NOT AND DUP4 ADD SWAP2 PUSH1 0x1 PUSH1 0x1 PUSH1 0x40 SHL SUB DUP4 GT DUP5 DUP5 LT OR PUSH1 0x6A JUMPI DUP1 DUP5 SWAP3 PUSH1 0x20 SWAP5 PUSH1 0x40 MSTORE DUP4 CODECOPY DUP2 ADD SUB SLT PUSH1 0x66 JUMPI MLOAD PUSH1 0x1 PUSH1 0x1 PUSH1 0xA0 SHL SUB DUP2 AND DUP2 SUB PUSH1 0x66 JUMPI PUSH1 0x80 MSTORE PUSH1 0x40 MLOAD PUSH2 0xE79 SWAP1 DUP2 PUSH2 0x7F DUP3 CODECOPY PUSH1 0x80 MLOAD DUP2 PUSH2 0x183 ADD MSTORE RETURN JUMPDEST PUSH0 DUP1 REVERT JUMPDEST PUSH4 0x4E487B71 PUSH1 0xE0 SHL PUSH0 MSTORE PUSH1 0x41 PUSH1 0x4 MSTORE PUSH1 0x24 PUSH0 REVERT INVALID PUSH1 0x80 PUSH1 0x40 MSTORE PUSH1 0x4 CALLDATASIZE LT ISZERO PUSH2 0x11 JUMPI PUSH0 DUP1 REVERT JUMPDEST PUSH0 CALLDATALOAD PUSH1 0xE0 SHR DUP1 PUSH4 0x1B7CABD6 EQ PUSH2 0x96B JUMPI DUP1 PUSH4 0x3D659A96 EQ PUSH2 0x6C7 JUMPI DUP1 PUSH4 0x4BF3158C EQ PUSH2 0x651 JUMPI DUP1 PUSH4 0x8D5D0C2D EQ PUSH2 0x5DA JUMPI DUP1 PUSH4 0xAAF400C4 EQ PUSH2 0x118 JUMPI PUSH4 0xFF2FEBFC EQ PUSH2 0x5B JUMPI PUSH0 DUP1 REVERT JUMPDEST CALLVALUE PUSH2 0x114 JUMPI PUSH1 0x20 CALLDATASIZE PUSH1 0x3 NOT ADD SLT PUSH2 0x114 JUMPI PUSH1 0x4 CALLDATALOAD PUSH0 MSTORE PUSH0 PUSH1 0x20 MSTORE PUSH1 0x40 PUSH0 KECCAK256 PUSH2 0x89 PUSH1 0xFF PUSH1 0x6 DUP4 ADD SLOAD AND PUSH2 0xD37 JUMP JUMPDEST PUSH1 0xE0 PUSH1 0x1 DUP1 PUSH1 0xA0 SHL SUB DUP3 SLOAD AND PUSH1 0x20 PUSH1 0x1 DUP5 ADD SLOAD SWAP4 PUSH1 0x4 PUSH1 0xFF PUSH1 0x2 DUP4 ADD SLOAD AND PUSH1 0x3 DUP4 ADD SLOAD SWAP1 PUSH2 0xCD PUSH1 0x5 DUP6 ADD SLOAD SWAP5 PUSH2 0xC6 PUSH1 0x40 MLOAD DUP1 SWAP7 DUP2 SWAP4 ADD PUSH2 0xC84 JUMP JUMPDEST SUB DUP5 PUSH2 0xD15 JUMP JUMPDEST PUSH1 0x40 MLOAD SWAP8 DUP9 SWAP7 DUP8 MSTORE DUP6 DUP8 ADD MSTORE PUSH1 0x40 DUP7 ADD MSTORE PUSH1 0x60 DUP6 ADD MSTORE PUSH1 0xC0 PUSH1 0x80 DUP6 ADD MSTORE DUP1 MLOAD SWAP3 DUP4 SWAP2 DUP3 PUSH1 0xC0 DUP8 ADD MSTORE ADD DUP6 DUP6 ADD MCOPY PUSH0 DUP4 DUP4 ADD DUP6 ADD MSTORE PUSH1 0xA0 DUP4 ADD MSTORE PUSH1 0x1F ADD PUSH1 0x1F NOT AND DUP2 ADD SUB ADD SWAP1 RETURN JUMPDEST PUSH0 DUP1 REVERT JUMPDEST CALLVALUE PUSH2 0x114 JUMPI PUSH1 0x80 CALLDATASIZE PUSH1 0x3 NOT ADD SLT PUSH2 0x114 JUMPI PUSH2 0x131 PUSH2 0xBD2 JUMP JUMPDEST PUSH1 0x24 DUP1 CALLDATALOAD SWAP2 PUSH8 0xFFFFFFFFFFFFFFFF PUSH1 0x44 CALLDATALOAD DUP2 DUP2 GT PUSH2 0x114 JUMPI PUSH2 0x157 SWAP1 CALLDATASIZE SWAP1 PUSH1 0x4 ADD PUSH2 0xBA4 JUMP JUMPDEST PUSH1 0x40 MLOAD PUSH4 0x31A9108F PUSH1 0xE1 SHL DUP2 MSTORE PUSH1 0x4 DUP2 ADD DUP8 SWAP1 MSTORE SWAP2 SWAP4 SWAP1 SWAP3 PUSH1 0x20 SWAP3 PUSH1 0x64 CALLDATALOAD SWAP3 PUSH1 0x1 PUSH1 0x1 PUSH1 0xA0 SHL SUB SWAP3 SWAP1 SWAP2 PUSH32 0x0 DUP5 AND SWAP1 DUP7 DUP2 DUP12 DUP2 DUP6 GAS STATICCALL DUP1 ISZERO PUSH2 0x54E JUMPI DUP6 SWAP2 PUSH0 SWAP2 PUSH2 0x5BD JUMPI JUMPDEST POP AND SWAP1 DUP7 CALLER DUP4 EQ SWAP3 DUP4 ISZERO PUSH2 0x559 JUMPI JUMPDEST DUP4 ISZERO PUSH2 0x4DD JUMPI JUMPDEST POP POP POP ISZERO PUSH2 0x4A1 JUMPI DUP4 PUSH0 MSTORE PUSH0 DUP6 MSTORE PUSH1 0xFF PUSH1 0x6 PUSH1 0x40 PUSH0 KECCAK256 ADD SLOAD AND PUSH2 0x469 JUMPI PUSH1 0x40 MLOAD SWAP2 PUSH2 0x100 DUP4 ADD DUP4 DUP2 LT DUP4 DUP3 GT OR PUSH2 0x456 JUMPI SWAP1 DUP5 SWAP2 PUSH1 0x40 MSTORE AND SWAP8 DUP9 DUP4 MSTORE DUP6 DUP4 ADD SWAP2 DUP11 DUP4 MSTORE PUSH1 0x40 DUP5 ADD SWAP2 PUSH0 DUP4 MSTORE PUSH1 0x60 DUP6 ADD PUSH0 DUP2 MSTORE PUSH1 0x40 MLOAD SWAP4 DUP10 DUP6 ADD DUP6 DUP2 LT DUP6 DUP3 GT OR PUSH2 0x443 JUMPI SWAP2 DUP11 SWAP9 SWAP8 SWAP6 SWAP4 SWAP2 DUP11 SWAP8 SWAP6 SWAP4 PUSH1 0x40 MSTORE PUSH0 DUP6 MSTORE PUSH1 0x80 DUP8 ADD SWAP5 DUP6 MSTORE PUSH1 0xA0 DUP8 ADD SWAP6 TIMESTAMP DUP8 MSTORE PUSH1 0xC0 DUP9 ADD SWAP10 PUSH0 PUSH1 0x1 SWAP13 DUP14 DUP14 MSTORE PUSH1 0xE0 DUP12 ADD SWAP12 DUP3 DUP14 MSTORE DUP3 MSTORE MSTORE PUSH1 0x40 PUSH0 KECCAK256 SWAP9 MLOAD AND PUSH12 0xFFFFFFFFFFFFFFFFFFFFFFFF PUSH1 0xA0 SHL DUP10 SLOAD AND OR DUP9 SSTORE MLOAD DUP11 DUP9 ADD SSTORE PUSH1 0xFF PUSH1 0x2 DUP9 ADD SWAP2 MLOAD AND PUSH1 0xFF NOT DUP3 SLOAD AND OR SWAP1 SSTORE MLOAD PUSH1 0x3 DUP7 ADD SSTORE PUSH1 0x4 DUP6 ADD SWAP3 MLOAD SWAP1 DUP2 MLOAD SWAP3 DUP4 GT PUSH2 0x430 JUMPI POP PUSH2 0x2CB DUP3 PUSH2 0x2C5 DUP6 SLOAD PUSH2 0xC4C JUMP JUMPDEST DUP6 PUSH2 0xD7C JUMP JUMPDEST DUP10 SWAP1 PUSH1 0x1F DUP4 GT PUSH1 0x1 EQ PUSH2 0x3A2 JUMPI DUP3 PUSH1 0x6 SWAP6 SWAP4 PUSH32 0x530436C3634A98E1E626B0898BE2F1E9980CC1BD2A78C07A0ABA52D0A48A5059 SWAP15 SWAP14 SWAP13 SWAP12 SWAP11 SWAP10 SWAP9 SWAP8 SWAP6 SWAP4 PUSH2 0x327 SWAP4 PUSH0 SWAP3 PUSH2 0x397 JUMPI JUMPDEST POP POP DUP2 PUSH1 0x1 SHL SWAP2 PUSH0 NOT SWAP1 PUSH1 0x3 SHL SHR NOT AND OR SWAP1 JUMP JUMPDEST SWAP1 SSTORE JUMPDEST MLOAD PUSH1 0x5 DUP3 ADD SSTORE ADD SWAP2 MLOAD ISZERO ISZERO SWAP1 PUSH1 0xFF PUSH2 0xFF00 DUP5 SLOAD SWAP3 MLOAD ISZERO ISZERO PUSH1 0x8 SHL AND SWAP3 AND SWAP1 PUSH2 0xFFFF NOT AND OR OR SWAP1 SSTORE DUP8 PUSH0 MSTORE DUP3 MSTORE PUSH2 0x363 DUP2 PUSH1 0x40 PUSH0 KECCAK256 PUSH2 0xE0A JUMP JUMPDEST DUP6 PUSH0 MSTORE PUSH1 0x2 DUP3 MSTORE PUSH2 0x377 DUP2 PUSH1 0x40 PUSH0 KECCAK256 PUSH2 0xE0A JUMP JUMPDEST PUSH2 0x38E PUSH1 0x40 MLOAD SWAP5 DUP6 SWAP5 PUSH1 0x40 DUP7 MSTORE PUSH1 0x40 DUP7 ADD SWAP2 PUSH2 0xDCB JUMP JUMPDEST SWAP2 DUP4 ADD MSTORE SUB SWAP1 LOG3 STOP JUMPDEST ADD MLOAD SWAP1 POP PUSH0 DUP1 PUSH2 0x313 JUMP JUMPDEST SWAP1 PUSH1 0x1F NOT DUP4 AND SWAP2 DUP5 PUSH0 MSTORE DUP12 PUSH0 KECCAK256 SWAP3 PUSH0 JUMPDEST DUP2 DUP2 LT PUSH2 0x41B JUMPI POP SWAP3 DUP11 SWAP10 SWAP9 SWAP8 SWAP6 SWAP4 SWAP3 PUSH32 0x530436C3634A98E1E626B0898BE2F1E9980CC1BD2A78C07A0ABA52D0A48A5059 SWAP16 SWAP15 SWAP14 SWAP13 SWAP12 SWAP4 SWAP3 DUP7 PUSH1 0x6 SWAP10 SWAP8 SWAP5 LT PUSH2 0x403 JUMPI JUMPDEST POP POP POP DUP2 SHL ADD SWAP1 SSTORE PUSH2 0x32A JUMP JUMPDEST ADD MLOAD PUSH0 NOT PUSH1 0xF8 DUP5 PUSH1 0x3 SHL AND SHR NOT AND SWAP1 SSTORE PUSH0 DUP1 DUP1 PUSH2 0x3F6 JUMP JUMPDEST DUP3 DUP5 ADD MLOAD DUP6 SSTORE SWAP4 DUP12 ADD SWAP4 SWAP3 DUP14 ADD SWAP3 DUP14 ADD PUSH2 0x3B2 JUMP JUMPDEST PUSH4 0x4E487B71 PUSH1 0xE0 SHL PUSH0 SWAP1 DUP2 MSTORE PUSH1 0x41 PUSH1 0x4 MSTORE REVERT JUMPDEST DUP4 PUSH4 0x4E487B71 PUSH1 0xE0 SHL PUSH0 MSTORE PUSH1 0x41 PUSH1 0x4 MSTORE PUSH0 REVERT JUMPDEST DUP10 PUSH4 0x4E487B71 PUSH1 0xE0 SHL PUSH0 MSTORE PUSH1 0x41 PUSH1 0x4 MSTORE PUSH0 REVERT JUMPDEST PUSH1 0x40 MLOAD PUSH3 0x461BCD PUSH1 0xE5 SHL DUP2 MSTORE PUSH1 0x4 DUP2 ADD DUP7 SWAP1 MSTORE PUSH1 0x11 DUP2 DUP11 ADD MSTORE PUSH17 0x12185CDA08185B1C9958591E481D5CD959 PUSH1 0x7A SHL PUSH1 0x44 DUP3 ADD MSTORE PUSH1 0x64 SWAP1 REVERT JUMPDEST PUSH1 0x40 MLOAD PUSH3 0x461BCD PUSH1 0xE5 SHL DUP2 MSTORE PUSH1 0x4 DUP2 ADD DUP7 SWAP1 MSTORE PUSH1 0x15 DUP2 DUP11 ADD MSTORE PUSH21 0x2737BA1037BBB732B91037B91037B832B930BA37B9 PUSH1 0x59 SHL PUSH1 0x44 DUP3 ADD MSTORE PUSH1 0x64 SWAP1 REVERT JUMPDEST SWAP1 SWAP2 SWAP3 POP PUSH1 0x44 PUSH1 0x40 MLOAD DUP1 SWAP5 DUP2 SWAP4 PUSH4 0xE985E9C5 PUSH1 0xE0 SHL DUP4 MSTORE PUSH1 0x4 DUP4 ADD MSTORE DUP14 CALLER SWAP1 DUP4 ADD MSTORE GAS STATICCALL SWAP1 DUP2 ISZERO PUSH2 0x54E JUMPI PUSH0 SWAP2 PUSH2 0x518 JUMPI JUMPDEST POP DUP11 DUP7 DUP2 PUSH2 0x1D1 JUMP JUMPDEST SWAP1 POP DUP6 DUP2 DUP2 RETURNDATASIZE DUP4 GT PUSH2 0x547 JUMPI JUMPDEST PUSH2 0x52F DUP2 DUP4 PUSH2 0xD15 JUMP JUMPDEST DUP2 ADD SUB SLT PUSH2 0x114 JUMPI MLOAD DUP1 ISZERO ISZERO DUP2 SUB PUSH2 0x114 JUMPI DUP11 PUSH2 0x50F JUMP JUMPDEST POP RETURNDATASIZE PUSH2 0x525 JUMP JUMPDEST PUSH1 0x40 MLOAD RETURNDATASIZE PUSH0 DUP3 RETURNDATACOPY RETURNDATASIZE SWAP1 REVERT JUMPDEST SWAP3 POP POP PUSH1 0x40 MLOAD PUSH4 0x20604BF PUSH1 0xE2 SHL DUP2 MSTORE DUP12 PUSH1 0x4 DUP3 ADD MSTORE DUP8 DUP2 DUP13 DUP2 DUP6 GAS STATICCALL DUP1 ISZERO PUSH2 0x54E JUMPI DUP9 SWAP2 PUSH0 SWAP2 PUSH2 0x590 JUMPI JUMPDEST POP DUP7 AND CALLER EQ SWAP3 PUSH2 0x1CA JUMP JUMPDEST PUSH2 0x5B0 SWAP2 POP DUP3 RETURNDATASIZE DUP5 GT PUSH2 0x5B6 JUMPI JUMPDEST PUSH2 0x5A8 DUP2 DUP4 PUSH2 0xD15 JUMP JUMPDEST DUP2 ADD SWAP1 PUSH2 0xDEB JUMP JUMPDEST DUP14 PUSH2 0x585 JUMP JUMPDEST POP RETURNDATASIZE PUSH2 0x59E JUMP JUMPDEST PUSH2 0x5D4 SWAP2 POP DUP9 RETURNDATASIZE DUP11 GT PUSH2 0x5B6 JUMPI PUSH2 0x5A8 DUP2 DUP4 PUSH2 0xD15 JUMP JUMPDEST DUP13 PUSH2 0x1BB JUMP JUMPDEST CALLVALUE PUSH2 0x114 JUMPI PUSH1 0x20 DUP1 PUSH1 0x3 NOT CALLDATASIZE ADD SLT PUSH2 0x114 JUMPI PUSH1 0x4 CALLDATALOAD PUSH0 MSTORE PUSH1 0x1 DUP1 PUSH1 0x20 MSTORE PUSH1 0x40 PUSH0 KECCAK256 SWAP2 PUSH1 0x40 MLOAD SWAP2 DUP3 PUSH1 0x20 DUP6 SLOAD SWAP2 DUP3 DUP2 MSTORE ADD SWAP5 PUSH0 MSTORE PUSH1 0x20 PUSH0 KECCAK256 SWAP3 PUSH0 SWAP1 JUMPDEST DUP3 DUP3 LT PUSH2 0x63C JUMPI PUSH2 0x638 DUP7 PUSH2 0x62C DUP2 DUP11 SUB DUP3 PUSH2 0xD15 JUMP JUMPDEST PUSH1 0x40 MLOAD SWAP2 DUP3 SWAP2 DUP3 PUSH2 0xBE8 JUMP JUMPDEST SUB SWAP1 RETURN JUMPDEST DUP5 SLOAD DUP8 MSTORE SWAP6 DUP7 ADD SWAP6 SWAP4 DUP4 ADD SWAP4 SWAP1 DUP4 ADD SWAP1 PUSH2 0x615 JUMP JUMPDEST CALLVALUE PUSH2 0x114 JUMPI PUSH1 0x20 DUP1 PUSH1 0x3 NOT CALLDATASIZE ADD SLT PUSH2 0x114 JUMPI PUSH1 0x1 PUSH1 0x1 PUSH1 0xA0 SHL SUB PUSH2 0x673 PUSH2 0xBD2 JUMP JUMPDEST AND PUSH0 MSTORE PUSH1 0x2 PUSH1 0x20 MSTORE PUSH1 0x40 PUSH0 KECCAK256 SWAP1 PUSH1 0x40 MLOAD SWAP1 DUP2 PUSH1 0x20 DUP5 SLOAD SWAP2 DUP3 DUP2 MSTORE ADD SWAP4 PUSH0 MSTORE PUSH1 0x20 PUSH0 KECCAK256 SWAP2 PUSH0 SWAP1 JUMPDEST DUP3 DUP3 LT PUSH2 0x6B0 JUMPI PUSH2 0x638 DUP6 PUSH2 0x62C DUP2 DUP10 SUB DUP3 PUSH2 0xD15 JUMP JUMPDEST DUP4 SLOAD DUP7 MSTORE SWAP5 DUP6 ADD SWAP5 PUSH1 0x1 SWAP4 DUP5 ADD SWAP4 SWAP1 SWAP2 ADD SWAP1 PUSH2 0x699 JUMP JUMPDEST CALLVALUE PUSH2 0x114 JUMPI PUSH1 0xA0 CALLDATASIZE PUSH1 0x3 NOT ADD SLT PUSH2 0x114 JUMPI PUSH1 0x4 CALLDATALOAD PUSH1 0x24 CALLDATALOAD SWAP1 PUSH1 0xFF DUP3 AND DUP1 SWAP3 SUB PUSH2 0x114 JUMPI PUSH8 0xFFFFFFFFFFFFFFFF PUSH1 0x44 CALLDATALOAD DUP2 DUP2 GT PUSH2 0x114 JUMPI PUSH2 0x70B SWAP1 CALLDATASIZE SWAP1 PUSH1 0x4 ADD PUSH2 0xBA4 JUMP JUMPDEST SWAP4 SWAP1 PUSH1 0x64 CALLDATALOAD SWAP1 PUSH1 0x84 CALLDATALOAD DUP5 DUP2 GT PUSH2 0x114 JUMPI PUSH2 0x729 SWAP1 CALLDATASIZE SWAP1 PUSH1 0x4 ADD PUSH2 0xBA4 JUMP JUMPDEST SWAP2 SWAP1 SWAP7 PUSH1 0x64 DUP6 GT PUSH2 0x92D JUMPI DUP7 PUSH0 MSTORE PUSH1 0x20 SWAP6 PUSH0 DUP8 MSTORE PUSH1 0x40 PUSH0 KECCAK256 PUSH1 0x6 DUP2 ADD SWAP2 PUSH2 0x753 PUSH1 0xFF DUP5 SLOAD AND PUSH2 0xD37 JUMP JUMPDEST DUP2 SLOAD PUSH1 0x1 PUSH1 0x1 PUSH1 0xA0 SHL SUB AND CALLER SUB PUSH2 0x8E8 JUMPI PUSH1 0x2 DUP3 ADD DUP9 PUSH1 0xFF NOT DUP3 SLOAD AND OR SWAP1 SSTORE DUP7 PUSH1 0x3 DUP4 ADD SSTORE PUSH1 0x4 DUP3 ADD SWAP1 DUP7 GT PUSH2 0x8D4 JUMPI PUSH2 0x797 DUP7 PUSH2 0x791 DUP4 SLOAD PUSH2 0xC4C JUMP JUMPDEST DUP4 PUSH2 0xD7C JUMP JUMPDEST PUSH0 PUSH1 0x1F DUP8 GT PUSH1 0x1 EQ PUSH2 0x843 JUMPI SWAP3 DUP7 SWAP6 SWAP3 PUSH32 0xBA9E771BE8EE6ECAC5C02CA5B5A4F61F407D53CEEB24DC8C863C3F647587EDC2 SWAP12 SWAP13 SWAP6 SWAP3 PUSH2 0x7F3 DUP9 PUSH2 0x833 SWAP12 SWAP11 PUSH2 0x820 SWAP9 PUSH0 SWAP2 PUSH2 0x838 JUMPI JUMPDEST POP DUP2 PUSH1 0x1 SHL SWAP2 PUSH0 NOT SWAP1 PUSH1 0x3 SHL SHR NOT AND OR SWAP1 JUMP JUMPDEST SWAP1 SSTORE JUMPDEST PUSH1 0x5 TIMESTAMP SWAP2 ADD SSTORE PUSH2 0x100 PUSH2 0xFF00 NOT DUP3 SLOAD AND OR SWAP1 SSTORE PUSH1 0x80 PUSH1 0x40 MLOAD SWAP10 DUP11 SWAP10 DUP11 MSTORE DUP10 ADD MSTORE PUSH1 0x80 DUP9 ADD SWAP2 PUSH2 0xDCB JUMP JUMPDEST SWAP3 PUSH1 0x40 DUP7 ADD MSTORE DUP5 DUP4 SUB PUSH1 0x60 DUP7 ADD MSTORE PUSH2 0xDCB JUMP JUMPDEST SUB SWAP1 LOG2 STOP JUMPDEST SWAP1 POP DUP10 ADD CALLDATALOAD PUSH0 PUSH2 0x7E0 JUMP JUMPDEST PUSH1 0x1F NOT DUP8 AND SWAP1 DUP3 PUSH0 MSTORE DUP11 PUSH0 KECCAK256 SWAP2 PUSH0 JUMPDEST DUP2 DUP2 LT PUSH2 0x8BD JUMPI POP SWAP3 PUSH2 0x820 SWAP6 SWAP3 DUP10 SWAP9 SWAP6 SWAP3 PUSH32 0xBA9E771BE8EE6ECAC5C02CA5B5A4F61F407D53CEEB24DC8C863C3F647587EDC2 SWAP15 SWAP16 SWAP9 SWAP6 SWAP11 PUSH2 0x833 SWAP13 SWAP12 LT PUSH2 0x8A4 JUMPI JUMPDEST POP POP PUSH1 0x1 DUP9 DUP2 SHL ADD SWAP1 SSTORE PUSH2 0x7F6 JUMP JUMPDEST DUP9 ADD CALLDATALOAD PUSH0 NOT PUSH1 0x3 DUP12 SWAP1 SHL PUSH1 0xF8 AND SHR NOT AND SWAP1 SSTORE DUP15 DUP1 PUSH2 0x895 JUMP JUMPDEST DUP15 DUP4 ADD CALLDATALOAD DUP5 SSTORE PUSH1 0x1 SWAP1 SWAP4 ADD SWAP3 SWAP2 DUP13 ADD SWAP2 DUP13 ADD PUSH2 0x852 JUMP JUMPDEST PUSH4 0x4E487B71 PUSH1 0xE0 SHL PUSH0 MSTORE PUSH1 0x41 PUSH1 0x4 MSTORE PUSH1 0x24 PUSH0 REVERT JUMPDEST PUSH1 0x40 MLOAD PUSH3 0x461BCD PUSH1 0xE5 SHL DUP2 MSTORE PUSH1 0x4 DUP2 ADD DUP11 SWAP1 MSTORE PUSH1 0x18 PUSH1 0x24 DUP3 ADD MSTORE PUSH32 0x4E6F7420617574686F72697A65642076616C696461746F720000000000000000 PUSH1 0x44 DUP3 ADD MSTORE PUSH1 0x64 SWAP1 REVERT JUMPDEST PUSH1 0x40 MLOAD PUSH3 0x461BCD PUSH1 0xE5 SHL DUP2 MSTORE PUSH1 0x20 PUSH1 0x4 DUP3 ADD MSTORE PUSH1 0x16 PUSH1 0x24 DUP3 ADD MSTORE PUSH22 0x526573706F6E7365206D75737420626520302D31303 PUSH1 0x54 SHL PUSH1 0x44 DUP3 ADD MSTORE PUSH1 0x64 SWAP1 REVERT JUMPDEST CALLVALUE PUSH2 0x114 JUMPI PUSH1 0x60 CALLDATASIZE PUSH1 0x3 NOT ADD SLT PUSH2 0x114 JUMPI PUSH8 0xFFFFFFFFFFFFFFFF PUSH1 0x24 CALLDATALOAD GT PUSH2 0x114 JUMPI CALLDATASIZE PUSH1 0x23 PUSH1 0x24 CALLDATALOAD ADD SLT ISZERO PUSH2 0x114 JUMPI PUSH8 0xFFFFFFFFFFFFFFFF PUSH1 0x24 CALLDATALOAD PUSH1 0x4 ADD CALLDATALOAD GT PUSH2 0x114 JUMPI CALLDATASIZE PUSH1 0x24 DUP1 CALLDATALOAD PUSH1 0x4 ADD CALLDATALOAD PUSH1 0x5 SHL DUP2 CALLDATALOAD ADD ADD GT PUSH2 0x114 JUMPI PUSH1 0x44 CALLDATALOAD PUSH8 0xFFFFFFFFFFFFFFFF DUP2 GT PUSH2 0x114 JUMPI PUSH2 0x9E4 SWAP1 CALLDATASIZE SWAP1 PUSH1 0x4 ADD PUSH2 0xBA4 JUMP JUMPDEST PUSH0 SWAP1 PUSH0 SWAP1 PUSH0 JUMPDEST PUSH1 0x24 CALLDATALOAD PUSH1 0x4 ADD CALLDATALOAD DUP2 LT PUSH2 0xA46 JUMPI DUP4 PUSH8 0xFFFFFFFFFFFFFFFF DUP5 AND DUP1 ISZERO DUP1 PUSH2 0xA39 JUMPI PUSH2 0xA25 JUMPI PUSH1 0xFF DUP1 DUP3 PUSH1 0x40 SWAP5 DIV AND JUMPDEST DUP4 MLOAD SWAP3 DUP4 MSTORE AND PUSH1 0x20 DUP3 ADD MSTORE RETURN JUMPDEST PUSH4 0x4E487B71 PUSH1 0xE0 SHL PUSH0 MSTORE PUSH1 0x12 PUSH1 0x4 MSTORE PUSH1 0x24 PUSH0 REVERT JUMPDEST POP PUSH1 0x40 SWAP2 POP PUSH1 0xFF PUSH0 PUSH2 0xA18 JUMP JUMPDEST PUSH1 0x1 PUSH1 0x1 PUSH1 0xA0 SHL SUB PUSH1 0x24 DUP1 CALLDATALOAD PUSH1 0x5 DUP5 SWAP1 SHL ADD ADD CALLDATALOAD SWAP1 DUP2 AND SWAP1 DUP2 SWAP1 SUB PUSH2 0x114 JUMPI PUSH0 MSTORE PUSH1 0x2 PUSH1 0x20 MSTORE PUSH1 0x40 PUSH0 KECCAK256 PUSH0 DUP2 SLOAD SWAP2 JUMPDEST DUP3 DUP3 LT PUSH2 0xA87 JUMPI POP POP POP PUSH1 0x1 ADD PUSH2 0x9EA JUMP JUMPDEST SWAP1 SWAP4 SWAP3 SWAP6 PUSH2 0xA98 DUP6 DUP4 SWAP10 SWAP5 SWAP10 PUSH2 0xC23 JUMP JUMPDEST SWAP1 SLOAD SWAP1 PUSH1 0x3 SHL SHR PUSH0 MSTORE PUSH0 PUSH1 0x20 MSTORE PUSH1 0x40 PUSH0 KECCAK256 PUSH1 0x4 CALLDATALOAD PUSH1 0x1 DUP3 ADD SLOAD SUB PUSH2 0xB29 JUMPI PUSH1 0xFF PUSH1 0x6 DUP3 ADD SLOAD PUSH1 0x8 SHR AND ISZERO PUSH2 0xB29 JUMPI DUP5 ISZERO ISZERO DUP1 PUSH2 0xB34 JUMPI JUMPDEST PUSH2 0xB29 JUMPI PUSH1 0x2 PUSH1 0xFF SWAP2 ADD SLOAD AND DUP2 ADD DUP1 SWAP2 GT PUSH2 0xB15 JUMPI PUSH8 0xFFFFFFFFFFFFFFFF SWAP1 SWAP6 AND PUSH8 0xFFFFFFFFFFFFFFFF DUP2 EQ PUSH2 0xB15 JUMPI PUSH1 0x1 DUP1 SWAP2 ADD SWAP5 JUMPDEST ADD SWAP1 SWAP7 SWAP2 SWAP7 SWAP6 SWAP3 SWAP4 SWAP5 SWAP6 PUSH2 0xA75 JUMP JUMPDEST PUSH4 0x4E487B71 PUSH1 0xE0 SHL PUSH0 MSTORE PUSH1 0x11 PUSH1 0x4 MSTORE PUSH1 0x24 PUSH0 REVERT JUMPDEST POP SWAP5 SWAP4 PUSH1 0x1 SWAP1 PUSH2 0xB06 JUMP JUMPDEST POP PUSH1 0x40 MLOAD PUSH2 0xB50 DUP2 PUSH2 0xB49 DUP2 PUSH1 0x4 DUP7 ADD PUSH2 0xC84 JUMP JUMPDEST SUB DUP3 PUSH2 0xD15 JUMP JUMPDEST PUSH1 0x20 DUP2 MLOAD SWAP2 ADD KECCAK256 PUSH8 0xFFFFFFFFFFFFFFFF DUP7 GT PUSH2 0x8D4 JUMPI PUSH1 0x40 MLOAD PUSH2 0xB7D PUSH1 0x1F DUP9 ADD PUSH1 0x1F NOT AND PUSH1 0x20 ADD DUP3 PUSH2 0xD15 JUMP JUMPDEST DUP7 DUP2 MSTORE PUSH1 0x20 DUP2 ADD SWAP1 CALLDATASIZE DUP9 DUP9 ADD GT PUSH2 0x114 JUMPI DUP8 DUP8 DUP4 CALLDATACOPY PUSH0 PUSH1 0x20 DUP10 DUP4 ADD ADD MSTORE MLOAD SWAP1 KECCAK256 EQ ISZERO PUSH2 0xACF JUMP JUMPDEST SWAP2 DUP2 PUSH1 0x1F DUP5 ADD SLT ISZERO PUSH2 0x114 JUMPI DUP3 CALLDATALOAD SWAP2 PUSH8 0xFFFFFFFFFFFFFFFF DUP4 GT PUSH2 0x114 JUMPI PUSH1 0x20 DUP4 DUP2 DUP7 ADD SWAP6 ADD ADD GT PUSH2 0x114 JUMPI JUMP JUMPDEST PUSH1 0x4 CALLDATALOAD SWAP1 PUSH1 0x1 PUSH1 0x1 PUSH1 0xA0 SHL SUB DUP3 AND DUP3 SUB PUSH2 0x114 JUMPI JUMP JUMPDEST PUSH1 0x20 SWAP1 PUSH1 0x20 PUSH1 0x40 DUP2 DUP4 ADD SWAP3 DUP3 DUP2 MSTORE DUP6 MLOAD DUP1 SWAP5 MSTORE ADD SWAP4 ADD SWAP2 PUSH0 JUMPDEST DUP3 DUP2 LT PUSH2 0xC0F JUMPI POP POP POP POP SWAP1 JUMP JUMPDEST DUP4 MLOAD DUP6 MSTORE SWAP4 DUP2 ADD SWAP4 SWAP3 DUP2 ADD SWAP3 PUSH1 0x1 ADD PUSH2 0xC01 JUMP JUMPDEST DUP1 SLOAD DUP3 LT ISZERO PUSH2 0xC38 JUMPI PUSH0 MSTORE PUSH1 0x20 PUSH0 KECCAK256 ADD SWAP1 PUSH0 SWAP1 JUMP JUMPDEST PUSH4 0x4E487B71 PUSH1 0xE0 SHL PUSH0 MSTORE PUSH1 0x32 PUSH1 0x4 MSTORE PUSH1 0x24 PUSH0 REVERT JUMPDEST SWAP1 PUSH1 0x1 DUP3 DUP2 SHR SWAP3 AND DUP1 ISZERO PUSH2 0xC7A JUMPI JUMPDEST PUSH1 0x20 DUP4 LT EQ PUSH2 0xC66 JUMPI JUMP JUMPDEST PUSH4 0x4E487B71 PUSH1 0xE0 SHL PUSH0 MSTORE PUSH1 0x22 PUSH1 0x4 MSTORE PUSH1 0x24 PUSH0 REVERT JUMPDEST SWAP2 PUSH1 0x7F AND SWAP2 PUSH2 0xC5B JUMP JUMPDEST DUP1 SLOAD PUSH0 SWAP4 SWAP3 PUSH2 0xC92 DUP3 PUSH2 0xC4C JUMP JUMPDEST SWAP2 DUP3 DUP3 MSTORE PUSH1 0x20 SWAP4 PUSH1 0x1 SWAP2 PUSH1 0x1 DUP2 AND SWAP1 DUP2 PUSH0 EQ PUSH2 0xCF6 JUMPI POP PUSH1 0x1 EQ PUSH2 0xCB8 JUMPI JUMPDEST POP POP POP POP POP JUMP JUMPDEST SWAP1 SWAP4 SWAP5 SWAP6 POP PUSH0 SWAP3 SWAP2 SWAP3 MSTORE DUP4 PUSH0 KECCAK256 SWAP3 DUP5 PUSH0 SWAP5 JUMPDEST DUP4 DUP7 LT PUSH2 0xCE2 JUMPI POP POP POP POP ADD ADD SWAP1 PUSH0 DUP1 DUP1 DUP1 DUP1 PUSH2 0xCB1 JUMP JUMPDEST DUP1 SLOAD DUP6 DUP8 ADD DUP4 ADD MSTORE SWAP5 ADD SWAP4 DUP6 SWAP1 DUP3 ADD PUSH2 0xCCA JUMP JUMPDEST PUSH1 0xFF NOT AND DUP7 DUP6 ADD MSTORE POP POP POP SWAP1 ISZERO ISZERO PUSH1 0x5 SHL ADD ADD SWAP2 POP PUSH0 DUP1 DUP1 DUP1 DUP1 PUSH2 0xCB1 JUMP JUMPDEST SWAP1 PUSH1 0x1F DUP1 NOT SWAP2 ADD AND DUP2 ADD SWAP1 DUP2 LT PUSH8 0xFFFFFFFFFFFFFFFF DUP3 GT OR PUSH2 0x8D4 JUMPI PUSH1 0x40 MSTORE JUMP JUMPDEST ISZERO PUSH2 0xD3E JUMPI JUMP JUMPDEST PUSH1 0x40 MLOAD PUSH3 0x461BCD PUSH1 0xE5 SHL DUP2 MSTORE PUSH1 0x20 PUSH1 0x4 DUP3 ADD MSTORE PUSH1 0x16 PUSH1 0x24 DUP3 ADD MSTORE PUSH22 0x14995C5D595CDD08191BD95CC81B9BDD08195E1A5CDD PUSH1 0x52 SHL PUSH1 0x44 DUP3 ADD MSTORE PUSH1 0x64 SWAP1 REVERT JUMPDEST PUSH1 0x1F DUP3 GT PUSH2 0xD89 JUMPI POP POP POP JUMP JUMPDEST PUSH0 MSTORE PUSH1 0x20 PUSH0 KECCAK256 SWAP1 PUSH1 0x20 PUSH1 0x1F DUP5 ADD PUSH1 0x5 SHR DUP4 ADD SWAP4 LT PUSH2 0xDC1 JUMPI JUMPDEST PUSH1 0x1F ADD PUSH1 0x5 SHR ADD SWAP1 JUMPDEST DUP2 DUP2 LT PUSH2 0xDB6 JUMPI POP POP JUMP JUMPDEST PUSH0 DUP2 SSTORE PUSH1 0x1 ADD PUSH2 0xDAB JUMP JUMPDEST SWAP1 SWAP2 POP DUP2 SWAP1 PUSH2 0xDA2 JUMP JUMPDEST SWAP1 DUP1 PUSH1 0x20 SWAP4 SWAP3 DUP2 DUP5 MSTORE DUP5 DUP5 ADD CALLDATACOPY PUSH0 DUP3 DUP3 ADD DUP5 ADD MSTORE PUSH1 0x1F ADD PUSH1 0x1F NOT AND ADD ADD SWAP1 JUMP JUMPDEST SWAP1 DUP2 PUSH1 0x20 SWAP2 SUB SLT PUSH2 0x114 JUMPI MLOAD PUSH1 0x1 PUSH1 0x1 PUSH1 0xA0 SHL SUB DUP2 AND DUP2 SUB PUSH2 0x114 JUMPI SWAP1 JUMP JUMPDEST DUP1 SLOAD PUSH9 0x10000000000000000 DUP2 LT ISZERO PUSH2 0x8D4 JUMPI PUSH2 0xE2C SWAP2 PUSH1 0x1 DUP3 ADD DUP2 SSTORE PUSH2 0xC23 JUMP JUMPDEST DUP2 SWAP3 SWAP2 SLOAD SWAP1 PUSH1 0x3 SHL SWAP2 DUP3 SHL SWAP2 PUSH0 NOT SWAP1 SHL NOT AND OR SWAP1 SSTORE JUMP INVALID LOG2 PUSH5 0x6970667358 0x22 SLT KECCAK256 SWAP2 LOG0 DUP3 0xD0 0xA9 PUSH9 0x7462757AD78FE8DA4A 0xD9 PUSH5 0x6DE6CAEA5A 0xAB 0xB0 0xA6 0xC8 0xD5 0xA8 0xE8 SSTORE PUSH26 0x5D64736F6C634300081900330000000000000000000000000000 "},"methodIdentifiers":{"getAgentValidations(uint256)":"8d5d0c2d","getSummary(uint256,address[],string)":"1b7cabd6","getValidationStatus(bytes32)":"ff2febfc","getValidatorRequests(address)":"4bf3158c","validationRequest(address,uint256,string,bytes32)":"aaf400c4","validationResponse(bytes32,uint8,string,bytes32,string)":"3d659a96"}}}}}