{"contracts/ReputationRegistry.sol":{"ReputationRegistry":{"abi":[{"inputs":[{"internalType":"address","name":"identityRegistry_","type":"address"}],"stateMutability":"nonpayable","type":"constructor"},{"anonymous":false,"inputs":[{"indexed":true,"internalType":"uint256","name":"agentId","type":"uint256"},{"indexed":true,"internalType":"address","name":"clientAddress","type":"address"},{"indexed":false,"internalType":"uint64","name":"feedbackIndex","type":"uint64"}],"name":"FeedbackRevoked","type":"event"},{"anonymous":false,"inputs":[{"indexed":true,"internalType":"uint256","name":"agentId","type":"uint256"},{"indexed":true,"internalType":"address","name":"clientAddress","type":"address"},{"indexed":false,"internalType":"uint64","name":"feedbackIndex","type":"uint64"},{"indexed":false,"internalType":"int128","name":"value","type":"int128"},{"indexed":false,"internalType":"uint8","name":"valueDecimals","type":"uint8"},{"indexed":true,"internalType":"string","name":"indexedTag1","type":"string"},{"indexed":false,"internalType":"string","name":"tag1","type":"string"},{"indexed":false,"internalType":"string","name":"tag2","type":"string"},{"indexed":false,"internalType":"string","name":"endpoint","type":"string"},{"indexed":false,"internalType":"string","name":"feedbackURI","type":"string"},{"indexed":false,"internalType":"bytes32","name":"feedbackHash","type":"bytes32"}],"name":"NewFeedback","type":"event"},{"anonymous":false,"inputs":[{"indexed":true,"internalType":"uint256","name":"agentId","type":"uint256"},{"indexed":true,"internalType":"address","name":"clientAddress","type":"address"},{"indexed":false,"internalType":"uint64","name":"feedbackIndex","type":"uint64"},{"indexed":true,"internalType":"address","name":"responder","type":"address"},{"indexed":false,"internalType":"string","name":"responseURI","type":"string"},{"indexed":false,"internalType":"bytes32","name":"responseHash","type":"bytes32"}],"name":"ResponseAppended","type":"event"},{"inputs":[{"internalType":"uint256","name":"agentId","type":"uint256"},{"internalType":"address","name":"clientAddress","type":"address"},{"internalType":"uint64","name":"feedbackIndex","type":"uint64"},{"internalType":"string","name":"responseURI","type":"string"},{"internalType":"bytes32","name":"responseHash","type":"bytes32"}],"name":"appendResponse","outputs":[],"stateMutability":"nonpayable","type":"function"},{"inputs":[{"internalType":"uint256","name":"agentId","type":"uint256"}],"name":"getClients","outputs":[{"internalType":"address[]","name":"","type":"address[]"}],"stateMutability":"view","type":"function"},{"inputs":[],"name":"getIdentityRegistry","outputs":[{"internalType":"address","name":"","type":"address"}],"stateMutability":"view","type":"function"},{"inputs":[{"internalType":"uint256","name":"agentId","type":"uint256"},{"internalType":"address","name":"clientAddress","type":"address"}],"name":"getLastIndex","outputs":[{"internalType":"uint64","name":"","type":"uint64"}],"stateMutability":"view","type":"function"},{"inputs":[{"internalType":"uint256","name":"agentId","type":"uint256"},{"internalType":"address[]","name":"clientAddresses","type":"address[]"},{"internalType":"string","name":"tag1","type":"string"},{"internalType":"string","name":"tag2","type":"string"}],"name":"getSummary","outputs":[{"internalType":"uint64","name":"count","type":"uint64"},{"internalType":"int128","name":"summaryValue","type":"int128"},{"internalType":"uint8","name":"summaryValueDecimals","type":"uint8"}],"stateMutability":"view","type":"function"},{"inputs":[{"internalType":"uint256","name":"agentId","type":"uint256"},{"internalType":"int128","name":"value","type":"int128"},{"internalType":"uint8","name":"valueDecimals","type":"uint8"},{"internalType":"string","name":"tag1","type":"string"},{"internalType":"string","name":"tag2","type":"string"},{"internalType":"string","name":"endpoint","type":"string"},{"internalType":"string","name":"feedbackURI","type":"string"},{"internalType":"bytes32","name":"feedbackHash","type":"bytes32"}],"name":"giveFeedback","outputs":[],"stateMutability":"nonpayable","type":"function"},{"inputs":[{"internalType":"uint256","name":"agentId","type":"uint256"},{"internalType":"address[]","name":"clientAddresses","type":"address[]"},{"internalType":"string","name":"tag1","type":"string"},{"internalType":"string","name":"tag2","type":"string"},{"internalType":"bool","name":"includeRevoked","type":"bool"}],"name":"readAllFeedback","outputs":[{"internalType":"address[]","name":"clients","type":"address[]"},{"internalType":"uint64[]","name":"feedbackIndexes","type":"uint64[]"},{"internalType":"int128[]","name":"values","type":"int128[]"},{"internalType":"uint8[]","name":"valueDecimals","type":"uint8[]"},{"internalType":"string[]","name":"tag1s","type":"string[]"},{"internalType":"string[]","name":"tag2s","type":"string[]"},{"internalType":"bool[]","name":"revokedStatuses","type":"bool[]"}],"stateMutability":"view","type":"function"},{"inputs":[{"internalType":"uint256","name":"agentId","type":"uint256"},{"internalType":"address","name":"clientAddress","type":"address"},{"internalType":"uint64","name":"feedbackIndex","type":"uint64"}],"name":"readFeedback","outputs":[{"internalType":"int128","name":"value","type":"int128"},{"internalType":"uint8","name":"valueDecimals","type":"uint8"},{"internalType":"string","name":"tag1","type":"string"},{"internalType":"string","name":"tag2","type":"string"},{"internalType":"bool","name":"isRevoked","type":"bool"}],"stateMutability":"view","type":"function"},{"inputs":[{"internalType":"uint256","name":"agentId","type":"uint256"},{"internalType":"uint64","name":"feedbackIndex","type":"uint64"}],"name":"revokeFeedback","outputs":[],"stateMutability":"nonpayable","type":"function"}],"evm":{"bytecode":{"linkReferences":{},"object":"60a034607b57601f611bcc38819003918201601f19168301916001600160401b03831184841017607f57808492602094604052833981010312607b57516001600160a01b0381168103607b57608052604051611b389081610094823960805181818161089501528181610f26015281816114af015261154d0152f35b5f80fd5b634e487b7160e01b5f52604160045260245ffdfe6102606040526004361015610012575f80fd5b5f3560e01c8063232b0810146116235780633c036a7e14610e4e57806342dd519c14610dc55780634ab3ca9914610cc057806381bbba58146108c4578063bc4d861b14610880578063c2349ab2146107a1578063d9d84224146100cd5763f2d817591461007d575f80fd5b346100c95760403660031901126100c95761009661173c565b6004355f525f60205260405f209060018060a01b03165f5260205260206001600160401b0360405f205416604051908152f35b5f80fd5b346100c95760a03660031901126100c9576024356001600160401b0381116100c9576100fd9036906004016117f5565b9060a0526044356001600160401b0381116100c95761012090369060040161178c565b61020052610220526064356001600160401b0381116100c95761014790369060040161178c565b6101c0526101a0526084356080526080511515608051036100c9575f805b82811061068557508061018d61017d61028a93611a8e565b60405161016052610160516119b7565b80610160515261019c81611a8e565b601f19013660206101605101376101c36101b582611a8e565b60405160c05260c0516119b7565b8060c051526101d181611a8e565b601f190136602060c05101376101f76101e982611a8e565b60405160e05260e0516119b7565b8060e0515261020581611a8e565b601f190136602060e051013761022d61021d82611a8e565b60405161018052610180516119b7565b80610180515261023c81611a8e565b601f190136602061018051013761025281611aa5565b6101005261025f81611aa5565b6101205261027f61026f82611a8e565b60405161014052610140516119b7565b806101405152611a8e565b601f19013660206101405101375f610240525f5b8181106103ff5760405160e08152806102bd60e08201610160516117b9565b8181036020830152602060c05151918281520190602060c05101905f5b8181106103dd575050508181036040830152602060e05151918281520190602060e05101905f5b8181106103c15750505081810360608301526020610180515191828152019060206101805101905f5b8181106103a55750505061034c818361035d9303608085015261010051611825565b82810360a084015261012051611825565b81810360c08301526020610140515191828152019060206101405101905f5b81811061038a575050500390f35b8251151584528594506020938401939092019160010161037c565b825160ff1684528594506020938401939092019160010161032a565b8251600f0b845285945060209384019390920191600101610301565b82516001600160401b03168452859450602093840193909201916001016102da565b61041461040f828460a051611a5c565b611a6c565b6004355f525f60205260405f2060018060a01b0382165f5260205260405f20905f6101e05281545b806101e051106104515750505060010161029e565b608051158061066a575b6105f35761020051151580610631575b6105f3576101c0511515806105f8575b6105f35761024051610160516001600160a01b0384169161049b91611aee565b5260016101e051016101e051116105df576001600160401b0360016101e05101166104cb6102405160c051611aee565b526104d96101e051846118d5565b5054600f0b6104ed6102405160e051611aee565b526104fb6101e051846118d5565b5060ff80915460801c166105156102405161018051611aee565b5260016105406105286101e051876118d5565b506105396040518094819301611926565b03826119b7565b6105506102405161010051611aee565b526105616102405161010051611aee565b5060026105746105286101e051876118d5565b6105846102405161012051611aee565b526105956102405161012051611aee565b5060036105a56101e051866118d5565b500154166105b96102405161014051611aee565b90151590526105ca61024051611a80565b610240525b60016101e051016101e05261043c565b634e487b7160e01b5f52601160045260245ffd5b6105cf565b50600261060b6105286101e051866118d5565b60208151910120610623366101c0516101a0516119f7565b60208151910120141561047b565b5060016106446105286101e051866118d5565b6020815191012061065c3661020051610220516119f7565b60208151910120141561046b565b5060ff600361067c6101e051866118d5565b5001541661045b565b6004355f525f60205260405f2060018060a01b036106a961040f848760a051611a5c565b165f5260205260405f205f908054905b8183106106cb57505050600101610165565b9091936080511560805115610789575b6107145761020051151580610753575b610714576101c05115158061071d575b6107145761070a600191611a80565b945b0191906106b9565b9360019061070c565b50600261072d61052887856118d5565b60208151910120610745366101c0516101a0516119f7565b6020815191012014156106fb565b50600161076361052887856118d5565b6020815191012061077b3661020051610220516119f7565b6020815191012014156106eb565b5060ff600361079887856118d5565b500154166106db565b346100c95760a03660031901126100c9576004356107bd61173c565b906107c6611752565b6001600160401b0391906064358381116100c9577fb1c6be0b5b8aef6539e2fac0fd131a2faa7b49edf8e505b5eb0ad487d56051d49161080d61083b92369060040161178c565b959091169485151580610857575b61082490611881565b604051958652606060208701526060860191611a3c565b608435604085015233946001600160a01b0316939081900390a4005b505f858152602081815260408083206001600160a01b038b16845290915290205486111561081b565b346100c9575f3660031901126100c9576040517f00000000000000000000000000000000000000000000000000000000000000006001600160a01b03168152602090f35b346100c95760803660031901126100c9576024356001600160401b0381116100c9576108f49036906004016117f5565b6044356001600160401b0381116100c95761091390369060040161178c565b926064356001600160401b0381116100c95761093390369060040161178c565b9190928415610c82575f935f935f965f5b818110610b6c57505f5b8181106109bf57886001600160401b038816898115806109b25761099e57600160ff1b81145f198314166105df576060928260ff9205600f0b5b604051938452600f0b6020840152166040820152f35b634e487b7160e01b5f52601260045260245ffd5b505060ff6060925f610988565b6004355f9081526020819052604090206001600160a01b036109e561040f84868b611a5c565b165f5260205260405f205f908054905b818310610a075750505060010161094e565b9091989960ff6003610a198c856118d5565b50015416610afd578c15158d8b82610b37575b5050610afd5785151580610b07575b610afd57898c60ff80610a5d610a5185886118d5565b5054600f0b94876118d5565b505460801c169116809110610aad575b50905f82820192831291129080158216911516176105df576001600160401b03909a166001600160401b0381146105df576001809101995b0191906109f5565b60ff610ab98d866118d5565b505460801c16900360ff81116105df5760ff16604d81116105df57600a0a81810291905f8212600160ff1b8214166105df5781830514901517156105df578e610a6d565b9998600190610aa5565b506002610b176105288c856118d5565b60208151910120610b2936888a6119f7565b602081519101201415610a3b565b610b5c919250610b4c610528600192876118d5565b602081519101209136908b6119f7565b6020815191012014158d8b610a2c565b6004355f9081526020819052604090206001600160a01b03610b9261040f84868b611a5c565b165f5260205260405f205f908054915b828110610bb457505050600101610944565b60ff6003610bc283856118d5565b50015416610c28578c151580610c60575b610c285785151580610c30575b610c285760ff610bf082846118d5565b505460801c1660ff8d1610610c0a575b6001905b01610ba2565b9a50600160ff610c1a8d846118d5565b505460801c169b9050610c00565b600190610c04565b506002610c4061052883856118d5565b60208151910120610c5236888a6119f7565b602081519101201415610be0565b508c610c746001610b4c61052885876118d5565b602081519101201415610bd3565b60405162461bcd60e51b815260206004820152601660248201527510db1a595b9d1cc8185c9c985e481c995c5d5a5c995960521b6044820152606490fd5b346100c95760403660031901126100c957600435602435906001600160401b038216918281036100c957610d2660039184151580610da1575b610d0290611881565b835f525f60205260405f20335f52602052610d2060405f20916118bd565b906118d5565b5001805460ff8116610d6a5760019060ff19161790556040519182527f25156fd3288212246d8b008d5921fde376c71ed14ac2e072a506eb06fde6d09d60203393a3005b60405162461bcd60e51b815260206004820152600f60248201526e105b1c9958591e481c995d9bdad959608a1b6044820152606490fd5b50835f525f60205260405f20335f52602052610d0260405f20548611159050610cf9565b346100c9576020806003193601126100c9576004355f526001906001815260405f209160405190819384918482549485815201915f52845f20905f5b86868210610e2f578590610e17828703836119b7565b610e2b6040519282849384528301906117b9565b0390f35b83546001600160a01b0316855288955090930192918101918101610e01565b346100c9576101003660031901126100c95760243580600f0b81036100c95760443560ff811681036100c9576064356001600160401b0381116100c957610e9990369060040161178c565b906084356001600160401b0381116100c957610eb990369060040161178c565b9060a4356001600160401b0381116100c957610ed990369060040161178c565b91909260c4356001600160401b0381116100c957610efb90369060040161178c565b959096601260ff8a16116115e6576040516331a9108f60e11b815260048035908201526020816024817f00000000000000000000000000000000000000000000000000000000000000006001600160a01b03165afa908115611522575f916115c7575b50336001600160a01b0382161415908161152d575b8161147e575b5015611439576004355f525f60205260405f20335f5260205260405f206040518060a08101106001600160401b0360a08301111761127e5760a081016040528b600f0b81526020810160ff8c168152610fd33685876119f7565b60408301908152610fe536888a6119f7565b60608401525f60808401528354600160401b81101561127e5780600161100e92018655856118d5565b9290926114265783518354915170ffffffffffffffffffffffffffffffffff199092166fffffffffffffffffffffffffffffffff9091161760809190911b60ff60801b16178255518051906001600160401b03821161127e57819061107660018501546118ee565b601f81116113d6575b50602090601f8311600114611368575f9261135d575b50508160011b915f199060031b1c19161760018201555b60608201518051906001600160401b03821161127e576110cf60028401546118ee565b601f8111611315575b50602090601f831160011461129d5792826080936003936001600160401b039897965f92611292575b50508160011b915f1990851b1c19161760028201555b01910151151560ff801983541691161790555416986004355f52600260205260405f20335f5260205260ff60405f205416156111f9575b60405182848237808381015f81520390209a6040519a8b52600f0b60208b015260ff1660408a015260608901610100905261010089019061118e92611a3c565b9087820360808901526111a092611a3c565b9085820360a08701526111b292611a3c565b9083820360c08501526111c492611a3c565b60e43560e083015233918060043592037f6a4a61743519c9d648a14e6493f47dbe3ff1aa29e7785c96c8326a205e58febc91a4005b6004355f52600160205260405f20805490600160401b82101561127e576001820180825582101561126a575f5260205f2001336bffffffffffffffffffffffff60a01b8254161790556004355f52600260205260405f20335f5260205260405f20600160ff1982541617905561114e565b634e487b7160e01b5f52603260045260245ffd5b634e487b7160e01b5f52604160045260245ffd5b015190505f80611101565b90601f19831691600285015f5260205f20925f5b8181106112fd5750936003936001600160401b039897969360019383608098106112e6575b505050811b016002820155611117565b01515f1983871b60f8161c191690555f80806112d6565b929360206001819287860151815501950193016112b1565b600284015f5260205f20601f840160051c81019160208510611353575b601f0160051c01905b81811061134857506110d8565b5f815560010161133b565b9091508190611332565b015190508f80611095565b9250600184015f5260205f20905f935b601f19841685106113bb576001945083601f198116106113a3575b505050811b0160018201556110ac565b01515f1960f88460031b161c191690558f8080611393565b81810151835560209485019460019093019290910190611378565b909150600184015f5260205f20601f840160051c81016020851061141f575b90849392915b601f830160051c8201811061141157505061107f565b5f81558594506001016113fb565b50806113f5565b634e487b7160e01b5f525f60045260245ffd5b60405162461bcd60e51b815260206004820152601960248201527f43616e6e6f7420666565646261636b206f776e206167656e74000000000000006044820152606490fd5b60405163e985e9c560e01b81526001600160a01b0391821660048201523360248201529150602090829060449082907f0000000000000000000000000000000000000000000000000000000000000000165afa908115611522575f916114e7575b50158b610f79565b90506020813d60201161151a575b81611502602093836119b7565b810103126100c9575180151581036100c9578b6114df565b3d91506114f5565b6040513d5f823e3d90fd5b60405163020604bf60e21b815260048035908201529091506020816024817f00000000000000000000000000000000000000000000000000000000000000006001600160a01b03165afa908115611522575f91611598575b506001600160a01b031633141590610f73565b6115ba915060203d6020116115c0575b6115b281836119b7565b8101906119d8565b8c611585565b503d6115a8565b6115e0915060203d6020116115c0576115b281836119b7565b8b610f5e565b60405162461bcd60e51b8152602060048201526015602482015274088cac6d2dac2d8e640daeae6e840c4ca40605a627605b1b6044820152606490fd5b346100c95760603660031901126100c95760ff61168f60043561164461173c565b61164c611752565b9161166a6001600160401b0384168015159081611712575b50611881565b5f525f60205260405f209060018060a01b03165f52602052610d2060405f20916118bd565b5080549061170660026116f885600385015416936116d2604051916116c2836116bb8160018501611926565b03846119b7565b6116bb6040518096819301611926565b60405196868897600f0b885260801c16602087015260a0604087015260a0860190611768565b908482036060860152611768565b90151560808301520390f35b5f848152602081815260408083206001600160a01b03891684529091529020541015905087611664565b602435906001600160a01b03821682036100c957565b604435906001600160401b03821682036100c957565b805180835260209291819084018484015e5f828201840152601f01601f1916010190565b9181601f840112156100c9578235916001600160401b0383116100c957602083818601950101116100c957565b9081518082526020808093019301915f5b8281106117d8575050505090565b83516001600160a01b0316855293810193928101926001016117ca565b9181601f840112156100c9578235916001600160401b0383116100c9576020808501948460051b0101116100c957565b90808251908181526020809101926020808460051b8301019501935f915b8483106118535750505050505090565b9091929394958480611871600193601f198682030187528a51611768565b9801930193019194939290611843565b1561188857565b60405162461bcd60e51b815260206004820152600d60248201526c092dcecc2d8d2c840d2dcc8caf609b1b6044820152606490fd5b6001600160401b039081165f1901919082116105df57565b805482101561126a575f5260205f209060021b01905f90565b90600182811c9216801561191c575b602083101461190857565b634e487b7160e01b5f52602260045260245ffd5b91607f16916118fd565b80545f9392611934826118ee565b918282526020936001916001811690815f14611998575060011461195a575b5050505050565b90939495505f92919252835f2092845f945b83861061198457505050500101905f80808080611953565b80548587018301529401938590820161196c565b60ff19168685015250505090151560051b010191505f80808080611953565b90601f801991011681019081106001600160401b0382111761127e57604052565b908160209103126100c957516001600160a01b03811681036100c95790565b9291926001600160401b03821161127e5760405191611a20601f8201601f1916602001846119b7565b8294818452818301116100c9578281602093845f960137010152565b908060209392818452848401375f828201840152601f01601f1916010190565b919081101561126a5760051b0190565b356001600160a01b03811681036100c95790565b5f1981146105df5760010190565b6001600160401b03811161127e5760051b60200190565b90611aaf82611a8e565b611abc60405191826119b7565b8281528092611acd601f1991611a8e565b01905f5b828110611add57505050565b806060602080938501015201611ad1565b805182101561126a5760209160051b01019056fea26469706673582212207da7b6efa492feed4e0b1512a26e99ce7fa2c252a8de7e05a65e62cd1cbcce0e64736f6c63430008190033","opcodes":"PUSH1 0xA0 CALLVALUE PUSH1 0x7B JUMPI PUSH1 0x1F PUSH2 0x1BCC CODESIZE DUP2 SWAP1 SUB SWAP2 DUP3 ADD PUSH1 0x1F NOT AND DUP4 ADD SWAP2 PUSH1 0x1 PUSH1 0x1 PUSH1 0x40 SHL SUB DUP4 GT DUP5 DUP5 LT OR PUSH1 0x7F JUMPI DUP1 DUP5 SWAP3 PUSH1 0x20 SWAP5 PUSH1 0x40 MSTORE DUP4 CODECOPY DUP2 ADD SUB SLT PUSH1 0x7B JUMPI MLOAD PUSH1 0x1 PUSH1 0x1 PUSH1 0xA0 SHL SUB DUP2 AND DUP2 SUB PUSH1 0x7B JUMPI PUSH1 0x80 MSTORE PUSH1 0x40 MLOAD PUSH2 0x1B38 SWAP1 DUP2 PUSH2 0x94 DUP3 CODECOPY PUSH1 0x80 MLOAD DUP2 DUP2 DUP2 PUSH2 0x895 ADD MSTORE DUP2 DUP2 PUSH2 0xF26 ADD MSTORE DUP2 DUP2 PUSH2 0x14AF ADD MSTORE PUSH2 0x154D ADD MSTORE RETURN JUMPDEST PUSH0 DUP1 REVERT JUMPDEST PUSH4 0x4E487B71 PUSH1 0xE0 SHL PUSH0 MSTORE PUSH1 0x41 PUSH1 0x4 MSTORE PUSH1 0x24 PUSH0 REVERT INVALID PUSH2 0x260 PUSH1 0x40 MSTORE PUSH1 0x4 CALLDATASIZE LT ISZERO PUSH2 0x12 JUMPI PUSH0 DUP1 REVERT JUMPDEST PUSH0 CALLDATALOAD PUSH1 0xE0 SHR DUP1 PUSH4 0x232B0810 EQ PUSH2 0x1623 JUMPI DUP1 PUSH4 0x3C036A7E EQ PUSH2 0xE4E JUMPI DUP1 PUSH4 0x42DD519C EQ PUSH2 0xDC5 JUMPI DUP1 PUSH4 0x4AB3CA99 EQ PUSH2 0xCC0 JUMPI DUP1 PUSH4 0x81BBBA58 EQ PUSH2 0x8C4 JUMPI DUP1 PUSH4 0xBC4D861B EQ PUSH2 0x880 JUMPI DUP1 PUSH4 0xC2349AB2 EQ PUSH2 0x7A1 JUMPI DUP1 PUSH4 0xD9D84224 EQ PUSH2 0xCD JUMPI PUSH4 0xF2D81759 EQ PUSH2 0x7D JUMPI PUSH0 DUP1 REVERT JUMPDEST CALLVALUE PUSH2 0xC9 JUMPI PUSH1 0x40 CALLDATASIZE PUSH1 0x3 NOT ADD SLT PUSH2 0xC9 JUMPI PUSH2 0x96 PUSH2 0x173C JUMP JUMPDEST PUSH1 0x4 CALLDATALOAD PUSH0 MSTORE PUSH0 PUSH1 0x20 MSTORE PUSH1 0x40 PUSH0 KECCAK256 SWAP1 PUSH1 0x1 DUP1 PUSH1 0xA0 SHL SUB AND PUSH0 MSTORE PUSH1 0x20 MSTORE PUSH1 0x20 PUSH1 0x1 PUSH1 0x1 PUSH1 0x40 SHL SUB PUSH1 0x40 PUSH0 KECCAK256 SLOAD AND PUSH1 0x40 MLOAD SWAP1 DUP2 MSTORE RETURN JUMPDEST PUSH0 DUP1 REVERT JUMPDEST CALLVALUE PUSH2 0xC9 JUMPI PUSH1 0xA0 CALLDATASIZE PUSH1 0x3 NOT ADD SLT PUSH2 0xC9 JUMPI PUSH1 0x24 CALLDATALOAD PUSH1 0x1 PUSH1 0x1 PUSH1 0x40 SHL SUB DUP2 GT PUSH2 0xC9 JUMPI PUSH2 0xFD SWAP1 CALLDATASIZE SWAP1 PUSH1 0x4 ADD PUSH2 0x17F5 JUMP JUMPDEST SWAP1 PUSH1 0xA0 MSTORE PUSH1 0x44 CALLDATALOAD PUSH1 0x1 PUSH1 0x1 PUSH1 0x40 SHL SUB DUP2 GT PUSH2 0xC9 JUMPI PUSH2 0x120 SWAP1 CALLDATASIZE SWAP1 PUSH1 0x4 ADD PUSH2 0x178C JUMP JUMPDEST PUSH2 0x200 MSTORE PUSH2 0x220 MSTORE PUSH1 0x64 CALLDATALOAD PUSH1 0x1 PUSH1 0x1 PUSH1 0x40 SHL SUB DUP2 GT PUSH2 0xC9 JUMPI PUSH2 0x147 SWAP1 CALLDATASIZE SWAP1 PUSH1 0x4 ADD PUSH2 0x178C JUMP JUMPDEST PUSH2 0x1C0 MSTORE PUSH2 0x1A0 MSTORE PUSH1 0x84 CALLDATALOAD PUSH1 0x80 MSTORE PUSH1 0x80 MLOAD ISZERO ISZERO PUSH1 0x80 MLOAD SUB PUSH2 0xC9 JUMPI PUSH0 DUP1 JUMPDEST DUP3 DUP2 LT PUSH2 0x685 JUMPI POP DUP1 PUSH2 0x18D PUSH2 0x17D PUSH2 0x28A SWAP4 PUSH2 0x1A8E JUMP JUMPDEST PUSH1 0x40 MLOAD PUSH2 0x160 MSTORE PUSH2 0x160 MLOAD PUSH2 0x19B7 JUMP JUMPDEST DUP1 PUSH2 0x160 MLOAD MSTORE PUSH2 0x19C DUP2 PUSH2 0x1A8E JUMP JUMPDEST PUSH1 0x1F NOT ADD CALLDATASIZE PUSH1 0x20 PUSH2 0x160 MLOAD ADD CALLDATACOPY PUSH2 0x1C3 PUSH2 0x1B5 DUP3 PUSH2 0x1A8E JUMP JUMPDEST PUSH1 0x40 MLOAD PUSH1 0xC0 MSTORE PUSH1 0xC0 MLOAD PUSH2 0x19B7 JUMP JUMPDEST DUP1 PUSH1 0xC0 MLOAD MSTORE PUSH2 0x1D1 DUP2 PUSH2 0x1A8E JUMP JUMPDEST PUSH1 0x1F NOT ADD CALLDATASIZE PUSH1 0x20 PUSH1 0xC0 MLOAD ADD CALLDATACOPY PUSH2 0x1F7 PUSH2 0x1E9 DUP3 PUSH2 0x1A8E JUMP JUMPDEST PUSH1 0x40 MLOAD PUSH1 0xE0 MSTORE PUSH1 0xE0 MLOAD PUSH2 0x19B7 JUMP JUMPDEST DUP1 PUSH1 0xE0 MLOAD MSTORE PUSH2 0x205 DUP2 PUSH2 0x1A8E JUMP JUMPDEST PUSH1 0x1F NOT ADD CALLDATASIZE PUSH1 0x20 PUSH1 0xE0 MLOAD ADD CALLDATACOPY PUSH2 0x22D PUSH2 0x21D DUP3 PUSH2 0x1A8E JUMP JUMPDEST PUSH1 0x40 MLOAD PUSH2 0x180 MSTORE PUSH2 0x180 MLOAD PUSH2 0x19B7 JUMP JUMPDEST DUP1 PUSH2 0x180 MLOAD MSTORE PUSH2 0x23C DUP2 PUSH2 0x1A8E JUMP JUMPDEST PUSH1 0x1F NOT ADD CALLDATASIZE PUSH1 0x20 PUSH2 0x180 MLOAD ADD CALLDATACOPY PUSH2 0x252 DUP2 PUSH2 0x1AA5 JUMP JUMPDEST PUSH2 0x100 MSTORE PUSH2 0x25F DUP2 PUSH2 0x1AA5 JUMP JUMPDEST PUSH2 0x120 MSTORE PUSH2 0x27F PUSH2 0x26F DUP3 PUSH2 0x1A8E JUMP JUMPDEST PUSH1 0x40 MLOAD PUSH2 0x140 MSTORE PUSH2 0x140 MLOAD PUSH2 0x19B7 JUMP JUMPDEST DUP1 PUSH2 0x140 MLOAD MSTORE PUSH2 0x1A8E JUMP JUMPDEST PUSH1 0x1F NOT ADD CALLDATASIZE PUSH1 0x20 PUSH2 0x140 MLOAD ADD CALLDATACOPY PUSH0 PUSH2 0x240 MSTORE PUSH0 JUMPDEST DUP2 DUP2 LT PUSH2 0x3FF JUMPI PUSH1 0x40 MLOAD PUSH1 0xE0 DUP2 MSTORE DUP1 PUSH2 0x2BD PUSH1 0xE0 DUP3 ADD PUSH2 0x160 MLOAD PUSH2 0x17B9 JUMP JUMPDEST DUP2 DUP2 SUB PUSH1 0x20 DUP4 ADD MSTORE PUSH1 0x20 PUSH1 0xC0 MLOAD MLOAD SWAP2 DUP3 DUP2 MSTORE ADD SWAP1 PUSH1 0x20 PUSH1 0xC0 MLOAD ADD SWAP1 PUSH0 JUMPDEST DUP2 DUP2 LT PUSH2 0x3DD JUMPI POP POP POP DUP2 DUP2 SUB PUSH1 0x40 DUP4 ADD MSTORE PUSH1 0x20 PUSH1 0xE0 MLOAD MLOAD SWAP2 DUP3 DUP2 MSTORE ADD SWAP1 PUSH1 0x20 PUSH1 0xE0 MLOAD ADD SWAP1 PUSH0 JUMPDEST DUP2 DUP2 LT PUSH2 0x3C1 JUMPI POP POP POP DUP2 DUP2 SUB PUSH1 0x60 DUP4 ADD MSTORE PUSH1 0x20 PUSH2 0x180 MLOAD MLOAD SWAP2 DUP3 DUP2 MSTORE ADD SWAP1 PUSH1 0x20 PUSH2 0x180 MLOAD ADD SWAP1 PUSH0 JUMPDEST DUP2 DUP2 LT PUSH2 0x3A5 JUMPI POP POP POP PUSH2 0x34C DUP2 DUP4 PUSH2 0x35D SWAP4 SUB PUSH1 0x80 DUP6 ADD MSTORE PUSH2 0x100 MLOAD PUSH2 0x1825 JUMP JUMPDEST DUP3 DUP2 SUB PUSH1 0xA0 DUP5 ADD MSTORE PUSH2 0x120 MLOAD PUSH2 0x1825 JUMP JUMPDEST DUP2 DUP2 SUB PUSH1 0xC0 DUP4 ADD MSTORE PUSH1 0x20 PUSH2 0x140 MLOAD MLOAD SWAP2 DUP3 DUP2 MSTORE ADD SWAP1 PUSH1 0x20 PUSH2 0x140 MLOAD ADD SWAP1 PUSH0 JUMPDEST DUP2 DUP2 LT PUSH2 0x38A JUMPI POP POP POP SUB SWAP1 RETURN JUMPDEST DUP3 MLOAD ISZERO ISZERO DUP5 MSTORE DUP6 SWAP5 POP PUSH1 0x20 SWAP4 DUP5 ADD SWAP4 SWAP1 SWAP3 ADD SWAP2 PUSH1 0x1 ADD PUSH2 0x37C JUMP JUMPDEST DUP3 MLOAD PUSH1 0xFF AND DUP5 MSTORE DUP6 SWAP5 POP PUSH1 0x20 SWAP4 DUP5 ADD SWAP4 SWAP1 SWAP3 ADD SWAP2 PUSH1 0x1 ADD PUSH2 0x32A JUMP JUMPDEST DUP3 MLOAD PUSH1 0xF SIGNEXTEND DUP5 MSTORE DUP6 SWAP5 POP PUSH1 0x20 SWAP4 DUP5 ADD SWAP4 SWAP1 SWAP3 ADD SWAP2 PUSH1 0x1 ADD PUSH2 0x301 JUMP JUMPDEST DUP3 MLOAD PUSH1 0x1 PUSH1 0x1 PUSH1 0x40 SHL SUB AND DUP5 MSTORE DUP6 SWAP5 POP PUSH1 0x20 SWAP4 DUP5 ADD SWAP4 SWAP1 SWAP3 ADD SWAP2 PUSH1 0x1 ADD PUSH2 0x2DA JUMP JUMPDEST PUSH2 0x414 PUSH2 0x40F DUP3 DUP5 PUSH1 0xA0 MLOAD PUSH2 0x1A5C JUMP JUMPDEST PUSH2 0x1A6C JUMP JUMPDEST PUSH1 0x4 CALLDATALOAD PUSH0 MSTORE PUSH0 PUSH1 0x20 MSTORE PUSH1 0x40 PUSH0 KECCAK256 PUSH1 0x1 DUP1 PUSH1 0xA0 SHL SUB DUP3 AND PUSH0 MSTORE PUSH1 0x20 MSTORE PUSH1 0x40 PUSH0 KECCAK256 SWAP1 PUSH0 PUSH2 0x1E0 MSTORE DUP2 SLOAD JUMPDEST DUP1 PUSH2 0x1E0 MLOAD LT PUSH2 0x451 JUMPI POP POP POP PUSH1 0x1 ADD PUSH2 0x29E JUMP JUMPDEST PUSH1 0x80 MLOAD ISZERO DUP1 PUSH2 0x66A JUMPI JUMPDEST PUSH2 0x5F3 JUMPI PUSH2 0x200 MLOAD ISZERO ISZERO DUP1 PUSH2 0x631 JUMPI JUMPDEST PUSH2 0x5F3 JUMPI PUSH2 0x1C0 MLOAD ISZERO ISZERO DUP1 PUSH2 0x5F8 JUMPI JUMPDEST PUSH2 0x5F3 JUMPI PUSH2 0x240 MLOAD PUSH2 0x160 MLOAD PUSH1 0x1 PUSH1 0x1 PUSH1 0xA0 SHL SUB DUP5 AND SWAP2 PUSH2 0x49B SWAP2 PUSH2 0x1AEE JUMP JUMPDEST MSTORE PUSH1 0x1 PUSH2 0x1E0 MLOAD ADD PUSH2 0x1E0 MLOAD GT PUSH2 0x5DF JUMPI PUSH1 0x1 PUSH1 0x1 PUSH1 0x40 SHL SUB PUSH1 0x1 PUSH2 0x1E0 MLOAD ADD AND PUSH2 0x4CB PUSH2 0x240 MLOAD PUSH1 0xC0 MLOAD PUSH2 0x1AEE JUMP JUMPDEST MSTORE PUSH2 0x4D9 PUSH2 0x1E0 MLOAD DUP5 PUSH2 0x18D5 JUMP JUMPDEST POP SLOAD PUSH1 0xF SIGNEXTEND PUSH2 0x4ED PUSH2 0x240 MLOAD PUSH1 0xE0 MLOAD PUSH2 0x1AEE JUMP JUMPDEST MSTORE PUSH2 0x4FB PUSH2 0x1E0 MLOAD DUP5 PUSH2 0x18D5 JUMP JUMPDEST POP PUSH1 0xFF DUP1 SWAP2 SLOAD PUSH1 0x80 SHR AND PUSH2 0x515 PUSH2 0x240 MLOAD PUSH2 0x180 MLOAD PUSH2 0x1AEE JUMP JUMPDEST MSTORE PUSH1 0x1 PUSH2 0x540 PUSH2 0x528 PUSH2 0x1E0 MLOAD DUP8 PUSH2 0x18D5 JUMP JUMPDEST POP PUSH2 0x539 PUSH1 0x40 MLOAD DUP1 SWAP5 DUP2 SWAP4 ADD PUSH2 0x1926 JUMP JUMPDEST SUB DUP3 PUSH2 0x19B7 JUMP JUMPDEST PUSH2 0x550 PUSH2 0x240 MLOAD PUSH2 0x100 MLOAD PUSH2 0x1AEE JUMP JUMPDEST MSTORE PUSH2 0x561 PUSH2 0x240 MLOAD PUSH2 0x100 MLOAD PUSH2 0x1AEE JUMP JUMPDEST POP PUSH1 0x2 PUSH2 0x574 PUSH2 0x528 PUSH2 0x1E0 MLOAD DUP8 PUSH2 0x18D5 JUMP JUMPDEST PUSH2 0x584 PUSH2 0x240 MLOAD PUSH2 0x120 MLOAD PUSH2 0x1AEE JUMP JUMPDEST MSTORE PUSH2 0x595 PUSH2 0x240 MLOAD PUSH2 0x120 MLOAD PUSH2 0x1AEE JUMP JUMPDEST POP PUSH1 0x3 PUSH2 0x5A5 PUSH2 0x1E0 MLOAD DUP7 PUSH2 0x18D5 JUMP JUMPDEST POP ADD SLOAD AND PUSH2 0x5B9 PUSH2 0x240 MLOAD PUSH2 0x140 MLOAD PUSH2 0x1AEE JUMP JUMPDEST SWAP1 ISZERO ISZERO SWAP1 MSTORE PUSH2 0x5CA PUSH2 0x240 MLOAD PUSH2 0x1A80 JUMP JUMPDEST PUSH2 0x240 MSTORE JUMPDEST PUSH1 0x1 PUSH2 0x1E0 MLOAD ADD PUSH2 0x1E0 MSTORE PUSH2 0x43C JUMP JUMPDEST PUSH4 0x4E487B71 PUSH1 0xE0 SHL PUSH0 MSTORE PUSH1 0x11 PUSH1 0x4 MSTORE PUSH1 0x24 PUSH0 REVERT JUMPDEST PUSH2 0x5CF JUMP JUMPDEST POP PUSH1 0x2 PUSH2 0x60B PUSH2 0x528 PUSH2 0x1E0 MLOAD DUP7 PUSH2 0x18D5 JUMP JUMPDEST PUSH1 0x20 DUP2 MLOAD SWAP2 ADD KECCAK256 PUSH2 0x623 CALLDATASIZE PUSH2 0x1C0 MLOAD PUSH2 0x1A0 MLOAD PUSH2 0x19F7 JUMP JUMPDEST PUSH1 0x20 DUP2 MLOAD SWAP2 ADD KECCAK256 EQ ISZERO PUSH2 0x47B JUMP JUMPDEST POP PUSH1 0x1 PUSH2 0x644 PUSH2 0x528 PUSH2 0x1E0 MLOAD DUP7 PUSH2 0x18D5 JUMP JUMPDEST PUSH1 0x20 DUP2 MLOAD SWAP2 ADD KECCAK256 PUSH2 0x65C CALLDATASIZE PUSH2 0x200 MLOAD PUSH2 0x220 MLOAD PUSH2 0x19F7 JUMP JUMPDEST PUSH1 0x20 DUP2 MLOAD SWAP2 ADD KECCAK256 EQ ISZERO PUSH2 0x46B JUMP JUMPDEST POP PUSH1 0xFF PUSH1 0x3 PUSH2 0x67C PUSH2 0x1E0 MLOAD DUP7 PUSH2 0x18D5 JUMP JUMPDEST POP ADD SLOAD AND PUSH2 0x45B JUMP JUMPDEST PUSH1 0x4 CALLDATALOAD PUSH0 MSTORE PUSH0 PUSH1 0x20 MSTORE PUSH1 0x40 PUSH0 KECCAK256 PUSH1 0x1 DUP1 PUSH1 0xA0 SHL SUB PUSH2 0x6A9 PUSH2 0x40F DUP5 DUP8 PUSH1 0xA0 MLOAD PUSH2 0x1A5C JUMP JUMPDEST AND PUSH0 MSTORE PUSH1 0x20 MSTORE PUSH1 0x40 PUSH0 KECCAK256 PUSH0 SWAP1 DUP1 SLOAD SWAP1 JUMPDEST DUP2 DUP4 LT PUSH2 0x6CB JUMPI POP POP POP PUSH1 0x1 ADD PUSH2 0x165 JUMP JUMPDEST SWAP1 SWAP2 SWAP4 PUSH1 0x80 MLOAD ISZERO PUSH1 0x80 MLOAD ISZERO PUSH2 0x789 JUMPI JUMPDEST PUSH2 0x714 JUMPI PUSH2 0x200 MLOAD ISZERO ISZERO DUP1 PUSH2 0x753 JUMPI JUMPDEST PUSH2 0x714 JUMPI PUSH2 0x1C0 MLOAD ISZERO ISZERO DUP1 PUSH2 0x71D JUMPI JUMPDEST PUSH2 0x714 JUMPI PUSH2 0x70A PUSH1 0x1 SWAP2 PUSH2 0x1A80 JUMP JUMPDEST SWAP5 JUMPDEST ADD SWAP2 SWAP1 PUSH2 0x6B9 JUMP JUMPDEST SWAP4 PUSH1 0x1 SWAP1 PUSH2 0x70C JUMP JUMPDEST POP PUSH1 0x2 PUSH2 0x72D PUSH2 0x528 DUP8 DUP6 PUSH2 0x18D5 JUMP JUMPDEST PUSH1 0x20 DUP2 MLOAD SWAP2 ADD KECCAK256 PUSH2 0x745 CALLDATASIZE PUSH2 0x1C0 MLOAD PUSH2 0x1A0 MLOAD PUSH2 0x19F7 JUMP JUMPDEST PUSH1 0x20 DUP2 MLOAD SWAP2 ADD KECCAK256 EQ ISZERO PUSH2 0x6FB JUMP JUMPDEST POP PUSH1 0x1 PUSH2 0x763 PUSH2 0x528 DUP8 DUP6 PUSH2 0x18D5 JUMP JUMPDEST PUSH1 0x20 DUP2 MLOAD SWAP2 ADD KECCAK256 PUSH2 0x77B CALLDATASIZE PUSH2 0x200 MLOAD PUSH2 0x220 MLOAD PUSH2 0x19F7 JUMP JUMPDEST PUSH1 0x20 DUP2 MLOAD SWAP2 ADD KECCAK256 EQ ISZERO PUSH2 0x6EB JUMP JUMPDEST POP PUSH1 0xFF PUSH1 0x3 PUSH2 0x798 DUP8 DUP6 PUSH2 0x18D5 JUMP JUMPDEST POP ADD SLOAD AND PUSH2 0x6DB JUMP JUMPDEST CALLVALUE PUSH2 0xC9 JUMPI PUSH1 0xA0 CALLDATASIZE PUSH1 0x3 NOT ADD SLT PUSH2 0xC9 JUMPI PUSH1 0x4 CALLDATALOAD PUSH2 0x7BD PUSH2 0x173C JUMP JUMPDEST SWAP1 PUSH2 0x7C6 PUSH2 0x1752 JUMP JUMPDEST PUSH1 0x1 PUSH1 0x1 PUSH1 0x40 SHL SUB SWAP2 SWAP1 PUSH1 0x64 CALLDATALOAD DUP4 DUP2 GT PUSH2 0xC9 JUMPI PUSH32 0xB1C6BE0B5B8AEF6539E2FAC0FD131A2FAA7B49EDF8E505B5EB0AD487D56051D4 SWAP2 PUSH2 0x80D PUSH2 0x83B SWAP3 CALLDATASIZE SWAP1 PUSH1 0x4 ADD PUSH2 0x178C JUMP JUMPDEST SWAP6 SWAP1 SWAP2 AND SWAP5 DUP6 ISZERO ISZERO DUP1 PUSH2 0x857 JUMPI JUMPDEST PUSH2 0x824 SWAP1 PUSH2 0x1881 JUMP JUMPDEST PUSH1 0x40 MLOAD SWAP6 DUP7 MSTORE PUSH1 0x60 PUSH1 0x20 DUP8 ADD MSTORE PUSH1 0x60 DUP7 ADD SWAP2 PUSH2 0x1A3C JUMP JUMPDEST PUSH1 0x84 CALLDATALOAD PUSH1 0x40 DUP6 ADD MSTORE CALLER SWAP5 PUSH1 0x1 PUSH1 0x1 PUSH1 0xA0 SHL SUB AND SWAP4 SWAP1 DUP2 SWAP1 SUB SWAP1 LOG4 STOP JUMPDEST POP PUSH0 DUP6 DUP2 MSTORE PUSH1 0x20 DUP2 DUP2 MSTORE PUSH1 0x40 DUP1 DUP4 KECCAK256 PUSH1 0x1 PUSH1 0x1 PUSH1 0xA0 SHL SUB DUP12 AND DUP5 MSTORE SWAP1 SWAP2 MSTORE SWAP1 KECCAK256 SLOAD DUP7 GT ISZERO PUSH2 0x81B JUMP JUMPDEST CALLVALUE PUSH2 0xC9 JUMPI PUSH0 CALLDATASIZE PUSH1 0x3 NOT ADD SLT PUSH2 0xC9 JUMPI PUSH1 0x40 MLOAD PUSH32 0x0 PUSH1 0x1 PUSH1 0x1 PUSH1 0xA0 SHL SUB AND DUP2 MSTORE PUSH1 0x20 SWAP1 RETURN JUMPDEST CALLVALUE PUSH2 0xC9 JUMPI PUSH1 0x80 CALLDATASIZE PUSH1 0x3 NOT ADD SLT PUSH2 0xC9 JUMPI PUSH1 0x24 CALLDATALOAD PUSH1 0x1 PUSH1 0x1 PUSH1 0x40 SHL SUB DUP2 GT PUSH2 0xC9 JUMPI PUSH2 0x8F4 SWAP1 CALLDATASIZE SWAP1 PUSH1 0x4 ADD PUSH2 0x17F5 JUMP JUMPDEST PUSH1 0x44 CALLDATALOAD PUSH1 0x1 PUSH1 0x1 PUSH1 0x40 SHL SUB DUP2 GT PUSH2 0xC9 JUMPI PUSH2 0x913 SWAP1 CALLDATASIZE SWAP1 PUSH1 0x4 ADD PUSH2 0x178C JUMP JUMPDEST SWAP3 PUSH1 0x64 CALLDATALOAD PUSH1 0x1 PUSH1 0x1 PUSH1 0x40 SHL SUB DUP2 GT PUSH2 0xC9 JUMPI PUSH2 0x933 SWAP1 CALLDATASIZE SWAP1 PUSH1 0x4 ADD PUSH2 0x178C JUMP JUMPDEST SWAP2 SWAP1 SWAP3 DUP5 ISZERO PUSH2 0xC82 JUMPI PUSH0 SWAP4 PUSH0 SWAP4 PUSH0 SWAP7 PUSH0 JUMPDEST DUP2 DUP2 LT PUSH2 0xB6C JUMPI POP PUSH0 JUMPDEST DUP2 DUP2 LT PUSH2 0x9BF JUMPI DUP9 PUSH1 0x1 PUSH1 0x1 PUSH1 0x40 SHL SUB DUP9 AND DUP10 DUP2 ISZERO DUP1 PUSH2 0x9B2 JUMPI PUSH2 0x99E JUMPI PUSH1 0x1 PUSH1 0xFF SHL DUP2 EQ PUSH0 NOT DUP4 EQ AND PUSH2 0x5DF JUMPI PUSH1 0x60 SWAP3 DUP3 PUSH1 0xFF SWAP3 SDIV PUSH1 0xF SIGNEXTEND JUMPDEST PUSH1 0x40 MLOAD SWAP4 DUP5 MSTORE PUSH1 0xF SIGNEXTEND PUSH1 0x20 DUP5 ADD MSTORE AND PUSH1 0x40 DUP3 ADD MSTORE RETURN JUMPDEST PUSH4 0x4E487B71 PUSH1 0xE0 SHL PUSH0 MSTORE PUSH1 0x12 PUSH1 0x4 MSTORE PUSH1 0x24 PUSH0 REVERT JUMPDEST POP POP PUSH1 0xFF PUSH1 0x60 SWAP3 PUSH0 PUSH2 0x988 JUMP JUMPDEST PUSH1 0x4 CALLDATALOAD PUSH0 SWAP1 DUP2 MSTORE PUSH1 0x20 DUP2 SWAP1 MSTORE PUSH1 0x40 SWAP1 KECCAK256 PUSH1 0x1 PUSH1 0x1 PUSH1 0xA0 SHL SUB PUSH2 0x9E5 PUSH2 0x40F DUP5 DUP7 DUP12 PUSH2 0x1A5C JUMP JUMPDEST AND PUSH0 MSTORE PUSH1 0x20 MSTORE PUSH1 0x40 PUSH0 KECCAK256 PUSH0 SWAP1 DUP1 SLOAD SWAP1 JUMPDEST DUP2 DUP4 LT PUSH2 0xA07 JUMPI POP POP POP PUSH1 0x1 ADD PUSH2 0x94E JUMP JUMPDEST SWAP1 SWAP2 SWAP9 SWAP10 PUSH1 0xFF PUSH1 0x3 PUSH2 0xA19 DUP13 DUP6 PUSH2 0x18D5 JUMP JUMPDEST POP ADD SLOAD AND PUSH2 0xAFD JUMPI DUP13 ISZERO ISZERO DUP14 DUP12 DUP3 PUSH2 0xB37 JUMPI JUMPDEST POP POP PUSH2 0xAFD JUMPI DUP6 ISZERO ISZERO DUP1 PUSH2 0xB07 JUMPI JUMPDEST PUSH2 0xAFD JUMPI DUP10 DUP13 PUSH1 0xFF DUP1 PUSH2 0xA5D PUSH2 0xA51 DUP6 DUP9 PUSH2 0x18D5 JUMP JUMPDEST POP SLOAD PUSH1 0xF SIGNEXTEND SWAP5 DUP8 PUSH2 0x18D5 JUMP JUMPDEST POP SLOAD PUSH1 0x80 SHR AND SWAP2 AND DUP1 SWAP2 LT PUSH2 0xAAD JUMPI JUMPDEST POP SWAP1 PUSH0 DUP3 DUP3 ADD SWAP3 DUP4 SLT SWAP2 SLT SWAP1 DUP1 ISZERO DUP3 AND SWAP2 ISZERO AND OR PUSH2 0x5DF JUMPI PUSH1 0x1 PUSH1 0x1 PUSH1 0x40 SHL SUB SWAP1 SWAP11 AND PUSH1 0x1 PUSH1 0x1 PUSH1 0x40 SHL SUB DUP2 EQ PUSH2 0x5DF JUMPI PUSH1 0x1 DUP1 SWAP2 ADD SWAP10 JUMPDEST ADD SWAP2 SWAP1 PUSH2 0x9F5 JUMP JUMPDEST PUSH1 0xFF PUSH2 0xAB9 DUP14 DUP7 PUSH2 0x18D5 JUMP JUMPDEST POP SLOAD PUSH1 0x80 SHR AND SWAP1 SUB PUSH1 0xFF DUP2 GT PUSH2 0x5DF JUMPI PUSH1 0xFF AND PUSH1 0x4D DUP2 GT PUSH2 0x5DF JUMPI PUSH1 0xA EXP DUP2 DUP2 MUL SWAP2 SWAP1 PUSH0 DUP3 SLT PUSH1 0x1 PUSH1 0xFF SHL DUP3 EQ AND PUSH2 0x5DF JUMPI DUP2 DUP4 SDIV EQ SWAP1 ISZERO OR ISZERO PUSH2 0x5DF JUMPI DUP15 PUSH2 0xA6D JUMP JUMPDEST SWAP10 SWAP9 PUSH1 0x1 SWAP1 PUSH2 0xAA5 JUMP JUMPDEST POP PUSH1 0x2 PUSH2 0xB17 PUSH2 0x528 DUP13 DUP6 PUSH2 0x18D5 JUMP JUMPDEST PUSH1 0x20 DUP2 MLOAD SWAP2 ADD KECCAK256 PUSH2 0xB29 CALLDATASIZE DUP9 DUP11 PUSH2 0x19F7 JUMP JUMPDEST PUSH1 0x20 DUP2 MLOAD SWAP2 ADD KECCAK256 EQ ISZERO PUSH2 0xA3B JUMP JUMPDEST PUSH2 0xB5C SWAP2 SWAP3 POP PUSH2 0xB4C PUSH2 0x528 PUSH1 0x1 SWAP3 DUP8 PUSH2 0x18D5 JUMP JUMPDEST PUSH1 0x20 DUP2 MLOAD SWAP2 ADD KECCAK256 SWAP2 CALLDATASIZE SWAP1 DUP12 PUSH2 0x19F7 JUMP JUMPDEST PUSH1 0x20 DUP2 MLOAD SWAP2 ADD KECCAK256 EQ ISZERO DUP14 DUP12 PUSH2 0xA2C JUMP JUMPDEST PUSH1 0x4 CALLDATALOAD PUSH0 SWAP1 DUP2 MSTORE PUSH1 0x20 DUP2 SWAP1 MSTORE PUSH1 0x40 SWAP1 KECCAK256 PUSH1 0x1 PUSH1 0x1 PUSH1 0xA0 SHL SUB PUSH2 0xB92 PUSH2 0x40F DUP5 DUP7 DUP12 PUSH2 0x1A5C JUMP JUMPDEST AND PUSH0 MSTORE PUSH1 0x20 MSTORE PUSH1 0x40 PUSH0 KECCAK256 PUSH0 SWAP1 DUP1 SLOAD SWAP2 JUMPDEST DUP3 DUP2 LT PUSH2 0xBB4 JUMPI POP POP POP PUSH1 0x1 ADD PUSH2 0x944 JUMP JUMPDEST PUSH1 0xFF PUSH1 0x3 PUSH2 0xBC2 DUP4 DUP6 PUSH2 0x18D5 JUMP JUMPDEST POP ADD SLOAD AND PUSH2 0xC28 JUMPI DUP13 ISZERO ISZERO DUP1 PUSH2 0xC60 JUMPI JUMPDEST PUSH2 0xC28 JUMPI DUP6 ISZERO ISZERO DUP1 PUSH2 0xC30 JUMPI JUMPDEST PUSH2 0xC28 JUMPI PUSH1 0xFF PUSH2 0xBF0 DUP3 DUP5 PUSH2 0x18D5 JUMP JUMPDEST POP SLOAD PUSH1 0x80 SHR AND PUSH1 0xFF DUP14 AND LT PUSH2 0xC0A JUMPI JUMPDEST PUSH1 0x1 SWAP1 JUMPDEST ADD PUSH2 0xBA2 JUMP JUMPDEST SWAP11 POP PUSH1 0x1 PUSH1 0xFF PUSH2 0xC1A DUP14 DUP5 PUSH2 0x18D5 JUMP JUMPDEST POP SLOAD PUSH1 0x80 SHR AND SWAP12 SWAP1 POP PUSH2 0xC00 JUMP JUMPDEST PUSH1 0x1 SWAP1 PUSH2 0xC04 JUMP JUMPDEST POP PUSH1 0x2 PUSH2 0xC40 PUSH2 0x528 DUP4 DUP6 PUSH2 0x18D5 JUMP JUMPDEST PUSH1 0x20 DUP2 MLOAD SWAP2 ADD KECCAK256 PUSH2 0xC52 CALLDATASIZE DUP9 DUP11 PUSH2 0x19F7 JUMP JUMPDEST PUSH1 0x20 DUP2 MLOAD SWAP2 ADD KECCAK256 EQ ISZERO PUSH2 0xBE0 JUMP JUMPDEST POP DUP13 PUSH2 0xC74 PUSH1 0x1 PUSH2 0xB4C PUSH2 0x528 DUP6 DUP8 PUSH2 0x18D5 JUMP JUMPDEST PUSH1 0x20 DUP2 MLOAD SWAP2 ADD KECCAK256 EQ ISZERO PUSH2 0xBD3 JUMP JUMPDEST PUSH1 0x40 MLOAD PUSH3 0x461BCD PUSH1 0xE5 SHL DUP2 MSTORE PUSH1 0x20 PUSH1 0x4 DUP3 ADD MSTORE PUSH1 0x16 PUSH1 0x24 DUP3 ADD MSTORE PUSH22 0x10DB1A595B9D1CC8185C9C985E481C995C5D5A5C9959 PUSH1 0x52 SHL PUSH1 0x44 DUP3 ADD MSTORE PUSH1 0x64 SWAP1 REVERT JUMPDEST CALLVALUE PUSH2 0xC9 JUMPI PUSH1 0x40 CALLDATASIZE PUSH1 0x3 NOT ADD SLT PUSH2 0xC9 JUMPI PUSH1 0x4 CALLDATALOAD PUSH1 0x24 CALLDATALOAD SWAP1 PUSH1 0x1 PUSH1 0x1 PUSH1 0x40 SHL SUB DUP3 AND SWAP2 DUP3 DUP2 SUB PUSH2 0xC9 JUMPI PUSH2 0xD26 PUSH1 0x3 SWAP2 DUP5 ISZERO ISZERO DUP1 PUSH2 0xDA1 JUMPI JUMPDEST PUSH2 0xD02 SWAP1 PUSH2 0x1881 JUMP JUMPDEST DUP4 PUSH0 MSTORE PUSH0 PUSH1 0x20 MSTORE PUSH1 0x40 PUSH0 KECCAK256 CALLER PUSH0 MSTORE PUSH1 0x20 MSTORE PUSH2 0xD20 PUSH1 0x40 PUSH0 KECCAK256 SWAP2 PUSH2 0x18BD JUMP JUMPDEST SWAP1 PUSH2 0x18D5 JUMP JUMPDEST POP ADD DUP1 SLOAD PUSH1 0xFF DUP2 AND PUSH2 0xD6A JUMPI PUSH1 0x1 SWAP1 PUSH1 0xFF NOT AND OR SWAP1 SSTORE PUSH1 0x40 MLOAD SWAP2 DUP3 MSTORE PUSH32 0x25156FD3288212246D8B008D5921FDE376C71ED14AC2E072A506EB06FDE6D09D PUSH1 0x20 CALLER SWAP4 LOG3 STOP JUMPDEST PUSH1 0x40 MLOAD PUSH3 0x461BCD PUSH1 0xE5 SHL DUP2 MSTORE PUSH1 0x20 PUSH1 0x4 DUP3 ADD MSTORE PUSH1 0xF PUSH1 0x24 DUP3 ADD MSTORE PUSH15 0x105B1C9958591E481C995D9BDAD959 PUSH1 0x8A SHL PUSH1 0x44 DUP3 ADD MSTORE PUSH1 0x64 SWAP1 REVERT JUMPDEST POP DUP4 PUSH0 MSTORE PUSH0 PUSH1 0x20 MSTORE PUSH1 0x40 PUSH0 KECCAK256 CALLER PUSH0 MSTORE PUSH1 0x20 MSTORE PUSH2 0xD02 PUSH1 0x40 PUSH0 KECCAK256 SLOAD DUP7 GT ISZERO SWAP1 POP PUSH2 0xCF9 JUMP JUMPDEST CALLVALUE PUSH2 0xC9 JUMPI PUSH1 0x20 DUP1 PUSH1 0x3 NOT CALLDATASIZE ADD SLT PUSH2 0xC9 JUMPI PUSH1 0x4 CALLDATALOAD PUSH0 MSTORE PUSH1 0x1 SWAP1 PUSH1 0x1 DUP2 MSTORE PUSH1 0x40 PUSH0 KECCAK256 SWAP2 PUSH1 0x40 MLOAD SWAP1 DUP2 SWAP4 DUP5 SWAP2 DUP5 DUP3 SLOAD SWAP5 DUP6 DUP2 MSTORE ADD SWAP2 PUSH0 MSTORE DUP5 PUSH0 KECCAK256 SWAP1 PUSH0 JUMPDEST DUP7 DUP7 DUP3 LT PUSH2 0xE2F JUMPI DUP6 SWAP1 PUSH2 0xE17 DUP3 DUP8 SUB DUP4 PUSH2 0x19B7 JUMP JUMPDEST PUSH2 0xE2B PUSH1 0x40 MLOAD SWAP3 DUP3 DUP5 SWAP4 DUP5 MSTORE DUP4 ADD SWAP1 PUSH2 0x17B9 JUMP JUMPDEST SUB SWAP1 RETURN JUMPDEST DUP4 SLOAD PUSH1 0x1 PUSH1 0x1 PUSH1 0xA0 SHL SUB AND DUP6 MSTORE DUP9 SWAP6 POP SWAP1 SWAP4 ADD SWAP3 SWAP2 DUP2 ADD SWAP2 DUP2 ADD PUSH2 0xE01 JUMP JUMPDEST CALLVALUE PUSH2 0xC9 JUMPI PUSH2 0x100 CALLDATASIZE PUSH1 0x3 NOT ADD SLT PUSH2 0xC9 JUMPI PUSH1 0x24 CALLDATALOAD DUP1 PUSH1 0xF SIGNEXTEND DUP2 SUB PUSH2 0xC9 JUMPI PUSH1 0x44 CALLDATALOAD PUSH1 0xFF DUP2 AND DUP2 SUB PUSH2 0xC9 JUMPI PUSH1 0x64 CALLDATALOAD PUSH1 0x1 PUSH1 0x1 PUSH1 0x40 SHL SUB DUP2 GT PUSH2 0xC9 JUMPI PUSH2 0xE99 SWAP1 CALLDATASIZE SWAP1 PUSH1 0x4 ADD PUSH2 0x178C JUMP JUMPDEST SWAP1 PUSH1 0x84 CALLDATALOAD PUSH1 0x1 PUSH1 0x1 PUSH1 0x40 SHL SUB DUP2 GT PUSH2 0xC9 JUMPI PUSH2 0xEB9 SWAP1 CALLDATASIZE SWAP1 PUSH1 0x4 ADD PUSH2 0x178C JUMP JUMPDEST SWAP1 PUSH1 0xA4 CALLDATALOAD PUSH1 0x1 PUSH1 0x1 PUSH1 0x40 SHL SUB DUP2 GT PUSH2 0xC9 JUMPI PUSH2 0xED9 SWAP1 CALLDATASIZE SWAP1 PUSH1 0x4 ADD PUSH2 0x178C JUMP JUMPDEST SWAP2 SWAP1 SWAP3 PUSH1 0xC4 CALLDATALOAD PUSH1 0x1 PUSH1 0x1 PUSH1 0x40 SHL SUB DUP2 GT PUSH2 0xC9 JUMPI PUSH2 0xEFB SWAP1 CALLDATASIZE SWAP1 PUSH1 0x4 ADD PUSH2 0x178C JUMP JUMPDEST SWAP6 SWAP1 SWAP7 PUSH1 0x12 PUSH1 0xFF DUP11 AND GT PUSH2 0x15E6 JUMPI PUSH1 0x40 MLOAD PUSH4 0x31A9108F PUSH1 0xE1 SHL DUP2 MSTORE PUSH1 0x4 DUP1 CALLDATALOAD SWAP1 DUP3 ADD MSTORE PUSH1 0x20 DUP2 PUSH1 0x24 DUP2 PUSH32 0x0 PUSH1 0x1 PUSH1 0x1 PUSH1 0xA0 SHL SUB AND GAS STATICCALL SWAP1 DUP2 ISZERO PUSH2 0x1522 JUMPI PUSH0 SWAP2 PUSH2 0x15C7 JUMPI JUMPDEST POP CALLER PUSH1 0x1 PUSH1 0x1 PUSH1 0xA0 SHL SUB DUP3 AND EQ ISZERO SWAP1 DUP2 PUSH2 0x152D JUMPI JUMPDEST DUP2 PUSH2 0x147E JUMPI JUMPDEST POP ISZERO PUSH2 0x1439 JUMPI PUSH1 0x4 CALLDATALOAD PUSH0 MSTORE PUSH0 PUSH1 0x20 MSTORE PUSH1 0x40 PUSH0 KECCAK256 CALLER PUSH0 MSTORE PUSH1 0x20 MSTORE PUSH1 0x40 PUSH0 KECCAK256 PUSH1 0x40 MLOAD DUP1 PUSH1 0xA0 DUP2 ADD LT PUSH1 0x1 PUSH1 0x1 PUSH1 0x40 SHL SUB PUSH1 0xA0 DUP4 ADD GT OR PUSH2 0x127E JUMPI PUSH1 0xA0 DUP2 ADD PUSH1 0x40 MSTORE DUP12 PUSH1 0xF SIGNEXTEND DUP2 MSTORE PUSH1 0x20 DUP2 ADD PUSH1 0xFF DUP13 AND DUP2 MSTORE PUSH2 0xFD3 CALLDATASIZE DUP6 DUP8 PUSH2 0x19F7 JUMP JUMPDEST PUSH1 0x40 DUP4 ADD SWAP1 DUP2 MSTORE PUSH2 0xFE5 CALLDATASIZE DUP9 DUP11 PUSH2 0x19F7 JUMP JUMPDEST PUSH1 0x60 DUP5 ADD MSTORE PUSH0 PUSH1 0x80 DUP5 ADD MSTORE DUP4 SLOAD PUSH1 0x1 PUSH1 0x40 SHL DUP2 LT ISZERO PUSH2 0x127E JUMPI DUP1 PUSH1 0x1 PUSH2 0x100E SWAP3 ADD DUP7 SSTORE DUP6 PUSH2 0x18D5 JUMP JUMPDEST SWAP3 SWAP1 SWAP3 PUSH2 0x1426 JUMPI DUP4 MLOAD DUP4 SLOAD SWAP2 MLOAD PUSH17 0xFFFFFFFFFFFFFFFFFFFFFFFFFFFFFFFFFF NOT SWAP1 SWAP3 AND PUSH16 0xFFFFFFFFFFFFFFFFFFFFFFFFFFFFFFFF SWAP1 SWAP2 AND OR PUSH1 0x80 SWAP2 SWAP1 SWAP2 SHL PUSH1 0xFF PUSH1 0x80 SHL AND OR DUP3 SSTORE MLOAD DUP1 MLOAD SWAP1 PUSH1 0x1 PUSH1 0x1 PUSH1 0x40 SHL SUB DUP3 GT PUSH2 0x127E JUMPI DUP2 SWAP1 PUSH2 0x1076 PUSH1 0x1 DUP6 ADD SLOAD PUSH2 0x18EE JUMP JUMPDEST PUSH1 0x1F DUP2 GT PUSH2 0x13D6 JUMPI JUMPDEST POP PUSH1 0x20 SWAP1 PUSH1 0x1F DUP4 GT PUSH1 0x1 EQ PUSH2 0x1368 JUMPI PUSH0 SWAP3 PUSH2 0x135D JUMPI JUMPDEST POP POP DUP2 PUSH1 0x1 SHL SWAP2 PUSH0 NOT SWAP1 PUSH1 0x3 SHL SHR NOT AND OR PUSH1 0x1 DUP3 ADD SSTORE JUMPDEST PUSH1 0x60 DUP3 ADD MLOAD DUP1 MLOAD SWAP1 PUSH1 0x1 PUSH1 0x1 PUSH1 0x40 SHL SUB DUP3 GT PUSH2 0x127E JUMPI PUSH2 0x10CF PUSH1 0x2 DUP5 ADD SLOAD PUSH2 0x18EE JUMP JUMPDEST PUSH1 0x1F DUP2 GT PUSH2 0x1315 JUMPI JUMPDEST POP PUSH1 0x20 SWAP1 PUSH1 0x1F DUP4 GT PUSH1 0x1 EQ PUSH2 0x129D JUMPI SWAP3 DUP3 PUSH1 0x80 SWAP4 PUSH1 0x3 SWAP4 PUSH1 0x1 PUSH1 0x1 PUSH1 0x40 SHL SUB SWAP9 SWAP8 SWAP7 PUSH0 SWAP3 PUSH2 0x1292 JUMPI JUMPDEST POP POP DUP2 PUSH1 0x1 SHL SWAP2 PUSH0 NOT SWAP1 DUP6 SHL SHR NOT AND OR PUSH1 0x2 DUP3 ADD SSTORE JUMPDEST ADD SWAP2 ADD MLOAD ISZERO ISZERO PUSH1 0xFF DUP1 NOT DUP4 SLOAD AND SWAP2 AND OR SWAP1 SSTORE SLOAD AND SWAP9 PUSH1 0x4 CALLDATALOAD PUSH0 MSTORE PUSH1 0x2 PUSH1 0x20 MSTORE PUSH1 0x40 PUSH0 KECCAK256 CALLER PUSH0 MSTORE PUSH1 0x20 MSTORE PUSH1 0xFF PUSH1 0x40 PUSH0 KECCAK256 SLOAD AND ISZERO PUSH2 0x11F9 JUMPI JUMPDEST PUSH1 0x40 MLOAD DUP3 DUP5 DUP3 CALLDATACOPY DUP1 DUP4 DUP2 ADD PUSH0 DUP2 MSTORE SUB SWAP1 KECCAK256 SWAP11 PUSH1 0x40 MLOAD SWAP11 DUP12 MSTORE PUSH1 0xF SIGNEXTEND PUSH1 0x20 DUP12 ADD MSTORE PUSH1 0xFF AND PUSH1 0x40 DUP11 ADD MSTORE PUSH1 0x60 DUP10 ADD PUSH2 0x100 SWAP1 MSTORE PUSH2 0x100 DUP10 ADD SWAP1 PUSH2 0x118E SWAP3 PUSH2 0x1A3C JUMP JUMPDEST SWAP1 DUP8 DUP3 SUB PUSH1 0x80 DUP10 ADD MSTORE PUSH2 0x11A0 SWAP3 PUSH2 0x1A3C JUMP JUMPDEST SWAP1 DUP6 DUP3 SUB PUSH1 0xA0 DUP8 ADD MSTORE PUSH2 0x11B2 SWAP3 PUSH2 0x1A3C JUMP JUMPDEST SWAP1 DUP4 DUP3 SUB PUSH1 0xC0 DUP6 ADD MSTORE PUSH2 0x11C4 SWAP3 PUSH2 0x1A3C JUMP JUMPDEST PUSH1 0xE4 CALLDATALOAD PUSH1 0xE0 DUP4 ADD MSTORE CALLER SWAP2 DUP1 PUSH1 0x4 CALLDATALOAD SWAP3 SUB PUSH32 0x6A4A61743519C9D648A14E6493F47DBE3FF1AA29E7785C96C8326A205E58FEBC SWAP2 LOG4 STOP JUMPDEST PUSH1 0x4 CALLDATALOAD PUSH0 MSTORE PUSH1 0x1 PUSH1 0x20 MSTORE PUSH1 0x40 PUSH0 KECCAK256 DUP1 SLOAD SWAP1 PUSH1 0x1 PUSH1 0x40 SHL DUP3 LT ISZERO PUSH2 0x127E JUMPI PUSH1 0x1 DUP3 ADD DUP1 DUP3 SSTORE DUP3 LT ISZERO PUSH2 0x126A JUMPI PUSH0 MSTORE PUSH1 0x20 PUSH0 KECCAK256 ADD CALLER PUSH12 0xFFFFFFFFFFFFFFFFFFFFFFFF PUSH1 0xA0 SHL DUP3 SLOAD AND OR SWAP1 SSTORE PUSH1 0x4 CALLDATALOAD PUSH0 MSTORE PUSH1 0x2 PUSH1 0x20 MSTORE PUSH1 0x40 PUSH0 KECCAK256 CALLER PUSH0 MSTORE PUSH1 0x20 MSTORE PUSH1 0x40 PUSH0 KECCAK256 PUSH1 0x1 PUSH1 0xFF NOT DUP3 SLOAD AND OR SWAP1 SSTORE PUSH2 0x114E JUMP JUMPDEST PUSH4 0x4E487B71 PUSH1 0xE0 SHL PUSH0 MSTORE PUSH1 0x32 PUSH1 0x4 MSTORE PUSH1 0x24 PUSH0 REVERT JUMPDEST PUSH4 0x4E487B71 PUSH1 0xE0 SHL PUSH0 MSTORE PUSH1 0x41 PUSH1 0x4 MSTORE PUSH1 0x24 PUSH0 REVERT JUMPDEST ADD MLOAD SWAP1 POP PUSH0 DUP1 PUSH2 0x1101 JUMP JUMPDEST SWAP1 PUSH1 0x1F NOT DUP4 AND SWAP2 PUSH1 0x2 DUP6 ADD PUSH0 MSTORE PUSH1 0x20 PUSH0 KECCAK256 SWAP3 PUSH0 JUMPDEST DUP2 DUP2 LT PUSH2 0x12FD JUMPI POP SWAP4 PUSH1 0x3 SWAP4 PUSH1 0x1 PUSH1 0x1 PUSH1 0x40 SHL SUB SWAP9 SWAP8 SWAP7 SWAP4 PUSH1 0x1 SWAP4 DUP4 PUSH1 0x80 SWAP9 LT PUSH2 0x12E6 JUMPI JUMPDEST POP POP POP DUP2 SHL ADD PUSH1 0x2 DUP3 ADD SSTORE PUSH2 0x1117 JUMP JUMPDEST ADD MLOAD PUSH0 NOT DUP4 DUP8 SHL PUSH1 0xF8 AND SHR NOT AND SWAP1 SSTORE PUSH0 DUP1 DUP1 PUSH2 0x12D6 JUMP JUMPDEST SWAP3 SWAP4 PUSH1 0x20 PUSH1 0x1 DUP2 SWAP3 DUP8 DUP7 ADD MLOAD DUP2 SSTORE ADD SWAP6 ADD SWAP4 ADD PUSH2 0x12B1 JUMP JUMPDEST PUSH1 0x2 DUP5 ADD PUSH0 MSTORE PUSH1 0x20 PUSH0 KECCAK256 PUSH1 0x1F DUP5 ADD PUSH1 0x5 SHR DUP2 ADD SWAP2 PUSH1 0x20 DUP6 LT PUSH2 0x1353 JUMPI JUMPDEST PUSH1 0x1F ADD PUSH1 0x5 SHR ADD SWAP1 JUMPDEST DUP2 DUP2 LT PUSH2 0x1348 JUMPI POP PUSH2 0x10D8 JUMP JUMPDEST PUSH0 DUP2 SSTORE PUSH1 0x1 ADD PUSH2 0x133B JUMP JUMPDEST SWAP1 SWAP2 POP DUP2 SWAP1 PUSH2 0x1332 JUMP JUMPDEST ADD MLOAD SWAP1 POP DUP16 DUP1 PUSH2 0x1095 JUMP JUMPDEST SWAP3 POP PUSH1 0x1 DUP5 ADD PUSH0 MSTORE PUSH1 0x20 PUSH0 KECCAK256 SWAP1 PUSH0 SWAP4 JUMPDEST PUSH1 0x1F NOT DUP5 AND DUP6 LT PUSH2 0x13BB JUMPI PUSH1 0x1 SWAP5 POP DUP4 PUSH1 0x1F NOT DUP2 AND LT PUSH2 0x13A3 JUMPI JUMPDEST POP POP POP DUP2 SHL ADD PUSH1 0x1 DUP3 ADD SSTORE PUSH2 0x10AC JUMP JUMPDEST ADD MLOAD PUSH0 NOT PUSH1 0xF8 DUP5 PUSH1 0x3 SHL AND SHR NOT AND SWAP1 SSTORE DUP16 DUP1 DUP1 PUSH2 0x1393 JUMP JUMPDEST DUP2 DUP2 ADD MLOAD DUP4 SSTORE PUSH1 0x20 SWAP5 DUP6 ADD SWAP5 PUSH1 0x1 SWAP1 SWAP4 ADD SWAP3 SWAP1 SWAP2 ADD SWAP1 PUSH2 0x1378 JUMP JUMPDEST SWAP1 SWAP2 POP PUSH1 0x1 DUP5 ADD PUSH0 MSTORE PUSH1 0x20 PUSH0 KECCAK256 PUSH1 0x1F DUP5 ADD PUSH1 0x5 SHR DUP2 ADD PUSH1 0x20 DUP6 LT PUSH2 0x141F JUMPI JUMPDEST SWAP1 DUP5 SWAP4 SWAP3 SWAP2 JUMPDEST PUSH1 0x1F DUP4 ADD PUSH1 0x5 SHR DUP3 ADD DUP2 LT PUSH2 0x1411 JUMPI POP POP PUSH2 0x107F JUMP JUMPDEST PUSH0 DUP2 SSTORE DUP6 SWAP5 POP PUSH1 0x1 ADD PUSH2 0x13FB JUMP JUMPDEST POP DUP1 PUSH2 0x13F5 JUMP JUMPDEST PUSH4 0x4E487B71 PUSH1 0xE0 SHL PUSH0 MSTORE PUSH0 PUSH1 0x4 MSTORE PUSH1 0x24 PUSH0 REVERT JUMPDEST PUSH1 0x40 MLOAD PUSH3 0x461BCD PUSH1 0xE5 SHL DUP2 MSTORE PUSH1 0x20 PUSH1 0x4 DUP3 ADD MSTORE PUSH1 0x19 PUSH1 0x24 DUP3 ADD MSTORE PUSH32 0x43616E6E6F7420666565646261636B206F776E206167656E7400000000000000 PUSH1 0x44 DUP3 ADD MSTORE PUSH1 0x64 SWAP1 REVERT JUMPDEST PUSH1 0x40 MLOAD PUSH4 0xE985E9C5 PUSH1 0xE0 SHL DUP2 MSTORE PUSH1 0x1 PUSH1 0x1 PUSH1 0xA0 SHL SUB SWAP2 DUP3 AND PUSH1 0x4 DUP3 ADD MSTORE CALLER PUSH1 0x24 DUP3 ADD MSTORE SWAP2 POP PUSH1 0x20 SWAP1 DUP3 SWAP1 PUSH1 0x44 SWAP1 DUP3 SWAP1 PUSH32 0x0 AND GAS STATICCALL SWAP1 DUP2 ISZERO PUSH2 0x1522 JUMPI PUSH0 SWAP2 PUSH2 0x14E7 JUMPI JUMPDEST POP ISZERO DUP12 PUSH2 0xF79 JUMP JUMPDEST SWAP1 POP PUSH1 0x20 DUP2 RETURNDATASIZE PUSH1 0x20 GT PUSH2 0x151A JUMPI JUMPDEST DUP2 PUSH2 0x1502 PUSH1 0x20 SWAP4 DUP4 PUSH2 0x19B7 JUMP JUMPDEST DUP2 ADD SUB SLT PUSH2 0xC9 JUMPI MLOAD DUP1 ISZERO ISZERO DUP2 SUB PUSH2 0xC9 JUMPI DUP12 PUSH2 0x14DF JUMP JUMPDEST RETURNDATASIZE SWAP2 POP PUSH2 0x14F5 JUMP JUMPDEST PUSH1 0x40 MLOAD RETURNDATASIZE PUSH0 DUP3 RETURNDATACOPY RETURNDATASIZE SWAP1 REVERT JUMPDEST PUSH1 0x40 MLOAD PUSH4 0x20604BF PUSH1 0xE2 SHL DUP2 MSTORE PUSH1 0x4 DUP1 CALLDATALOAD SWAP1 DUP3 ADD MSTORE SWAP1 SWAP2 POP PUSH1 0x20 DUP2 PUSH1 0x24 DUP2 PUSH32 0x0 PUSH1 0x1 PUSH1 0x1 PUSH1 0xA0 SHL SUB AND GAS STATICCALL SWAP1 DUP2 ISZERO PUSH2 0x1522 JUMPI PUSH0 SWAP2 PUSH2 0x1598 JUMPI JUMPDEST POP PUSH1 0x1 PUSH1 0x1 PUSH1 0xA0 SHL SUB AND CALLER EQ ISZERO SWAP1 PUSH2 0xF73 JUMP JUMPDEST PUSH2 0x15BA SWAP2 POP PUSH1 0x20 RETURNDATASIZE PUSH1 0x20 GT PUSH2 0x15C0 JUMPI JUMPDEST PUSH2 0x15B2 DUP2 DUP4 PUSH2 0x19B7 JUMP JUMPDEST DUP2 ADD SWAP1 PUSH2 0x19D8 JUMP JUMPDEST DUP13 PUSH2 0x1585 JUMP JUMPDEST POP RETURNDATASIZE PUSH2 0x15A8 JUMP JUMPDEST PUSH2 0x15E0 SWAP2 POP PUSH1 0x20 RETURNDATASIZE PUSH1 0x20 GT PUSH2 0x15C0 JUMPI PUSH2 0x15B2 DUP2 DUP4 PUSH2 0x19B7 JUMP JUMPDEST DUP12 PUSH2 0xF5E JUMP JUMPDEST PUSH1 0x40 MLOAD PUSH3 0x461BCD PUSH1 0xE5 SHL DUP2 MSTORE PUSH1 0x20 PUSH1 0x4 DUP3 ADD MSTORE PUSH1 0x15 PUSH1 0x24 DUP3 ADD MSTORE PUSH21 0x88CAC6D2DAC2D8E640DAEAE6E840C4CA40605A627 PUSH1 0x5B SHL PUSH1 0x44 DUP3 ADD MSTORE PUSH1 0x64 SWAP1 REVERT JUMPDEST CALLVALUE PUSH2 0xC9 JUMPI PUSH1 0x60 CALLDATASIZE PUSH1 0x3 NOT ADD SLT PUSH2 0xC9 JUMPI PUSH1 0xFF PUSH2 0x168F PUSH1 0x4 CALLDATALOAD PUSH2 0x1644 PUSH2 0x173C JUMP JUMPDEST PUSH2 0x164C PUSH2 0x1752 JUMP JUMPDEST SWAP2 PUSH2 0x166A PUSH1 0x1 PUSH1 0x1 PUSH1 0x40 SHL SUB DUP5 AND DUP1 ISZERO ISZERO SWAP1 DUP2 PUSH2 0x1712 JUMPI JUMPDEST POP PUSH2 0x1881 JUMP JUMPDEST PUSH0 MSTORE PUSH0 PUSH1 0x20 MSTORE PUSH1 0x40 PUSH0 KECCAK256 SWAP1 PUSH1 0x1 DUP1 PUSH1 0xA0 SHL SUB AND PUSH0 MSTORE PUSH1 0x20 MSTORE PUSH2 0xD20 PUSH1 0x40 PUSH0 KECCAK256 SWAP2 PUSH2 0x18BD JUMP JUMPDEST POP DUP1 SLOAD SWAP1 PUSH2 0x1706 PUSH1 0x2 PUSH2 0x16F8 DUP6 PUSH1 0x3 DUP6 ADD SLOAD AND SWAP4 PUSH2 0x16D2 PUSH1 0x40 MLOAD SWAP2 PUSH2 0x16C2 DUP4 PUSH2 0x16BB DUP2 PUSH1 0x1 DUP6 ADD PUSH2 0x1926 JUMP JUMPDEST SUB DUP5 PUSH2 0x19B7 JUMP JUMPDEST PUSH2 0x16BB PUSH1 0x40 MLOAD DUP1 SWAP7 DUP2 SWAP4 ADD PUSH2 0x1926 JUMP JUMPDEST PUSH1 0x40 MLOAD SWAP7 DUP7 DUP9 SWAP8 PUSH1 0xF SIGNEXTEND DUP9 MSTORE PUSH1 0x80 SHR AND PUSH1 0x20 DUP8 ADD MSTORE PUSH1 0xA0 PUSH1 0x40 DUP8 ADD MSTORE PUSH1 0xA0 DUP7 ADD SWAP1 PUSH2 0x1768 JUMP JUMPDEST SWAP1 DUP5 DUP3 SUB PUSH1 0x60 DUP7 ADD MSTORE PUSH2 0x1768 JUMP JUMPDEST SWAP1 ISZERO ISZERO PUSH1 0x80 DUP4 ADD MSTORE SUB SWAP1 RETURN JUMPDEST PUSH0 DUP5 DUP2 MSTORE PUSH1 0x20 DUP2 DUP2 MSTORE PUSH1 0x40 DUP1 DUP4 KECCAK256 PUSH1 0x1 PUSH1 0x1 PUSH1 0xA0 SHL SUB DUP10 AND DUP5 MSTORE SWAP1 SWAP2 MSTORE SWAP1 KECCAK256 SLOAD LT ISZERO SWAP1 POP DUP8 PUSH2 0x1664 JUMP JUMPDEST PUSH1 0x24 CALLDATALOAD SWAP1 PUSH1 0x1 PUSH1 0x1 PUSH1 0xA0 SHL SUB DUP3 AND DUP3 SUB PUSH2 0xC9 JUMPI JUMP JUMPDEST PUSH1 0x44 CALLDATALOAD SWAP1 PUSH1 0x1 PUSH1 0x1 PUSH1 0x40 SHL SUB DUP3 AND DUP3 SUB PUSH2 0xC9 JUMPI JUMP JUMPDEST DUP1 MLOAD DUP1 DUP4 MSTORE PUSH1 0x20 SWAP3 SWAP2 DUP2 SWAP1 DUP5 ADD DUP5 DUP5 ADD MCOPY PUSH0 DUP3 DUP3 ADD DUP5 ADD MSTORE PUSH1 0x1F ADD PUSH1 0x1F NOT AND ADD ADD SWAP1 JUMP JUMPDEST SWAP2 DUP2 PUSH1 0x1F DUP5 ADD SLT ISZERO PUSH2 0xC9 JUMPI DUP3 CALLDATALOAD SWAP2 PUSH1 0x1 PUSH1 0x1 PUSH1 0x40 SHL SUB DUP4 GT PUSH2 0xC9 JUMPI PUSH1 0x20 DUP4 DUP2 DUP7 ADD SWAP6 ADD ADD GT PUSH2 0xC9 JUMPI JUMP JUMPDEST SWAP1 DUP2 MLOAD DUP1 DUP3 MSTORE PUSH1 0x20 DUP1 DUP1 SWAP4 ADD SWAP4 ADD SWAP2 PUSH0 JUMPDEST DUP3 DUP2 LT PUSH2 0x17D8 JUMPI POP POP POP POP SWAP1 JUMP JUMPDEST DUP4 MLOAD PUSH1 0x1 PUSH1 0x1 PUSH1 0xA0 SHL SUB AND DUP6 MSTORE SWAP4 DUP2 ADD SWAP4 SWAP3 DUP2 ADD SWAP3 PUSH1 0x1 ADD PUSH2 0x17CA JUMP JUMPDEST SWAP2 DUP2 PUSH1 0x1F DUP5 ADD SLT ISZERO PUSH2 0xC9 JUMPI DUP3 CALLDATALOAD SWAP2 PUSH1 0x1 PUSH1 0x1 PUSH1 0x40 SHL SUB DUP4 GT PUSH2 0xC9 JUMPI PUSH1 0x20 DUP1 DUP6 ADD SWAP5 DUP5 PUSH1 0x5 SHL ADD ADD GT PUSH2 0xC9 JUMPI JUMP JUMPDEST SWAP1 DUP1 DUP3 MLOAD SWAP1 DUP2 DUP2 MSTORE PUSH1 0x20 DUP1 SWAP2 ADD SWAP3 PUSH1 0x20 DUP1 DUP5 PUSH1 0x5 SHL DUP4 ADD ADD SWAP6 ADD SWAP4 PUSH0 SWAP2 JUMPDEST DUP5 DUP4 LT PUSH2 0x1853 JUMPI POP POP POP POP POP POP SWAP1 JUMP JUMPDEST SWAP1 SWAP2 SWAP3 SWAP4 SWAP5 SWAP6 DUP5 DUP1 PUSH2 0x1871 PUSH1 0x1 SWAP4 PUSH1 0x1F NOT DUP7 DUP3 SUB ADD DUP8 MSTORE DUP11 MLOAD PUSH2 0x1768 JUMP JUMPDEST SWAP9 ADD SWAP4 ADD SWAP4 ADD SWAP2 SWAP5 SWAP4 SWAP3 SWAP1 PUSH2 0x1843 JUMP JUMPDEST ISZERO PUSH2 0x1888 JUMPI JUMP JUMPDEST PUSH1 0x40 MLOAD PUSH3 0x461BCD PUSH1 0xE5 SHL DUP2 MSTORE PUSH1 0x20 PUSH1 0x4 DUP3 ADD MSTORE PUSH1 0xD PUSH1 0x24 DUP3 ADD MSTORE PUSH13 0x92DCECC2D8D2C840D2DCC8CAF PUSH1 0x9B SHL PUSH1 0x44 DUP3 ADD MSTORE PUSH1 0x64 SWAP1 REVERT JUMPDEST PUSH1 0x1 PUSH1 0x1 PUSH1 0x40 SHL SUB SWAP1 DUP2 AND PUSH0 NOT ADD SWAP2 SWAP1 DUP3 GT PUSH2 0x5DF JUMPI JUMP JUMPDEST DUP1 SLOAD DUP3 LT ISZERO PUSH2 0x126A JUMPI PUSH0 MSTORE PUSH1 0x20 PUSH0 KECCAK256 SWAP1 PUSH1 0x2 SHL ADD SWAP1 PUSH0 SWAP1 JUMP JUMPDEST SWAP1 PUSH1 0x1 DUP3 DUP2 SHR SWAP3 AND DUP1 ISZERO PUSH2 0x191C JUMPI JUMPDEST PUSH1 0x20 DUP4 LT EQ PUSH2 0x1908 JUMPI JUMP JUMPDEST PUSH4 0x4E487B71 PUSH1 0xE0 SHL PUSH0 MSTORE PUSH1 0x22 PUSH1 0x4 MSTORE PUSH1 0x24 PUSH0 REVERT JUMPDEST SWAP2 PUSH1 0x7F AND SWAP2 PUSH2 0x18FD JUMP JUMPDEST DUP1 SLOAD PUSH0 SWAP4 SWAP3 PUSH2 0x1934 DUP3 PUSH2 0x18EE JUMP JUMPDEST SWAP2 DUP3 DUP3 MSTORE PUSH1 0x20 SWAP4 PUSH1 0x1 SWAP2 PUSH1 0x1 DUP2 AND SWAP1 DUP2 PUSH0 EQ PUSH2 0x1998 JUMPI POP PUSH1 0x1 EQ PUSH2 0x195A JUMPI JUMPDEST POP POP POP POP POP JUMP JUMPDEST SWAP1 SWAP4 SWAP5 SWAP6 POP PUSH0 SWAP3 SWAP2 SWAP3 MSTORE DUP4 PUSH0 KECCAK256 SWAP3 DUP5 PUSH0 SWAP5 JUMPDEST DUP4 DUP7 LT PUSH2 0x1984 JUMPI POP POP POP POP ADD ADD SWAP1 PUSH0 DUP1 DUP1 DUP1 DUP1 PUSH2 0x1953 JUMP JUMPDEST DUP1 SLOAD DUP6 DUP8 ADD DUP4 ADD MSTORE SWAP5 ADD SWAP4 DUP6 SWAP1 DUP3 ADD PUSH2 0x196C JUMP JUMPDEST PUSH1 0xFF NOT AND DUP7 DUP6 ADD MSTORE POP POP POP SWAP1 ISZERO ISZERO PUSH1 0x5 SHL ADD ADD SWAP2 POP PUSH0 DUP1 DUP1 DUP1 DUP1 PUSH2 0x1953 JUMP JUMPDEST SWAP1 PUSH1 0x1F DUP1 NOT SWAP2 ADD AND DUP2 ADD SWAP1 DUP2 LT PUSH1 0x1 PUSH1 0x1 PUSH1 0x40 SHL SUB DUP3 GT OR PUSH2 0x127E JUMPI PUSH1 0x40 MSTORE JUMP JUMPDEST SWAP1 DUP2 PUSH1 0x20 SWAP2 SUB SLT PUSH2 0xC9 JUMPI MLOAD PUSH1 0x1 PUSH1 0x1 PUSH1 0xA0 SHL SUB DUP2 AND DUP2 SUB PUSH2 0xC9 JUMPI SWAP1 JUMP JUMPDEST SWAP3 SWAP2 SWAP3 PUSH1 0x1 PUSH1 0x1 PUSH1 0x40 SHL SUB DUP3 GT PUSH2 0x127E JUMPI PUSH1 0x40 MLOAD SWAP2 PUSH2 0x1A20 PUSH1 0x1F DUP3 ADD PUSH1 0x1F NOT AND PUSH1 0x20 ADD DUP5 PUSH2 0x19B7 JUMP JUMPDEST DUP3 SWAP5 DUP2 DUP5 MSTORE DUP2 DUP4 ADD GT PUSH2 0xC9 JUMPI DUP3 DUP2 PUSH1 0x20 SWAP4 DUP5 PUSH0 SWAP7 ADD CALLDATACOPY ADD ADD MSTORE JUMP JUMPDEST SWAP1 DUP1 PUSH1 0x20 SWAP4 SWAP3 DUP2 DUP5 MSTORE DUP5 DUP5 ADD CALLDATACOPY PUSH0 DUP3 DUP3 ADD DUP5 ADD MSTORE PUSH1 0x1F ADD PUSH1 0x1F NOT AND ADD ADD SWAP1 JUMP JUMPDEST SWAP2 SWAP1 DUP2 LT ISZERO PUSH2 0x126A JUMPI PUSH1 0x5 SHL ADD SWAP1 JUMP JUMPDEST CALLDATALOAD PUSH1 0x1 PUSH1 0x1 PUSH1 0xA0 SHL SUB DUP2 AND DUP2 SUB PUSH2 0xC9 JUMPI SWAP1 JUMP JUMPDEST PUSH0 NOT DUP2 EQ PUSH2 0x5DF JUMPI PUSH1 0x1 ADD SWAP1 JUMP JUMPDEST PUSH1 0x1 PUSH1 0x1 PUSH1 0x40 SHL SUB DUP2 GT PUSH2 0x127E JUMPI PUSH1 0x5 SHL PUSH1 0x20 ADD SWAP1 JUMP JUMPDEST SWAP1 PUSH2 0x1AAF DUP3 PUSH2 0x1A8E JUMP JUMPDEST PUSH2 0x1ABC PUSH1 0x40 MLOAD SWAP2 DUP3 PUSH2 0x19B7 JUMP JUMPDEST DUP3 DUP2 MSTORE DUP1 SWAP3 PUSH2 0x1ACD PUSH1 0x1F NOT SWAP2 PUSH2 0x1A8E JUMP JUMPDEST ADD SWAP1 PUSH0 JUMPDEST DUP3 DUP2 LT PUSH2 0x1ADD JUMPI POP POP POP JUMP JUMPDEST DUP1 PUSH1 0x60 PUSH1 0x20 DUP1 SWAP4 DUP6 ADD ADD MSTORE ADD PUSH2 0x1AD1 JUMP JUMPDEST DUP1 MLOAD DUP3 LT ISZERO PUSH2 0x126A JUMPI PUSH1 0x20 SWAP2 PUSH1 0x5 SHL ADD ADD SWAP1 JUMP INVALID LOG2 PUSH5 0x6970667358 0x22 SLT KECCAK256 PUSH30 0xA7B6EFA492FEED4E0B1512A26E99CE7FA2C252A8DE7E05A65E62CD1CBCCE 0xE PUSH5 0x736F6C6343 STOP ADDMOD NOT STOP CALLER "},"methodIdentifiers":{"appendResponse(uint256,address,uint64,string,bytes32)":"c2349ab2","getClients(uint256)":"42dd519c","getIdentityRegistry()":"bc4d861b","getLastIndex(uint256,address)":"f2d81759","getSummary(uint256,address[],string,string)":"81bbba58","giveFeedback(uint256,int128,uint8,string,string,string,string,bytes32)":"3c036a7e","readAllFeedback(uint256,address[],string,string,bool)":"d9d84224","readFeedback(uint256,address,uint64)":"232b0810","revokeFeedback(uint256,uint64)":"4ab3ca99"}}}}}