{"contracts/AgentRegistry.sol":{"AgentRegistry":{"abi":[{"inputs":[],"stateMutability":"nonpayable","type":"constructor"},{"inputs":[],"name":"ECDSAInvalidSignature","type":"error"},{"inputs":[{"internalType":"uint256","name":"length","type":"uint256"}],"name":"ECDSAInvalidSignatureLength","type":"error"},{"inputs":[{"internalType":"bytes32","name":"s","type":"bytes32"}],"name":"ECDSAInvalidSignatureS","type":"error"},{"inputs":[{"internalType":"address","name":"sender","type":"address"},{"internalType":"uint256","name":"tokenId","type":"uint256"},{"internalType":"address","name":"owner","type":"address"}],"name":"ERC721IncorrectOwner","type":"error"},{"inputs":[{"internalType":"address","name":"operator","type":"address"},{"internalType":"uint256","name":"tokenId","type":"uint256"}],"name":"ERC721InsufficientApproval","type":"error"},{"inputs":[{"internalType":"address","name":"approver","type":"address"}],"name":"ERC721InvalidApprover","type":"error"},{"inputs":[{"internalType":"address","name":"operator","type":"address"}],"name":"ERC721InvalidOperator","type":"error"},{"inputs":[{"internalType":"address","name":"owner","type":"address"}],"name":"ERC721InvalidOwner","type":"error"},{"inputs":[{"internalType":"address","name":"receiver","type":"address"}],"name":"ERC721InvalidReceiver","type":"error"},{"inputs":[{"internalType":"address","name":"sender","type":"address"}],"name":"ERC721InvalidSender","type":"error"},{"inputs":[{"internalType":"uint256","name":"tokenId","type":"uint256"}],"name":"ERC721NonexistentToken","type":"error"},{"inputs":[],"name":"InvalidShortString","type":"error"},{"inputs":[{"internalType":"string","name":"str","type":"string"}],"name":"StringTooLong","type":"error"},{"anonymous":false,"inputs":[{"indexed":true,"internalType":"address","name":"owner","type":"address"},{"indexed":true,"internalType":"address","name":"approved","type":"address"},{"indexed":true,"internalType":"uint256","name":"tokenId","type":"uint256"}],"name":"Approval","type":"event"},{"anonymous":false,"inputs":[{"indexed":true,"internalType":"address","name":"owner","type":"address"},{"indexed":true,"internalType":"address","name":"operator","type":"address"},{"indexed":false,"internalType":"bool","name":"approved","type":"bool"}],"name":"ApprovalForAll","type":"event"},{"anonymous":false,"inputs":[{"indexed":false,"internalType":"uint256","name":"_fromTokenId","type":"uint256"},{"indexed":false,"internalType":"uint256","name":"_toTokenId","type":"uint256"}],"name":"BatchMetadataUpdate","type":"event"},{"anonymous":false,"inputs":[],"name":"EIP712DomainChanged","type":"event"},{"anonymous":false,"inputs":[{"indexed":true,"internalType":"uint256","name":"agentId","type":"uint256"},{"indexed":true,"internalType":"string","name":"indexedMetadataKey","type":"string"},{"indexed":false,"internalType":"string","name":"metadataKey","type":"string"},{"indexed":false,"internalType":"bytes","name":"metadataValue","type":"bytes"}],"name":"MetadataSet","type":"event"},{"anonymous":false,"inputs":[{"indexed":false,"internalType":"uint256","name":"_tokenId","type":"uint256"}],"name":"MetadataUpdate","type":"event"},{"anonymous":false,"inputs":[{"indexed":true,"internalType":"uint256","name":"agentId","type":"uint256"},{"indexed":false,"internalType":"string","name":"agentURI","type":"string"},{"indexed":true,"internalType":"address","name":"owner","type":"address"}],"name":"Registered","type":"event"},{"anonymous":false,"inputs":[{"indexed":true,"internalType":"address","name":"from","type":"address"},{"indexed":true,"internalType":"address","name":"to","type":"address"},{"indexed":true,"internalType":"uint256","name":"tokenId","type":"uint256"}],"name":"Transfer","type":"event"},{"anonymous":false,"inputs":[{"indexed":true,"internalType":"uint256","name":"agentId","type":"uint256"},{"indexed":false,"internalType":"string","name":"newURI","type":"string"},{"indexed":true,"internalType":"address","name":"updatedBy","type":"address"}],"name":"URIUpdated","type":"event"},{"inputs":[{"internalType":"address","name":"to","type":"address"},{"internalType":"uint256","name":"tokenId","type":"uint256"}],"name":"approve","outputs":[],"stateMutability":"nonpayable","type":"function"},{"inputs":[{"internalType":"address","name":"owner","type":"address"}],"name":"balanceOf","outputs":[{"internalType":"uint256","name":"","type":"uint256"}],"stateMutability":"view","type":"function"},{"inputs":[],"name":"eip712Domain","outputs":[{"internalType":"bytes1","name":"fields","type":"bytes1"},{"internalType":"string","name":"name","type":"string"},{"internalType":"string","name":"version","type":"string"},{"internalType":"uint256","name":"chainId","type":"uint256"},{"internalType":"address","name":"verifyingContract","type":"address"},{"internalType":"bytes32","name":"salt","type":"bytes32"},{"internalType":"uint256[]","name":"extensions","type":"uint256[]"}],"stateMutability":"view","type":"function"},{"inputs":[{"internalType":"uint256","name":"agentId","type":"uint256"}],"name":"getAgentWallet","outputs":[{"internalType":"address","name":"","type":"address"}],"stateMutability":"view","type":"function"},{"inputs":[{"internalType":"uint256","name":"tokenId","type":"uint256"}],"name":"getApproved","outputs":[{"internalType":"address","name":"","type":"address"}],"stateMutability":"view","type":"function"},{"inputs":[{"internalType":"uint256","name":"agentId","type":"uint256"},{"internalType":"string","name":"metadataKey","type":"string"}],"name":"getMetadata","outputs":[{"internalType":"bytes","name":"","type":"bytes"}],"stateMutability":"view","type":"function"},{"inputs":[{"internalType":"address","name":"owner","type":"address"},{"internalType":"address","name":"operator","type":"address"}],"name":"isApprovedForAll","outputs":[{"internalType":"bool","name":"","type":"bool"}],"stateMutability":"view","type":"function"},{"inputs":[],"name":"name","outputs":[{"internalType":"string","name":"","type":"string"}],"stateMutability":"view","type":"function"},{"inputs":[{"internalType":"uint256","name":"tokenId","type":"uint256"}],"name":"ownerOf","outputs":[{"internalType":"address","name":"","type":"address"}],"stateMutability":"view","type":"function"},{"inputs":[],"name":"register","outputs":[{"internalType":"uint256","name":"agentId","type":"uint256"}],"stateMutability":"nonpayable","type":"function"},{"inputs":[{"internalType":"string","name":"agentURI","type":"string"},{"components":[{"internalType":"string","name":"key","type":"string"},{"internalType":"bytes","name":"value","type":"bytes"}],"internalType":"struct AgentRegistry.MetadataEntry[]","name":"metadata","type":"tuple[]"}],"name":"register","outputs":[{"internalType":"uint256","name":"agentId","type":"uint256"}],"stateMutability":"nonpayable","type":"function"},{"inputs":[{"internalType":"string","name":"agentURI","type":"string"}],"name":"register","outputs":[{"internalType":"uint256","name":"agentId","type":"uint256"}],"stateMutability":"nonpayable","type":"function"},{"inputs":[{"internalType":"address","name":"from","type":"address"},{"internalType":"address","name":"to","type":"address"},{"internalType":"uint256","name":"tokenId","type":"uint256"}],"name":"safeTransferFrom","outputs":[],"stateMutability":"nonpayable","type":"function"},{"inputs":[{"internalType":"address","name":"from","type":"address"},{"internalType":"address","name":"to","type":"address"},{"internalType":"uint256","name":"tokenId","type":"uint256"},{"internalType":"bytes","name":"data","type":"bytes"}],"name":"safeTransferFrom","outputs":[],"stateMutability":"nonpayable","type":"function"},{"inputs":[{"internalType":"uint256","name":"agentId","type":"uint256"},{"internalType":"string","name":"newURI","type":"string"}],"name":"setAgentURI","outputs":[],"stateMutability":"nonpayable","type":"function"},{"inputs":[{"internalType":"uint256","name":"agentId","type":"uint256"},{"internalType":"address","name":"newWallet","type":"address"},{"internalType":"uint256","name":"deadline","type":"uint256"},{"internalType":"bytes","name":"signature","type":"bytes"}],"name":"setAgentWallet","outputs":[],"stateMutability":"nonpayable","type":"function"},{"inputs":[{"internalType":"address","name":"operator","type":"address"},{"internalType":"bool","name":"approved","type":"bool"}],"name":"setApprovalForAll","outputs":[],"stateMutability":"nonpayable","type":"function"},{"inputs":[{"internalType":"uint256","name":"agentId","type":"uint256"},{"internalType":"string","name":"metadataKey","type":"string"},{"internalType":"bytes","name":"metadataValue","type":"bytes"}],"name":"setMetadata","outputs":[],"stateMutability":"nonpayable","type":"function"},{"inputs":[{"internalType":"bytes4","name":"interfaceId","type":"bytes4"}],"name":"supportsInterface","outputs":[{"internalType":"bool","name":"","type":"bool"}],"stateMutability":"view","type":"function"},{"inputs":[],"name":"symbol","outputs":[{"internalType":"string","name":"","type":"string"}],"stateMutability":"view","type":"function"},{"inputs":[{"internalType":"uint256","name":"tokenId","type":"uint256"}],"name":"tokenURI","outputs":[{"internalType":"string","name":"","type":"string"}],"stateMutability":"view","type":"function"},{"inputs":[{"internalType":"address","name":"from","type":"address"},{"internalType":"address","name":"to","type":"address"},{"internalType":"uint256","name":"tokenId","type":"uint256"}],"name":"transferFrom","outputs":[],"stateMutability":"nonpayable","type":"function"},{"inputs":[{"internalType":"uint256","name":"agentId","type":"uint256"}],"name":"unsetAgentWallet","outputs":[],"stateMutability":"nonpayable","type":"function"}],"evm":{"bytecode":{"linkReferences":{},"object":"610160604090808252346103bc57610016816103c0565b600d81526020908181016c4167656e74526567697374727960981b92838252845190610041826103c0565b600180835281830190603160f81b825287519661005d886103c0565b600d885283880152875196610071886103c0565b60058852641051d1539560da1b8489015280516001600160401b03989089811161020e575f54928484811c941680156103b2575b878510146102dc578190601f94858111610364575b508790858311600114610305575f926102fa575b50505f19600383901b1c191690841b175f555b80519189831161020e578354918483811c931680156102f0575b878410146102dc57828285941161028c575b508691831160011461022d575f92610222575b50505f19600383901b1c191690821b1790555b61013c856103db565b9361012094855261014c84610563565b95610140968752519020928360e05251902095610100968088524660a0528151928301937f8b73c3c69bb8fe3d512ecc4cf759cc79239f7b179b0ffacaa9a75d522b39400f85528284015260608301524660808301523060a083015260a0825260c08201958287109087111761020e578590525190206080523060c052611fc293846106a0853960805184611b76015260a05184611c41015260c05184611b40015260e05184611bc501525183611beb015251826105730152518161059d0152f35b634e487b7160e01b5f52604160045260245ffd5b015190505f80610120565b90849350601f19831691845f52875f20925f5b89828210610276575050841161025e575b505050811b019055610133565b01515f1960f88460031b161c191690555f8080610251565b8385015186558897909501949384019301610240565b90919250845f52865f208380860160051c8201928987106102d3575b91869588929594930160051c01915b8281106102c557505061010d565b5f81558695508791016102b7565b925081926102a8565b634e487b7160e01b5f52602260045260245ffd5b92607f16926100fb565b015190505f806100ce565b90869350601f198316915f8052895f20925f5b8b82821061034e5750508411610336575b505050811b015f556100e1565b01515f1960f88460031b161c191690555f8080610329565b8385015186558a97909501949384019301610318565b9091505f8052875f208580850160051c8201928a86106103a9575b918891869594930160051c01915b82811061039b5750506100ba565b5f815585945088910161038d565b9250819261037f565b93607f16936100a5565b5f80fd5b604081019081106001600160401b0382111761020e57604052565b8051602090818110156104515750601f825111610413578082519201519080831061040557501790565b825f19910360031b1b161790565b60448260405192839163305a27a960e01b83528160048401528051918291826024860152018484015e5f828201840152601f01601f19168101030190fd5b906001600160401b03821161020e57600754926001938481811c91168015610559575b838210146102dc57601f8111610525575b5081601f84116001146104c157509282939183925f946104b6575b50501b915f199060031b1c19161760075560ff90565b015192505f806104a0565b919083601f19811660075f52845f20945f905b8883831061050b57505050106104f3575b505050811b0160075560ff90565b01515f1960f88460031b161c191690555f80806104e5565b8587015188559096019594850194879350908101906104d4565b60075f5284601f845f20920160051c820191601f860160051c015b82811061054e575050610485565b5f8155018590610540565b90607f1690610474565b80516020908181101561058d5750601f825111610413578082519201519080831061040557501790565b906001600160401b03821161020e57600854926001938481811c91168015610695575b838210146102dc57601f8111610661575b5081601f84116001146105fd57509282939183925f946105f2575b50501b915f199060031b1c19161760085560ff90565b015192505f806105dc565b919083601f19811660085f52845f20945f905b88838310610647575050501061062f575b505050811b0160085560ff90565b01515f1960f88460031b161c191690555f8080610621565b858701518855909601959485019487935090810190610610565b60085f5284601f845f20920160051c820191601f860160051c015b82811061068a5750506105c1565b5f815501859061067c565b90607f16906105b056fe60406080815260049081361015610014575f80fd5b5f3560e01c806233950914610d6857806301ffc9a714610cdf57806306fdde0314610c32578063081812fc14610c14578063095ea7b314610b395780630af28bd314610a475780631aa3a00814610a0f57806323b872dd146109f85780632d1ef5ae1461084e5780633fddcf19146107bb57806342842e0e14610793578063466648da146106d25780636352211e146106a357806370a082311461064f57806384b0196e146105595780638ea422861461044357806395d89b4114610360578063a22cb465146102a9578063b88d4fde14610259578063c87b56dd14610227578063cb4799f2146101b9578063e985e9c51461016b5763f2c298be14610118575f80fd5b34610167576020366003190112610167578135916001600160401b0383116101675761014c61016091602094369101610e5c565b82519061015882610e05565b5f82526113af565b9051908152f35b5f80fd5b5034610167578060031936011261016757602090610187610daa565b61018f610dc0565b9060018060a01b038091165f5260058452825f2091165f52825260ff815f20541690519015158152f35b50346101675761020a610223916102116020806101d536610ea2565b906101df8161185b565b505f52600a8252845f208551938285935191829101845e820190815203019020825193848092610f41565b0383610e20565b51918291602083526020830190610d86565b0390f35b50346101675760203660031901126101675761024661022392356117a9565b9051918291602083526020830190610d86565b823461016757608036600319011261016757610273610daa565b61027b610dc0565b906064356001600160401b038111610167576102a79361029d91369101610e5c565b916044359161165b565b005b50346101675780600319360112610167576102c2610daa565b906024359182151580930361016757331561034a576001600160a01b03169283156103355750335f526005602052805f20835f52602052805f2060ff1981541660ff8416179055519081527f17307eab39ab6107e8899845ad3d59bd9653f200f220920489ca2b5937696c3160203392a3005b836024925191630b61174360e31b8352820152fd5b815163a9fbf51f60e01b81525f81860152602490fd5b5034610167575f366003190112610167578051905f90826001926001549361038785610f09565b90818452602095866001821691825f146104215750506001146103c6575b505061022392916103b7910385610e20565b51928284938452830190610d86565b9085925060015f527fb10e2d527612073b26eecdfd717e6a320cf44b4afac2b0732d9fcbe2b7fa0cf6915f925b82841061040957505050820101816103b76103a5565b8054848a0186015288955087949093019281016103f3565b60ff19168682015292151560051b850190920192508391506103b790506103a5565b5090346101675781600319360112610167576001600160401b03918135838111610167576104749036908401610e5c565b91602492833593858511610167573660238601121561016757848301359286841161054857508260051b6020968551946104b089840187610e20565b855282888601928801019636881161016757838101925b8884106104da57898861016089896113af565b8335838111610167578201886023198236030112610167578851916104fe83610dd6565b868201358581116101675761051890883691850101610e5c565b8352604482013592858411610167576105398d949389869536920101610e5c565b838201528152019301926104c7565b604190634e487b7160e01b5f52525ffd5b5034610167575f366003190112610167576105f3906105977f0000000000000000000000000000000000000000000000000000000000000000611d24565b906105c17f0000000000000000000000000000000000000000000000000000000000000000611e22565b6106008251926105d084610e05565b5f84526020928151968796600f60f81b885260e0602089015260e0880190610d86565b9186830390870152610d86565b4660608501523060808501525f60a085015283810360c0850152602080845192838152019301915f5b82811061063857505050500390f35b835185528695509381019392810192600101610629565b5034610167576020366003190112610167576001600160a01b03610671610daa565b16801561068d57602092505f5260038252805f20549051908152f35b81516322718ad960e21b81525f81850152602490fd5b5034610167576020366003190112610167576106c16020923561185b565b90516001600160a01b039091168152f35b509034610167576060366003190112610167576001600160401b038135602435828111610167576107069036908501610e5c565b916044359081116101675761071e9036908501610e5c565b9261073b61072b8361185b565b6001600160a01b03163314611296565b8251602084012061074a6112ce565b602081519101201461076157506102a793506119fa565b606490602086519162461bcd60e51b8352820152600c60248201526b5265736572766564206b657960a01b6044820152fd5b5034610167576102a7906107a636610ed4565b919251926107b384610e05565b5f845261165b565b5034610167576020366003190112610167575f80516020611f6d8339815191527f2ac6109326e720d1435c0db66f7e35eda7839f52b6f1f5520a60788e132b4e3992359161080b61072b8461185b565b825f52600a602052805f2061083b602b83516a1859d95b9d15d85b1b195d60aa1b93848252600b8201522061130b565b815152518061084981611354565b0390a3005b50903461016757608036600319011261016757803561086b610dc0565b60443592906001600160401b0390606435828111610167576108909036908501610e5c565b9061089a8561185b565b6001600160a01b0393906108b19085163314611296565b8642116109c1578751908460208301937f5a2b87f3673ca6856d85d54cb1a9eb690f53c4d6b0954db34c84fe6c19c80d948552888b850152169788606084015260808301526080825260a0820190828210908211176109ae5792604261094a93610941938a97968c52519020610925611b3d565b908b519161190160f01b83526002830152602282015220611c67565b90929192611ca1565b160361097757506102a792519160208301526020825261096982610dd6565b6109716112ce565b906119fa565b606490602085519162461bcd60e51b83528201526011602482015270496e76616c6964207369676e617475726560781b6044820152fd5b604186634e487b7160e01b5f525260245ffd5b875162461bcd60e51b8152602081870152601160248201527014da59db985d1d5c9948195e1c1a5c9959607a1b6044820152606490fd5b34610167576102a7610a0936610ed4565b91611078565b5034610167575f366003190112610167578061016060209251610a3181610e05565b5f81528251610a3f81610e05565b5f81526113af565b50903461016757610a5736610ea2565b929091610a638361185b565b6001600160a01b03908116338114918215610b22575b508115610b03575b5015610ac957507f3a2c7fffc2cba7582c690e3b82c453ea02a308326a98a3ad7576c606336409fb90610ab484846118d8565b51602081528061084933956020830190610d86565b6020606492519162461bcd60e51b835282015260156024820152742737ba1037bbb732b91037b91037b832b930ba37b960591b6044820152fd5b90505f526005602052815f20335f5260205260ff825f2054165f610a81565b9091503390610b3086611054565b1614905f610a79565b5034610167578060031936011261016757610b52610daa565b91602435610b5f8161185b565b33151580610c01575b80610bda575b610bc4576001600160a01b039485169482918691167f8c5be1e5ebec7d5bd14f71427d1e84f3dd0314c0f7b2291e5b200ac8c7c3b9255f80a45f526020525f20906001600160601b0360a01b8254161790555f80f35b835163a9fbf51f60e01b81523381850152602490fd5b5060018060a01b0381165f526005602052835f20335f5260205260ff845f20541615610b6e565b506001600160a01b038116331415610b68565b5034610167576020366003190112610167576106c160209235611054565b5034610167575f366003190112610167578051905f90825f5492610c5584610f09565b808352602094600190866001821691825f14610421575050600114610c8657505061022392916103b7910385610e20565b5f80805286935091907f290decd9548b62a8d60345a988386fc84ba6bc95484008f6362f93160ef3e5635b828410610cc757505050820101816103b76103a5565b8054848a018601528895508794909301928101610cb1565b509034610167576020366003190112610167573563ffffffff60e01b811680910361016757602091632483248360e11b8214918215610d22575b50519015158152f35b9091506380ac58cd60e01b8114908115610d57575b8115610d46575b50905f610d19565b6301ffc9a760e01b1490505f610d3e565b635b5e139f60e01b81149150610d37565b5034610167576020366003190112610167576106c160209235610fd2565b805180835260209291819084018484015e5f828201840152601f01601f1916010190565b600435906001600160a01b038216820361016757565b602435906001600160a01b038216820361016757565b604081019081106001600160401b03821117610df157604052565b634e487b7160e01b5f52604160045260245ffd5b602081019081106001600160401b03821117610df157604052565b90601f801991011681019081106001600160401b03821117610df157604052565b6001600160401b038111610df157601f01601f191660200190565b81601f8201121561016757803590610e7382610e41565b92610e816040519485610e20565b8284526020838301011161016757815f926020809301838601378301015290565b9060406003198301126101675760043591602435906001600160401b03821161016757610ed191600401610e5c565b90565b6060906003190112610167576001600160a01b0390600435828116810361016757916024359081168103610167579060443590565b90600182811c92168015610f37575b6020831014610f2357565b634e487b7160e01b5f52602260045260245ffd5b91607f1691610f18565b80545f9392610f4f82610f09565b918282526020936001916001811690815f14610fb35750600114610f75575b5050505050565b90939495505f92919252835f2092845f945b838610610f9f57505050500101905f80808080610f6e565b805485870183015294019385908201610f87565b60ff19168685015250505090151560051b010191505f80808080610f6e565b610fdb8161185b565b905f52600a60205261101661101d602b60405f20604051906a1859d95b9d15d85b1b195d60aa1b8252600b8201522060405192838092610f41565b0382610e20565b80516020811461102c57505090565b819250906020918101031261016757602001516001600160a01b038116908190036101675790565b61105d8161185b565b505f908152600460205260409020546001600160a01b031690565b6001600160a01b03918216929091831561127e57815f526020926002845260409482865f20541694331515806111f3575b50851515806111c2575b825f5260038252875f2060018154019055855f5260028252875f20836001600160601b0360a01b82541617905585885193887fddf252ad1be2c89b69c2b068fc378daa952ba7f163c4a11628f55a4df523b3ef5f80a4806111ba575b611146575b505016928383036111255750505050565b6064945051926364283d7b60e01b8452600484015260248301526044820152fd5b600a9052611171602b875f20926a1859d95b9d15d85b1b195d60aa1b93848252600b8201522061130b565b8551527f2ac6109326e720d1435c0db66f7e35eda7839f52b6f1f5520a60788e132b4e39835f80516020611f6d8339815191528751806111b081611354565b0390a35f80611114565b50600161110f565b5f86815260046020526040812080546001600160a01b03191690558781526003835288902080545f190190556110b3565b8061123d575b15611204575f6110a9565b868587611221576024915190637e27328960e01b82526004820152fd5b604491519063177e802f60e01b82523360048301526024820152fd5b503386148015611262575b806111f95750845f52600481523384885f205416146111f9565b50855f5260058152865f20335f52815260ff875f205416611248565b604051633250574960e11b81525f6004820152602490fd5b1561129d57565b60405162461bcd60e51b81526020600482015260096024820152682737ba1037bbb732b960b91b6044820152606490fd5b604051906112db82610dd6565b600b82526a1859d95b9d15d85b1b195d60aa1b6020830152565b818110611300575050565b5f81556001016112f5565b6113158154610f09565b908161131f575050565b81601f5f93116001146113315750555b565b908083918252611350601f60208420940160051c8401600185016112f5565b5555565b60a09060408152600b60408201526a1859d95b9d15d85b1b195d60aa1b6060820152608060208201525f60808201520190565b805182101561139b5760209160051b010190565b634e487b7160e01b5f52603260045260245ffd5b6009545f1993929184821461164757600194600183016009558295331561127e57835f526020946002865260409260018060a01b03845f2054168015159182611616575b50335f5260038852845f2060018154019055865f5260028852845f20336001600160601b0360a01b8254161790558685519133907fddf252ad1be2c89b69c2b068fc378daa952ba7f163c4a11628f55a4df523b3ef5f80a4818061160e575b61159b575b506115845761146684866118d8565b61148a8351338882015287815261147c81610dd6565b6114846112ce565b876119fa565b5f825b6114d1575b5050507fca52e62c367d81bb2e328eb795f7c7ba24afb478408a26c0e201d155c449bc4a916114cc91519182918683523396830190610d86565b0390a3565b815181101561157f576114e48183611387565b51518781519101206114f46112ce565b8881519101201461152f57908282611527611510839585611387565b51518a61151d8487611387565b510151908a6119fa565b01909161148d565b835162461bcd60e51b815260048101889052602360248201527f43616e6e6f7420736574206167656e7457616c6c657420766961206d6574616460448201526261746160e81b6064820152608490fd5b611492565b82516339e3563760e11b81525f6004820152602490fd5b600a88526115c6602b865f20926a1859d95b9d15d85b1b195d60aa1b93848252600b8201522061130b565b8451527f2ac6109326e720d1435c0db66f7e35eda7839f52b6f1f5520a60788e132b4e39865f80516020611f6d83398151915286518061160581611354565b0390a35f611457565b506001611452565b5f88815260046020526040902080546001600160a01b0319169055815f5260038952855f209081540190555f6113f3565b634e487b7160e01b5f52601160045260245ffd5b9192611668848385611078565b813b611675575b50505050565b604051630a85bd0160e11b8082523360048301526001600160a01b039485166024830152604482019590955260806064820152602095939092169391908590829081906116c6906084830190610d86565b03815f885af15f9181611769575b50611733575050503d5f1461172b573d916116ee83610e41565b926116fc6040519485610e20565b83523d5f8285013e5b8251928361172657604051633250574960e11b815260048101849052602490fd5b019050fd5b606091611705565b9193506001600160e01b03199091160361175157505f80808061166f565b60249060405190633250574960e11b82526004820152fd5b9091508581813d83116117a2575b6117818183610e20565b8101031261016757516001600160e01b03198116810361016757905f6116d4565b503d611777565b6117b28161185b565b5060409081516117c181610e05565b5f8152815f52602090600682526110166117e2855f20865192838092610f41565b8151801561185257815161181b57505050506117fd9061185b565b505f815161180a81610e05565b525161181581610e05565b5f815290565b610ed194509081849692859351978895018486015e8301908282015f8152815193849201905e015f83820152038084520182610e20565b50935050505090565b5f818152600260205260409020546001600160a01b031690811561187d575090565b60249060405190637e27328960e01b82526004820152fd5b9190601f81116118a457505050565b61132f925f5260205f20906020601f840160051c830193106118ce575b601f0160051c01906112f5565b90915081906118c1565b919091805f526020906006825260405f208451946001600160401b038611610df15761190e866119088454610f09565b84611895565b8390601f871160011461197657958061195f927ff8e1a15aba9398e019f0b49df1a4fde98ee17ae345cb5f6b5e2c27f5033e8ce797985f9261196b575b50508160011b915f199060031b1c19161790565b90555b604051908152a1565b015190505f8061194b565b90601f19871691835f52855f20925f5b8181106119e357509160019391897ff8e1a15aba9398e019f0b49df1a4fde98ee17ae345cb5f6b5e2c27f5033e8ce7999a94106119cb575b505050811b019055611962565b01515f1960f88460031b161c191690555f80806119be565b929387600181928786015181550195019301611986565b92919092805f52602093600a85526040805f2081518781855193828701948086845e82019081520301902085516001600160401b038111610df157611a43816119088454610f09565b88601f8211600114611ac75791611a86826114cc95935f80516020611f6d833981519152999a9b9c955f91611abc575b508160011b915f199060031b1c19161790565b90555b8351809186518091835e81015f815203902096611aaf8451958587968752860190610d86565b9184830390850152610d86565b90508b01515f611a73565b601f19821690835f528a5f20915f5b818110611b265750925f80516020611f6d83398151915298999a9b9492600192826114cc989610611b0e575b5050811b019055611a89565b8c01515f1960f88460031b161c191690555f80611b02565b91928c60018192868e015181550194019201611ad6565b307f00000000000000000000000000000000000000000000000000000000000000006001600160a01b03161480611c3e575b15611b98577f000000000000000000000000000000000000000000000000000000000000000090565b60405160208101907f8b73c3c69bb8fe3d512ecc4cf759cc79239f7b179b0ffacaa9a75d522b39400f82527f000000000000000000000000000000000000000000000000000000000000000060408201527f000000000000000000000000000000000000000000000000000000000000000060608201524660808201523060a082015260a0815260c081018181106001600160401b03821117610df15760405251902090565b507f00000000000000000000000000000000000000000000000000000000000000004614611b6f565b8151919060418303611c9757611c909250602082015190606060408401519301515f1a90611edf565b9192909190565b50505f9160029190565b6004811015611d105780611cb3575050565b60018103611ccd5760405163f645eedf60e01b8152600490fd5b60028103611cee5760405163fce698f760e01b815260048101839052602490fd5b600314611cf85750565b602490604051906335e2f38360e21b82526004820152fd5b634e487b7160e01b5f52602160045260245ffd5b60ff8114611d625760ff811690601f8211611d505760405191611d4683610dd6565b8252602082015290565b604051632cd44ac360e21b8152600490fd5b50604051600754815f611d7483610f09565b80835292602090600190818116908115611dfe5750600114611d9f575b5050610ed192500382610e20565b91509260075f527fa66cc928b5edb82af9bd49922954155ab7b0942694bea4ce44661d9a8736c688935f925b828410611de65750610ed19450505081016020015f80611d91565b85548785018301529485019486945092810192611dcb565b91505060209250610ed194915060ff191682840152151560051b8201015f80611d91565b60ff8114611e445760ff811690601f8211611d505760405191611d4683610dd6565b50604051600854815f611e5683610f09565b80835292602090600190818116908115611dfe5750600114611e80575050610ed192500382610e20565b91509260085f527ff3f7a9fe364faab93b216da50a3214154f22a0a2b415b23a84c8169e8b636ee3935f925b828410611ec75750610ed19450505081016020015f80611d91565b85548785018301529485019486945092810192611eac565b91907f7fffffffffffffffffffffffffffffff5d576e7357a4501ddfe92f46681b20a08411611f61579160209360809260ff5f9560405194855216868401526040830152606082015282805260015afa15611f56575f516001600160a01b03811615611f4c57905f905f90565b505f906001905f90565b6040513d5f823e3d90fd5b5050505f916003919056fe2c149ed548c6d2993cd73efe187df6eccabe4538091b33adbd25fafdb8a1468ba26469706673582212203cc186894c659a62a52aea65d4e5eb032ebf419b7204b4210d42527efd26bab464736f6c63430008190033","opcodes":"PUSH2 0x160 PUSH1 0x40 SWAP1 DUP1 DUP3 MSTORE CALLVALUE PUSH2 0x3BC JUMPI PUSH2 0x16 DUP2 PUSH2 0x3C0 JUMP JUMPDEST PUSH1 0xD DUP2 MSTORE PUSH1 0x20 SWAP1 DUP2 DUP2 ADD PUSH13 0x4167656E745265676973747279 PUSH1 0x98 SHL SWAP3 DUP4 DUP3 MSTORE DUP5 MLOAD SWAP1 PUSH2 0x41 DUP3 PUSH2 0x3C0 JUMP JUMPDEST PUSH1 0x1 DUP1 DUP4 MSTORE DUP2 DUP4 ADD SWAP1 PUSH1 0x31 PUSH1 0xF8 SHL DUP3 MSTORE DUP8 MLOAD SWAP7 PUSH2 0x5D DUP9 PUSH2 0x3C0 JUMP JUMPDEST PUSH1 0xD DUP9 MSTORE DUP4 DUP9 ADD MSTORE DUP8 MLOAD SWAP7 PUSH2 0x71 DUP9 PUSH2 0x3C0 JUMP JUMPDEST PUSH1 0x5 DUP9 MSTORE PUSH5 0x1051D15395 PUSH1 0xDA SHL DUP5 DUP10 ADD MSTORE DUP1 MLOAD PUSH1 0x1 PUSH1 0x1 PUSH1 0x40 SHL SUB SWAP9 SWAP1 DUP10 DUP2 GT PUSH2 0x20E JUMPI PUSH0 SLOAD SWAP3 DUP5 DUP5 DUP2 SHR SWAP5 AND DUP1 ISZERO PUSH2 0x3B2 JUMPI JUMPDEST DUP8 DUP6 LT EQ PUSH2 0x2DC JUMPI DUP2 SWAP1 PUSH1 0x1F SWAP5 DUP6 DUP2 GT PUSH2 0x364 JUMPI JUMPDEST POP DUP8 SWAP1 DUP6 DUP4 GT PUSH1 0x1 EQ PUSH2 0x305 JUMPI PUSH0 SWAP3 PUSH2 0x2FA JUMPI JUMPDEST POP POP PUSH0 NOT PUSH1 0x3 DUP4 SWAP1 SHL SHR NOT AND SWAP1 DUP5 SHL OR PUSH0 SSTORE JUMPDEST DUP1 MLOAD SWAP2 DUP10 DUP4 GT PUSH2 0x20E JUMPI DUP4 SLOAD SWAP2 DUP5 DUP4 DUP2 SHR SWAP4 AND DUP1 ISZERO PUSH2 0x2F0 JUMPI JUMPDEST DUP8 DUP5 LT EQ PUSH2 0x2DC JUMPI DUP3 DUP3 DUP6 SWAP5 GT PUSH2 0x28C JUMPI JUMPDEST POP DUP7 SWAP2 DUP4 GT PUSH1 0x1 EQ PUSH2 0x22D JUMPI PUSH0 SWAP3 PUSH2 0x222 JUMPI JUMPDEST POP POP PUSH0 NOT PUSH1 0x3 DUP4 SWAP1 SHL SHR NOT AND SWAP1 DUP3 SHL OR SWAP1 SSTORE JUMPDEST PUSH2 0x13C DUP6 PUSH2 0x3DB JUMP JUMPDEST SWAP4 PUSH2 0x120 SWAP5 DUP6 MSTORE PUSH2 0x14C DUP5 PUSH2 0x563 JUMP JUMPDEST SWAP6 PUSH2 0x140 SWAP7 DUP8 MSTORE MLOAD SWAP1 KECCAK256 SWAP3 DUP4 PUSH1 0xE0 MSTORE MLOAD SWAP1 KECCAK256 SWAP6 PUSH2 0x100 SWAP7 DUP1 DUP9 MSTORE CHAINID PUSH1 0xA0 MSTORE DUP2 MLOAD SWAP3 DUP4 ADD SWAP4 PUSH32 0x8B73C3C69BB8FE3D512ECC4CF759CC79239F7B179B0FFACAA9A75D522B39400F DUP6 MSTORE DUP3 DUP5 ADD MSTORE PUSH1 0x60 DUP4 ADD MSTORE CHAINID PUSH1 0x80 DUP4 ADD MSTORE ADDRESS PUSH1 0xA0 DUP4 ADD MSTORE PUSH1 0xA0 DUP3 MSTORE PUSH1 0xC0 DUP3 ADD SWAP6 DUP3 DUP8 LT SWAP1 DUP8 GT OR PUSH2 0x20E JUMPI DUP6 SWAP1 MSTORE MLOAD SWAP1 KECCAK256 PUSH1 0x80 MSTORE ADDRESS PUSH1 0xC0 MSTORE PUSH2 0x1FC2 SWAP4 DUP5 PUSH2 0x6A0 DUP6 CODECOPY PUSH1 0x80 MLOAD DUP5 PUSH2 0x1B76 ADD MSTORE PUSH1 0xA0 MLOAD DUP5 PUSH2 0x1C41 ADD MSTORE PUSH1 0xC0 MLOAD DUP5 PUSH2 0x1B40 ADD MSTORE PUSH1 0xE0 MLOAD DUP5 PUSH2 0x1BC5 ADD MSTORE MLOAD DUP4 PUSH2 0x1BEB ADD MSTORE MLOAD DUP3 PUSH2 0x573 ADD MSTORE MLOAD DUP2 PUSH2 0x59D ADD MSTORE RETURN JUMPDEST PUSH4 0x4E487B71 PUSH1 0xE0 SHL PUSH0 MSTORE PUSH1 0x41 PUSH1 0x4 MSTORE PUSH1 0x24 PUSH0 REVERT JUMPDEST ADD MLOAD SWAP1 POP PUSH0 DUP1 PUSH2 0x120 JUMP JUMPDEST SWAP1 DUP5 SWAP4 POP PUSH1 0x1F NOT DUP4 AND SWAP2 DUP5 PUSH0 MSTORE DUP8 PUSH0 KECCAK256 SWAP3 PUSH0 JUMPDEST DUP10 DUP3 DUP3 LT PUSH2 0x276 JUMPI POP POP DUP5 GT PUSH2 0x25E JUMPI JUMPDEST POP POP POP DUP2 SHL ADD SWAP1 SSTORE PUSH2 0x133 JUMP JUMPDEST ADD MLOAD PUSH0 NOT PUSH1 0xF8 DUP5 PUSH1 0x3 SHL AND SHR NOT AND SWAP1 SSTORE PUSH0 DUP1 DUP1 PUSH2 0x251 JUMP JUMPDEST DUP4 DUP6 ADD MLOAD DUP7 SSTORE DUP9 SWAP8 SWAP1 SWAP6 ADD SWAP5 SWAP4 DUP5 ADD SWAP4 ADD PUSH2 0x240 JUMP JUMPDEST SWAP1 SWAP2 SWAP3 POP DUP5 PUSH0 MSTORE DUP7 PUSH0 KECCAK256 DUP4 DUP1 DUP7 ADD PUSH1 0x5 SHR DUP3 ADD SWAP3 DUP10 DUP8 LT PUSH2 0x2D3 JUMPI JUMPDEST SWAP2 DUP7 SWAP6 DUP9 SWAP3 SWAP6 SWAP5 SWAP4 ADD PUSH1 0x5 SHR ADD SWAP2 JUMPDEST DUP3 DUP2 LT PUSH2 0x2C5 JUMPI POP POP PUSH2 0x10D JUMP JUMPDEST PUSH0 DUP2 SSTORE DUP7 SWAP6 POP DUP8 SWAP2 ADD PUSH2 0x2B7 JUMP JUMPDEST SWAP3 POP DUP2 SWAP3 PUSH2 0x2A8 JUMP JUMPDEST PUSH4 0x4E487B71 PUSH1 0xE0 SHL PUSH0 MSTORE PUSH1 0x22 PUSH1 0x4 MSTORE PUSH1 0x24 PUSH0 REVERT JUMPDEST SWAP3 PUSH1 0x7F AND SWAP3 PUSH2 0xFB JUMP JUMPDEST ADD MLOAD SWAP1 POP PUSH0 DUP1 PUSH2 0xCE JUMP JUMPDEST SWAP1 DUP7 SWAP4 POP PUSH1 0x1F NOT DUP4 AND SWAP2 PUSH0 DUP1 MSTORE DUP10 PUSH0 KECCAK256 SWAP3 PUSH0 JUMPDEST DUP12 DUP3 DUP3 LT PUSH2 0x34E JUMPI POP POP DUP5 GT PUSH2 0x336 JUMPI JUMPDEST POP POP POP DUP2 SHL ADD PUSH0 SSTORE PUSH2 0xE1 JUMP JUMPDEST ADD MLOAD PUSH0 NOT PUSH1 0xF8 DUP5 PUSH1 0x3 SHL AND SHR NOT AND SWAP1 SSTORE PUSH0 DUP1 DUP1 PUSH2 0x329 JUMP JUMPDEST DUP4 DUP6 ADD MLOAD DUP7 SSTORE DUP11 SWAP8 SWAP1 SWAP6 ADD SWAP5 SWAP4 DUP5 ADD SWAP4 ADD PUSH2 0x318 JUMP JUMPDEST SWAP1 SWAP2 POP PUSH0 DUP1 MSTORE DUP8 PUSH0 KECCAK256 DUP6 DUP1 DUP6 ADD PUSH1 0x5 SHR DUP3 ADD SWAP3 DUP11 DUP7 LT PUSH2 0x3A9 JUMPI JUMPDEST SWAP2 DUP9 SWAP2 DUP7 SWAP6 SWAP5 SWAP4 ADD PUSH1 0x5 SHR ADD SWAP2 JUMPDEST DUP3 DUP2 LT PUSH2 0x39B JUMPI POP POP PUSH2 0xBA JUMP JUMPDEST PUSH0 DUP2 SSTORE DUP6 SWAP5 POP DUP9 SWAP2 ADD PUSH2 0x38D JUMP JUMPDEST SWAP3 POP DUP2 SWAP3 PUSH2 0x37F JUMP JUMPDEST SWAP4 PUSH1 0x7F AND SWAP4 PUSH2 0xA5 JUMP JUMPDEST PUSH0 DUP1 REVERT JUMPDEST PUSH1 0x40 DUP2 ADD SWAP1 DUP2 LT PUSH1 0x1 PUSH1 0x1 PUSH1 0x40 SHL SUB DUP3 GT OR PUSH2 0x20E JUMPI PUSH1 0x40 MSTORE JUMP JUMPDEST DUP1 MLOAD PUSH1 0x20 SWAP1 DUP2 DUP2 LT ISZERO PUSH2 0x451 JUMPI POP PUSH1 0x1F DUP3 MLOAD GT PUSH2 0x413 JUMPI DUP1 DUP3 MLOAD SWAP3 ADD MLOAD SWAP1 DUP1 DUP4 LT PUSH2 0x405 JUMPI POP OR SWAP1 JUMP JUMPDEST DUP3 PUSH0 NOT SWAP2 SUB PUSH1 0x3 SHL SHL AND OR SWAP1 JUMP JUMPDEST PUSH1 0x44 DUP3 PUSH1 0x40 MLOAD SWAP3 DUP4 SWAP2 PUSH4 0x305A27A9 PUSH1 0xE0 SHL DUP4 MSTORE DUP2 PUSH1 0x4 DUP5 ADD MSTORE DUP1 MLOAD SWAP2 DUP3 SWAP2 DUP3 PUSH1 0x24 DUP7 ADD MSTORE ADD DUP5 DUP5 ADD MCOPY PUSH0 DUP3 DUP3 ADD DUP5 ADD MSTORE PUSH1 0x1F ADD PUSH1 0x1F NOT AND DUP2 ADD SUB ADD SWAP1 REVERT JUMPDEST SWAP1 PUSH1 0x1 PUSH1 0x1 PUSH1 0x40 SHL SUB DUP3 GT PUSH2 0x20E JUMPI PUSH1 0x7 SLOAD SWAP3 PUSH1 0x1 SWAP4 DUP5 DUP2 DUP2 SHR SWAP2 AND DUP1 ISZERO PUSH2 0x559 JUMPI JUMPDEST DUP4 DUP3 LT EQ PUSH2 0x2DC JUMPI PUSH1 0x1F DUP2 GT PUSH2 0x525 JUMPI JUMPDEST POP DUP2 PUSH1 0x1F DUP5 GT PUSH1 0x1 EQ PUSH2 0x4C1 JUMPI POP SWAP3 DUP3 SWAP4 SWAP2 DUP4 SWAP3 PUSH0 SWAP5 PUSH2 0x4B6 JUMPI JUMPDEST POP POP SHL SWAP2 PUSH0 NOT SWAP1 PUSH1 0x3 SHL SHR NOT AND OR PUSH1 0x7 SSTORE PUSH1 0xFF SWAP1 JUMP JUMPDEST ADD MLOAD SWAP3 POP PUSH0 DUP1 PUSH2 0x4A0 JUMP JUMPDEST SWAP2 SWAP1 DUP4 PUSH1 0x1F NOT DUP2 AND PUSH1 0x7 PUSH0 MSTORE DUP5 PUSH0 KECCAK256 SWAP5 PUSH0 SWAP1 JUMPDEST DUP9 DUP4 DUP4 LT PUSH2 0x50B JUMPI POP POP POP LT PUSH2 0x4F3 JUMPI JUMPDEST POP POP POP DUP2 SHL ADD PUSH1 0x7 SSTORE PUSH1 0xFF SWAP1 JUMP JUMPDEST ADD MLOAD PUSH0 NOT PUSH1 0xF8 DUP5 PUSH1 0x3 SHL AND SHR NOT AND SWAP1 SSTORE PUSH0 DUP1 DUP1 PUSH2 0x4E5 JUMP JUMPDEST DUP6 DUP8 ADD MLOAD DUP9 SSTORE SWAP1 SWAP7 ADD SWAP6 SWAP5 DUP6 ADD SWAP5 DUP8 SWAP4 POP SWAP1 DUP2 ADD SWAP1 PUSH2 0x4D4 JUMP JUMPDEST PUSH1 0x7 PUSH0 MSTORE DUP5 PUSH1 0x1F DUP5 PUSH0 KECCAK256 SWAP3 ADD PUSH1 0x5 SHR DUP3 ADD SWAP2 PUSH1 0x1F DUP7 ADD PUSH1 0x5 SHR ADD JUMPDEST DUP3 DUP2 LT PUSH2 0x54E JUMPI POP POP PUSH2 0x485 JUMP JUMPDEST PUSH0 DUP2 SSTORE ADD DUP6 SWAP1 PUSH2 0x540 JUMP JUMPDEST SWAP1 PUSH1 0x7F AND SWAP1 PUSH2 0x474 JUMP JUMPDEST DUP1 MLOAD PUSH1 0x20 SWAP1 DUP2 DUP2 LT ISZERO PUSH2 0x58D JUMPI POP PUSH1 0x1F DUP3 MLOAD GT PUSH2 0x413 JUMPI DUP1 DUP3 MLOAD SWAP3 ADD MLOAD SWAP1 DUP1 DUP4 LT PUSH2 0x405 JUMPI POP OR SWAP1 JUMP JUMPDEST SWAP1 PUSH1 0x1 PUSH1 0x1 PUSH1 0x40 SHL SUB DUP3 GT PUSH2 0x20E JUMPI PUSH1 0x8 SLOAD SWAP3 PUSH1 0x1 SWAP4 DUP5 DUP2 DUP2 SHR SWAP2 AND DUP1 ISZERO PUSH2 0x695 JUMPI JUMPDEST DUP4 DUP3 LT EQ PUSH2 0x2DC JUMPI PUSH1 0x1F DUP2 GT PUSH2 0x661 JUMPI JUMPDEST POP DUP2 PUSH1 0x1F DUP5 GT PUSH1 0x1 EQ PUSH2 0x5FD JUMPI POP SWAP3 DUP3 SWAP4 SWAP2 DUP4 SWAP3 PUSH0 SWAP5 PUSH2 0x5F2 JUMPI JUMPDEST POP POP SHL SWAP2 PUSH0 NOT SWAP1 PUSH1 0x3 SHL SHR NOT AND OR PUSH1 0x8 SSTORE PUSH1 0xFF SWAP1 JUMP JUMPDEST ADD MLOAD SWAP3 POP PUSH0 DUP1 PUSH2 0x5DC JUMP JUMPDEST SWAP2 SWAP1 DUP4 PUSH1 0x1F NOT DUP2 AND PUSH1 0x8 PUSH0 MSTORE DUP5 PUSH0 KECCAK256 SWAP5 PUSH0 SWAP1 JUMPDEST DUP9 DUP4 DUP4 LT PUSH2 0x647 JUMPI POP POP POP LT PUSH2 0x62F JUMPI JUMPDEST POP POP POP DUP2 SHL ADD PUSH1 0x8 SSTORE PUSH1 0xFF SWAP1 JUMP JUMPDEST ADD MLOAD PUSH0 NOT PUSH1 0xF8 DUP5 PUSH1 0x3 SHL AND SHR NOT AND SWAP1 SSTORE PUSH0 DUP1 DUP1 PUSH2 0x621 JUMP JUMPDEST DUP6 DUP8 ADD MLOAD DUP9 SSTORE SWAP1 SWAP7 ADD SWAP6 SWAP5 DUP6 ADD SWAP5 DUP8 SWAP4 POP SWAP1 DUP2 ADD SWAP1 PUSH2 0x610 JUMP JUMPDEST PUSH1 0x8 PUSH0 MSTORE DUP5 PUSH1 0x1F DUP5 PUSH0 KECCAK256 SWAP3 ADD PUSH1 0x5 SHR DUP3 ADD SWAP2 PUSH1 0x1F DUP7 ADD PUSH1 0x5 SHR ADD JUMPDEST DUP3 DUP2 LT PUSH2 0x68A JUMPI POP POP PUSH2 0x5C1 JUMP JUMPDEST PUSH0 DUP2 SSTORE ADD DUP6 SWAP1 PUSH2 0x67C JUMP JUMPDEST SWAP1 PUSH1 0x7F AND SWAP1 PUSH2 0x5B0 JUMP INVALID PUSH1 0x40 PUSH1 0x80 DUP2 MSTORE PUSH1 0x4 SWAP1 DUP2 CALLDATASIZE LT ISZERO PUSH2 0x14 JUMPI PUSH0 DUP1 REVERT JUMPDEST PUSH0 CALLDATALOAD PUSH1 0xE0 SHR DUP1 PUSH3 0x339509 EQ PUSH2 0xD68 JUMPI DUP1 PUSH4 0x1FFC9A7 EQ PUSH2 0xCDF JUMPI DUP1 PUSH4 0x6FDDE03 EQ PUSH2 0xC32 JUMPI DUP1 PUSH4 0x81812FC EQ PUSH2 0xC14 JUMPI DUP1 PUSH4 0x95EA7B3 EQ PUSH2 0xB39 JUMPI DUP1 PUSH4 0xAF28BD3 EQ PUSH2 0xA47 JUMPI DUP1 PUSH4 0x1AA3A008 EQ PUSH2 0xA0F JUMPI DUP1 PUSH4 0x23B872DD EQ PUSH2 0x9F8 JUMPI DUP1 PUSH4 0x2D1EF5AE EQ PUSH2 0x84E JUMPI DUP1 PUSH4 0x3FDDCF19 EQ PUSH2 0x7BB JUMPI DUP1 PUSH4 0x42842E0E EQ PUSH2 0x793 JUMPI DUP1 PUSH4 0x466648DA EQ PUSH2 0x6D2 JUMPI DUP1 PUSH4 0x6352211E EQ PUSH2 0x6A3 JUMPI DUP1 PUSH4 0x70A08231 EQ PUSH2 0x64F JUMPI DUP1 PUSH4 0x84B0196E EQ PUSH2 0x559 JUMPI DUP1 PUSH4 0x8EA42286 EQ PUSH2 0x443 JUMPI DUP1 PUSH4 0x95D89B41 EQ PUSH2 0x360 JUMPI DUP1 PUSH4 0xA22CB465 EQ PUSH2 0x2A9 JUMPI DUP1 PUSH4 0xB88D4FDE EQ PUSH2 0x259 JUMPI DUP1 PUSH4 0xC87B56DD EQ PUSH2 0x227 JUMPI DUP1 PUSH4 0xCB4799F2 EQ PUSH2 0x1B9 JUMPI DUP1 PUSH4 0xE985E9C5 EQ PUSH2 0x16B JUMPI PUSH4 0xF2C298BE EQ PUSH2 0x118 JUMPI PUSH0 DUP1 REVERT JUMPDEST CALLVALUE PUSH2 0x167 JUMPI PUSH1 0x20 CALLDATASIZE PUSH1 0x3 NOT ADD SLT PUSH2 0x167 JUMPI DUP2 CALLDATALOAD SWAP2 PUSH1 0x1 PUSH1 0x1 PUSH1 0x40 SHL SUB DUP4 GT PUSH2 0x167 JUMPI PUSH2 0x14C PUSH2 0x160 SWAP2 PUSH1 0x20 SWAP5 CALLDATASIZE SWAP2 ADD PUSH2 0xE5C JUMP JUMPDEST DUP3 MLOAD SWAP1 PUSH2 0x158 DUP3 PUSH2 0xE05 JUMP JUMPDEST PUSH0 DUP3 MSTORE PUSH2 0x13AF JUMP JUMPDEST SWAP1 MLOAD SWAP1 DUP2 MSTORE RETURN JUMPDEST PUSH0 DUP1 REVERT JUMPDEST POP CALLVALUE PUSH2 0x167 JUMPI DUP1 PUSH1 0x3 NOT CALLDATASIZE ADD SLT PUSH2 0x167 JUMPI PUSH1 0x20 SWAP1 PUSH2 0x187 PUSH2 0xDAA JUMP JUMPDEST PUSH2 0x18F PUSH2 0xDC0 JUMP JUMPDEST SWAP1 PUSH1 0x1 DUP1 PUSH1 0xA0 SHL SUB DUP1 SWAP2 AND PUSH0 MSTORE PUSH1 0x5 DUP5 MSTORE DUP3 PUSH0 KECCAK256 SWAP2 AND PUSH0 MSTORE DUP3 MSTORE PUSH1 0xFF DUP2 PUSH0 KECCAK256 SLOAD AND SWAP1 MLOAD SWAP1 ISZERO ISZERO DUP2 MSTORE RETURN JUMPDEST POP CALLVALUE PUSH2 0x167 JUMPI PUSH2 0x20A PUSH2 0x223 SWAP2 PUSH2 0x211 PUSH1 0x20 DUP1 PUSH2 0x1D5 CALLDATASIZE PUSH2 0xEA2 JUMP JUMPDEST SWAP1 PUSH2 0x1DF DUP2 PUSH2 0x185B JUMP JUMPDEST POP PUSH0 MSTORE PUSH1 0xA DUP3 MSTORE DUP5 PUSH0 KECCAK256 DUP6 MLOAD SWAP4 DUP3 DUP6 SWAP4 MLOAD SWAP2 DUP3 SWAP2 ADD DUP5 MCOPY DUP3 ADD SWAP1 DUP2 MSTORE SUB ADD SWAP1 KECCAK256 DUP3 MLOAD SWAP4 DUP5 DUP1 SWAP3 PUSH2 0xF41 JUMP JUMPDEST SUB DUP4 PUSH2 0xE20 JUMP JUMPDEST MLOAD SWAP2 DUP3 SWAP2 PUSH1 0x20 DUP4 MSTORE PUSH1 0x20 DUP4 ADD SWAP1 PUSH2 0xD86 JUMP JUMPDEST SUB SWAP1 RETURN JUMPDEST POP CALLVALUE PUSH2 0x167 JUMPI PUSH1 0x20 CALLDATASIZE PUSH1 0x3 NOT ADD SLT PUSH2 0x167 JUMPI PUSH2 0x246 PUSH2 0x223 SWAP3 CALLDATALOAD PUSH2 0x17A9 JUMP JUMPDEST SWAP1 MLOAD SWAP2 DUP3 SWAP2 PUSH1 0x20 DUP4 MSTORE PUSH1 0x20 DUP4 ADD SWAP1 PUSH2 0xD86 JUMP JUMPDEST DUP3 CALLVALUE PUSH2 0x167 JUMPI PUSH1 0x80 CALLDATASIZE PUSH1 0x3 NOT ADD SLT PUSH2 0x167 JUMPI PUSH2 0x273 PUSH2 0xDAA JUMP JUMPDEST PUSH2 0x27B PUSH2 0xDC0 JUMP JUMPDEST SWAP1 PUSH1 0x64 CALLDATALOAD PUSH1 0x1 PUSH1 0x1 PUSH1 0x40 SHL SUB DUP2 GT PUSH2 0x167 JUMPI PUSH2 0x2A7 SWAP4 PUSH2 0x29D SWAP2 CALLDATASIZE SWAP2 ADD PUSH2 0xE5C JUMP JUMPDEST SWAP2 PUSH1 0x44 CALLDATALOAD SWAP2 PUSH2 0x165B JUMP JUMPDEST STOP JUMPDEST POP CALLVALUE PUSH2 0x167 JUMPI DUP1 PUSH1 0x3 NOT CALLDATASIZE ADD SLT PUSH2 0x167 JUMPI PUSH2 0x2C2 PUSH2 0xDAA JUMP JUMPDEST SWAP1 PUSH1 0x24 CALLDATALOAD SWAP2 DUP3 ISZERO ISZERO DUP1 SWAP4 SUB PUSH2 0x167 JUMPI CALLER ISZERO PUSH2 0x34A JUMPI PUSH1 0x1 PUSH1 0x1 PUSH1 0xA0 SHL SUB AND SWAP3 DUP4 ISZERO PUSH2 0x335 JUMPI POP CALLER PUSH0 MSTORE PUSH1 0x5 PUSH1 0x20 MSTORE DUP1 PUSH0 KECCAK256 DUP4 PUSH0 MSTORE PUSH1 0x20 MSTORE DUP1 PUSH0 KECCAK256 PUSH1 0xFF NOT DUP2 SLOAD AND PUSH1 0xFF DUP5 AND OR SWAP1 SSTORE MLOAD SWAP1 DUP2 MSTORE PUSH32 0x17307EAB39AB6107E8899845AD3D59BD9653F200F220920489CA2B5937696C31 PUSH1 0x20 CALLER SWAP3 LOG3 STOP JUMPDEST DUP4 PUSH1 0x24 SWAP3 MLOAD SWAP2 PUSH4 0xB611743 PUSH1 0xE3 SHL DUP4 MSTORE DUP3 ADD MSTORE REVERT JUMPDEST DUP2 MLOAD PUSH4 0xA9FBF51F PUSH1 0xE0 SHL DUP2 MSTORE PUSH0 DUP2 DUP7 ADD MSTORE PUSH1 0x24 SWAP1 REVERT JUMPDEST POP CALLVALUE PUSH2 0x167 JUMPI PUSH0 CALLDATASIZE PUSH1 0x3 NOT ADD SLT PUSH2 0x167 JUMPI DUP1 MLOAD SWAP1 PUSH0 SWAP1 DUP3 PUSH1 0x1 SWAP3 PUSH1 0x1 SLOAD SWAP4 PUSH2 0x387 DUP6 PUSH2 0xF09 JUMP JUMPDEST SWAP1 DUP2 DUP5 MSTORE PUSH1 0x20 SWAP6 DUP7 PUSH1 0x1 DUP3 AND SWAP2 DUP3 PUSH0 EQ PUSH2 0x421 JUMPI POP POP PUSH1 0x1 EQ PUSH2 0x3C6 JUMPI JUMPDEST POP POP PUSH2 0x223 SWAP3 SWAP2 PUSH2 0x3B7 SWAP2 SUB DUP6 PUSH2 0xE20 JUMP JUMPDEST MLOAD SWAP3 DUP3 DUP5 SWAP4 DUP5 MSTORE DUP4 ADD SWAP1 PUSH2 0xD86 JUMP JUMPDEST SWAP1 DUP6 SWAP3 POP PUSH1 0x1 PUSH0 MSTORE PUSH32 0xB10E2D527612073B26EECDFD717E6A320CF44B4AFAC2B0732D9FCBE2B7FA0CF6 SWAP2 PUSH0 SWAP3 JUMPDEST DUP3 DUP5 LT PUSH2 0x409 JUMPI POP POP POP DUP3 ADD ADD DUP2 PUSH2 0x3B7 PUSH2 0x3A5 JUMP JUMPDEST DUP1 SLOAD DUP5 DUP11 ADD DUP7 ADD MSTORE DUP9 SWAP6 POP DUP8 SWAP5 SWAP1 SWAP4 ADD SWAP3 DUP2 ADD PUSH2 0x3F3 JUMP JUMPDEST PUSH1 0xFF NOT AND DUP7 DUP3 ADD MSTORE SWAP3 ISZERO ISZERO PUSH1 0x5 SHL DUP6 ADD SWAP1 SWAP3 ADD SWAP3 POP DUP4 SWAP2 POP PUSH2 0x3B7 SWAP1 POP PUSH2 0x3A5 JUMP JUMPDEST POP SWAP1 CALLVALUE PUSH2 0x167 JUMPI DUP2 PUSH1 0x3 NOT CALLDATASIZE ADD SLT PUSH2 0x167 JUMPI PUSH1 0x1 PUSH1 0x1 PUSH1 0x40 SHL SUB SWAP2 DUP2 CALLDATALOAD DUP4 DUP2 GT PUSH2 0x167 JUMPI PUSH2 0x474 SWAP1 CALLDATASIZE SWAP1 DUP5 ADD PUSH2 0xE5C JUMP JUMPDEST SWAP2 PUSH1 0x24 SWAP3 DUP4 CALLDATALOAD SWAP4 DUP6 DUP6 GT PUSH2 0x167 JUMPI CALLDATASIZE PUSH1 0x23 DUP7 ADD SLT ISZERO PUSH2 0x167 JUMPI DUP5 DUP4 ADD CALLDATALOAD SWAP3 DUP7 DUP5 GT PUSH2 0x548 JUMPI POP DUP3 PUSH1 0x5 SHL PUSH1 0x20 SWAP7 DUP6 MLOAD SWAP5 PUSH2 0x4B0 DUP10 DUP5 ADD DUP8 PUSH2 0xE20 JUMP JUMPDEST DUP6 MSTORE DUP3 DUP9 DUP7 ADD SWAP3 DUP9 ADD ADD SWAP7 CALLDATASIZE DUP9 GT PUSH2 0x167 JUMPI DUP4 DUP2 ADD SWAP3 JUMPDEST DUP9 DUP5 LT PUSH2 0x4DA JUMPI DUP10 DUP9 PUSH2 0x160 DUP10 DUP10 PUSH2 0x13AF JUMP JUMPDEST DUP4 CALLDATALOAD DUP4 DUP2 GT PUSH2 0x167 JUMPI DUP3 ADD DUP9 PUSH1 0x23 NOT DUP3 CALLDATASIZE SUB ADD SLT PUSH2 0x167 JUMPI DUP9 MLOAD SWAP2 PUSH2 0x4FE DUP4 PUSH2 0xDD6 JUMP JUMPDEST DUP7 DUP3 ADD CALLDATALOAD DUP6 DUP2 GT PUSH2 0x167 JUMPI PUSH2 0x518 SWAP1 DUP9 CALLDATASIZE SWAP2 DUP6 ADD ADD PUSH2 0xE5C JUMP JUMPDEST DUP4 MSTORE PUSH1 0x44 DUP3 ADD CALLDATALOAD SWAP3 DUP6 DUP5 GT PUSH2 0x167 JUMPI PUSH2 0x539 DUP14 SWAP5 SWAP4 DUP10 DUP7 SWAP6 CALLDATASIZE SWAP3 ADD ADD PUSH2 0xE5C JUMP JUMPDEST DUP4 DUP3 ADD MSTORE DUP2 MSTORE ADD SWAP4 ADD SWAP3 PUSH2 0x4C7 JUMP JUMPDEST PUSH1 0x41 SWAP1 PUSH4 0x4E487B71 PUSH1 0xE0 SHL PUSH0 MSTORE MSTORE PUSH0 REVERT JUMPDEST POP CALLVALUE PUSH2 0x167 JUMPI PUSH0 CALLDATASIZE PUSH1 0x3 NOT ADD SLT PUSH2 0x167 JUMPI PUSH2 0x5F3 SWAP1 PUSH2 0x597 PUSH32 0x0 PUSH2 0x1D24 JUMP JUMPDEST SWAP1 PUSH2 0x5C1 PUSH32 0x0 PUSH2 0x1E22 JUMP JUMPDEST PUSH2 0x600 DUP3 MLOAD SWAP3 PUSH2 0x5D0 DUP5 PUSH2 0xE05 JUMP JUMPDEST PUSH0 DUP5 MSTORE PUSH1 0x20 SWAP3 DUP2 MLOAD SWAP7 DUP8 SWAP7 PUSH1 0xF PUSH1 0xF8 SHL DUP9 MSTORE PUSH1 0xE0 PUSH1 0x20 DUP10 ADD MSTORE PUSH1 0xE0 DUP9 ADD SWAP1 PUSH2 0xD86 JUMP JUMPDEST SWAP2 DUP7 DUP4 SUB SWAP1 DUP8 ADD MSTORE PUSH2 0xD86 JUMP JUMPDEST CHAINID PUSH1 0x60 DUP6 ADD MSTORE ADDRESS PUSH1 0x80 DUP6 ADD MSTORE PUSH0 PUSH1 0xA0 DUP6 ADD MSTORE DUP4 DUP2 SUB PUSH1 0xC0 DUP6 ADD MSTORE PUSH1 0x20 DUP1 DUP5 MLOAD SWAP3 DUP4 DUP2 MSTORE ADD SWAP4 ADD SWAP2 PUSH0 JUMPDEST DUP3 DUP2 LT PUSH2 0x638 JUMPI POP POP POP POP SUB SWAP1 RETURN JUMPDEST DUP4 MLOAD DUP6 MSTORE DUP7 SWAP6 POP SWAP4 DUP2 ADD SWAP4 SWAP3 DUP2 ADD SWAP3 PUSH1 0x1 ADD PUSH2 0x629 JUMP JUMPDEST POP CALLVALUE PUSH2 0x167 JUMPI PUSH1 0x20 CALLDATASIZE PUSH1 0x3 NOT ADD SLT PUSH2 0x167 JUMPI PUSH1 0x1 PUSH1 0x1 PUSH1 0xA0 SHL SUB PUSH2 0x671 PUSH2 0xDAA JUMP JUMPDEST AND DUP1 ISZERO PUSH2 0x68D JUMPI PUSH1 0x20 SWAP3 POP PUSH0 MSTORE PUSH1 0x3 DUP3 MSTORE DUP1 PUSH0 KECCAK256 SLOAD SWAP1 MLOAD SWAP1 DUP2 MSTORE RETURN JUMPDEST DUP2 MLOAD PUSH4 0x22718AD9 PUSH1 0xE2 SHL DUP2 MSTORE PUSH0 DUP2 DUP6 ADD MSTORE PUSH1 0x24 SWAP1 REVERT JUMPDEST POP CALLVALUE PUSH2 0x167 JUMPI PUSH1 0x20 CALLDATASIZE PUSH1 0x3 NOT ADD SLT PUSH2 0x167 JUMPI PUSH2 0x6C1 PUSH1 0x20 SWAP3 CALLDATALOAD PUSH2 0x185B JUMP JUMPDEST SWAP1 MLOAD PUSH1 0x1 PUSH1 0x1 PUSH1 0xA0 SHL SUB SWAP1 SWAP2 AND DUP2 MSTORE RETURN JUMPDEST POP SWAP1 CALLVALUE PUSH2 0x167 JUMPI PUSH1 0x60 CALLDATASIZE PUSH1 0x3 NOT ADD SLT PUSH2 0x167 JUMPI PUSH1 0x1 PUSH1 0x1 PUSH1 0x40 SHL SUB DUP2 CALLDATALOAD PUSH1 0x24 CALLDATALOAD DUP3 DUP2 GT PUSH2 0x167 JUMPI PUSH2 0x706 SWAP1 CALLDATASIZE SWAP1 DUP6 ADD PUSH2 0xE5C JUMP JUMPDEST SWAP2 PUSH1 0x44 CALLDATALOAD SWAP1 DUP2 GT PUSH2 0x167 JUMPI PUSH2 0x71E SWAP1 CALLDATASIZE SWAP1 DUP6 ADD PUSH2 0xE5C JUMP JUMPDEST SWAP3 PUSH2 0x73B PUSH2 0x72B DUP4 PUSH2 0x185B JUMP JUMPDEST PUSH1 0x1 PUSH1 0x1 PUSH1 0xA0 SHL SUB AND CALLER EQ PUSH2 0x1296 JUMP JUMPDEST DUP3 MLOAD PUSH1 0x20 DUP5 ADD KECCAK256 PUSH2 0x74A PUSH2 0x12CE JUMP JUMPDEST PUSH1 0x20 DUP2 MLOAD SWAP2 ADD KECCAK256 EQ PUSH2 0x761 JUMPI POP PUSH2 0x2A7 SWAP4 POP PUSH2 0x19FA JUMP JUMPDEST PUSH1 0x64 SWAP1 PUSH1 0x20 DUP7 MLOAD SWAP2 PUSH3 0x461BCD PUSH1 0xE5 SHL DUP4 MSTORE DUP3 ADD MSTORE PUSH1 0xC PUSH1 0x24 DUP3 ADD MSTORE PUSH12 0x5265736572766564206B6579 PUSH1 0xA0 SHL PUSH1 0x44 DUP3 ADD MSTORE REVERT JUMPDEST POP CALLVALUE PUSH2 0x167 JUMPI PUSH2 0x2A7 SWAP1 PUSH2 0x7A6 CALLDATASIZE PUSH2 0xED4 JUMP JUMPDEST SWAP2 SWAP3 MLOAD SWAP3 PUSH2 0x7B3 DUP5 PUSH2 0xE05 JUMP JUMPDEST PUSH0 DUP5 MSTORE PUSH2 0x165B JUMP JUMPDEST POP CALLVALUE PUSH2 0x167 JUMPI PUSH1 0x20 CALLDATASIZE PUSH1 0x3 NOT ADD SLT PUSH2 0x167 JUMPI PUSH0 DUP1 MLOAD PUSH1 0x20 PUSH2 0x1F6D DUP4 CODECOPY DUP2 MLOAD SWAP2 MSTORE PUSH32 0x2AC6109326E720D1435C0DB66F7E35EDA7839F52B6F1F5520A60788E132B4E39 SWAP3 CALLDATALOAD SWAP2 PUSH2 0x80B PUSH2 0x72B DUP5 PUSH2 0x185B JUMP JUMPDEST DUP3 PUSH0 MSTORE PUSH1 0xA PUSH1 0x20 MSTORE DUP1 PUSH0 KECCAK256 PUSH2 0x83B PUSH1 0x2B DUP4 MLOAD PUSH11 0x1859D95B9D15D85B1B195D PUSH1 0xAA SHL SWAP4 DUP5 DUP3 MSTORE PUSH1 0xB DUP3 ADD MSTORE KECCAK256 PUSH2 0x130B JUMP JUMPDEST DUP2 MLOAD MSTORE MLOAD DUP1 PUSH2 0x849 DUP2 PUSH2 0x1354 JUMP JUMPDEST SUB SWAP1 LOG3 STOP JUMPDEST POP SWAP1 CALLVALUE PUSH2 0x167 JUMPI PUSH1 0x80 CALLDATASIZE PUSH1 0x3 NOT ADD SLT PUSH2 0x167 JUMPI DUP1 CALLDATALOAD PUSH2 0x86B PUSH2 0xDC0 JUMP JUMPDEST PUSH1 0x44 CALLDATALOAD SWAP3 SWAP1 PUSH1 0x1 PUSH1 0x1 PUSH1 0x40 SHL SUB SWAP1 PUSH1 0x64 CALLDATALOAD DUP3 DUP2 GT PUSH2 0x167 JUMPI PUSH2 0x890 SWAP1 CALLDATASIZE SWAP1 DUP6 ADD PUSH2 0xE5C JUMP JUMPDEST SWAP1 PUSH2 0x89A DUP6 PUSH2 0x185B JUMP JUMPDEST PUSH1 0x1 PUSH1 0x1 PUSH1 0xA0 SHL SUB SWAP4 SWAP1 PUSH2 0x8B1 SWAP1 DUP6 AND CALLER EQ PUSH2 0x1296 JUMP JUMPDEST DUP7 TIMESTAMP GT PUSH2 0x9C1 JUMPI DUP8 MLOAD SWAP1 DUP5 PUSH1 0x20 DUP4 ADD SWAP4 PUSH32 0x5A2B87F3673CA6856D85D54CB1A9EB690F53C4D6B0954DB34C84FE6C19C80D94 DUP6 MSTORE DUP9 DUP12 DUP6 ADD MSTORE AND SWAP8 DUP9 PUSH1 0x60 DUP5 ADD MSTORE PUSH1 0x80 DUP4 ADD MSTORE PUSH1 0x80 DUP3 MSTORE PUSH1 0xA0 DUP3 ADD SWAP1 DUP3 DUP3 LT SWAP1 DUP3 GT OR PUSH2 0x9AE JUMPI SWAP3 PUSH1 0x42 PUSH2 0x94A SWAP4 PUSH2 0x941 SWAP4 DUP11 SWAP8 SWAP7 DUP13 MSTORE MLOAD SWAP1 KECCAK256 PUSH2 0x925 PUSH2 0x1B3D JUMP JUMPDEST SWAP1 DUP12 MLOAD SWAP2 PUSH2 0x1901 PUSH1 0xF0 SHL DUP4 MSTORE PUSH1 0x2 DUP4 ADD MSTORE PUSH1 0x22 DUP3 ADD MSTORE KECCAK256 PUSH2 0x1C67 JUMP JUMPDEST SWAP1 SWAP3 SWAP2 SWAP3 PUSH2 0x1CA1 JUMP JUMPDEST AND SUB PUSH2 0x977 JUMPI POP PUSH2 0x2A7 SWAP3 MLOAD SWAP2 PUSH1 0x20 DUP4 ADD MSTORE PUSH1 0x20 DUP3 MSTORE PUSH2 0x969 DUP3 PUSH2 0xDD6 JUMP JUMPDEST PUSH2 0x971 PUSH2 0x12CE JUMP JUMPDEST SWAP1 PUSH2 0x19FA JUMP JUMPDEST PUSH1 0x64 SWAP1 PUSH1 0x20 DUP6 MLOAD SWAP2 PUSH3 0x461BCD PUSH1 0xE5 SHL DUP4 MSTORE DUP3 ADD MSTORE PUSH1 0x11 PUSH1 0x24 DUP3 ADD MSTORE PUSH17 0x496E76616C6964207369676E6174757265 PUSH1 0x78 SHL PUSH1 0x44 DUP3 ADD MSTORE REVERT JUMPDEST PUSH1 0x41 DUP7 PUSH4 0x4E487B71 PUSH1 0xE0 SHL PUSH0 MSTORE MSTORE PUSH1 0x24 PUSH0 REVERT JUMPDEST DUP8 MLOAD PUSH3 0x461BCD PUSH1 0xE5 SHL DUP2 MSTORE PUSH1 0x20 DUP2 DUP8 ADD MSTORE PUSH1 0x11 PUSH1 0x24 DUP3 ADD MSTORE PUSH17 0x14DA59DB985D1D5C9948195E1C1A5C9959 PUSH1 0x7A SHL PUSH1 0x44 DUP3 ADD MSTORE PUSH1 0x64 SWAP1 REVERT JUMPDEST CALLVALUE PUSH2 0x167 JUMPI PUSH2 0x2A7 PUSH2 0xA09 CALLDATASIZE PUSH2 0xED4 JUMP JUMPDEST SWAP2 PUSH2 0x1078 JUMP JUMPDEST POP CALLVALUE PUSH2 0x167 JUMPI PUSH0 CALLDATASIZE PUSH1 0x3 NOT ADD SLT PUSH2 0x167 JUMPI DUP1 PUSH2 0x160 PUSH1 0x20 SWAP3 MLOAD PUSH2 0xA31 DUP2 PUSH2 0xE05 JUMP JUMPDEST PUSH0 DUP2 MSTORE DUP3 MLOAD PUSH2 0xA3F DUP2 PUSH2 0xE05 JUMP JUMPDEST PUSH0 DUP2 MSTORE PUSH2 0x13AF JUMP JUMPDEST POP SWAP1 CALLVALUE PUSH2 0x167 JUMPI PUSH2 0xA57 CALLDATASIZE PUSH2 0xEA2 JUMP JUMPDEST SWAP3 SWAP1 SWAP2 PUSH2 0xA63 DUP4 PUSH2 0x185B JUMP JUMPDEST PUSH1 0x1 PUSH1 0x1 PUSH1 0xA0 SHL SUB SWAP1 DUP2 AND CALLER DUP2 EQ SWAP2 DUP3 ISZERO PUSH2 0xB22 JUMPI JUMPDEST POP DUP2 ISZERO PUSH2 0xB03 JUMPI JUMPDEST POP ISZERO PUSH2 0xAC9 JUMPI POP PUSH32 0x3A2C7FFFC2CBA7582C690E3B82C453EA02A308326A98A3AD7576C606336409FB SWAP1 PUSH2 0xAB4 DUP5 DUP5 PUSH2 0x18D8 JUMP JUMPDEST MLOAD PUSH1 0x20 DUP2 MSTORE DUP1 PUSH2 0x849 CALLER SWAP6 PUSH1 0x20 DUP4 ADD SWAP1 PUSH2 0xD86 JUMP JUMPDEST PUSH1 0x20 PUSH1 0x64 SWAP3 MLOAD SWAP2 PUSH3 0x461BCD PUSH1 0xE5 SHL DUP4 MSTORE DUP3 ADD MSTORE PUSH1 0x15 PUSH1 0x24 DUP3 ADD MSTORE PUSH21 0x2737BA1037BBB732B91037B91037B832B930BA37B9 PUSH1 0x59 SHL PUSH1 0x44 DUP3 ADD MSTORE REVERT JUMPDEST SWAP1 POP PUSH0 MSTORE PUSH1 0x5 PUSH1 0x20 MSTORE DUP2 PUSH0 KECCAK256 CALLER PUSH0 MSTORE PUSH1 0x20 MSTORE PUSH1 0xFF DUP3 PUSH0 KECCAK256 SLOAD AND PUSH0 PUSH2 0xA81 JUMP JUMPDEST SWAP1 SWAP2 POP CALLER SWAP1 PUSH2 0xB30 DUP7 PUSH2 0x1054 JUMP JUMPDEST AND EQ SWAP1 PUSH0 PUSH2 0xA79 JUMP JUMPDEST POP CALLVALUE PUSH2 0x167 JUMPI DUP1 PUSH1 0x3 NOT CALLDATASIZE ADD SLT PUSH2 0x167 JUMPI PUSH2 0xB52 PUSH2 0xDAA JUMP JUMPDEST SWAP2 PUSH1 0x24 CALLDATALOAD PUSH2 0xB5F DUP2 PUSH2 0x185B JUMP JUMPDEST CALLER ISZERO ISZERO DUP1 PUSH2 0xC01 JUMPI JUMPDEST DUP1 PUSH2 0xBDA JUMPI JUMPDEST PUSH2 0xBC4 JUMPI PUSH1 0x1 PUSH1 0x1 PUSH1 0xA0 SHL SUB SWAP5 DUP6 AND SWAP5 DUP3 SWAP2 DUP7 SWAP2 AND PUSH32 0x8C5BE1E5EBEC7D5BD14F71427D1E84F3DD0314C0F7B2291E5B200AC8C7C3B925 PUSH0 DUP1 LOG4 PUSH0 MSTORE PUSH1 0x20 MSTORE PUSH0 KECCAK256 SWAP1 PUSH1 0x1 PUSH1 0x1 PUSH1 0x60 SHL SUB PUSH1 0xA0 SHL DUP3 SLOAD AND OR SWAP1 SSTORE PUSH0 DUP1 RETURN JUMPDEST DUP4 MLOAD PUSH4 0xA9FBF51F PUSH1 0xE0 SHL DUP2 MSTORE CALLER DUP2 DUP6 ADD MSTORE PUSH1 0x24 SWAP1 REVERT JUMPDEST POP PUSH1 0x1 DUP1 PUSH1 0xA0 SHL SUB DUP2 AND PUSH0 MSTORE PUSH1 0x5 PUSH1 0x20 MSTORE DUP4 PUSH0 KECCAK256 CALLER PUSH0 MSTORE PUSH1 0x20 MSTORE PUSH1 0xFF DUP5 PUSH0 KECCAK256 SLOAD AND ISZERO PUSH2 0xB6E JUMP JUMPDEST POP PUSH1 0x1 PUSH1 0x1 PUSH1 0xA0 SHL SUB DUP2 AND CALLER EQ ISZERO PUSH2 0xB68 JUMP JUMPDEST POP CALLVALUE PUSH2 0x167 JUMPI PUSH1 0x20 CALLDATASIZE PUSH1 0x3 NOT ADD SLT PUSH2 0x167 JUMPI PUSH2 0x6C1 PUSH1 0x20 SWAP3 CALLDATALOAD PUSH2 0x1054 JUMP JUMPDEST POP CALLVALUE PUSH2 0x167 JUMPI PUSH0 CALLDATASIZE PUSH1 0x3 NOT ADD SLT PUSH2 0x167 JUMPI DUP1 MLOAD SWAP1 PUSH0 SWAP1 DUP3 PUSH0 SLOAD SWAP3 PUSH2 0xC55 DUP5 PUSH2 0xF09 JUMP JUMPDEST DUP1 DUP4 MSTORE PUSH1 0x20 SWAP5 PUSH1 0x1 SWAP1 DUP7 PUSH1 0x1 DUP3 AND SWAP2 DUP3 PUSH0 EQ PUSH2 0x421 JUMPI POP POP PUSH1 0x1 EQ PUSH2 0xC86 JUMPI POP POP PUSH2 0x223 SWAP3 SWAP2 PUSH2 0x3B7 SWAP2 SUB DUP6 PUSH2 0xE20 JUMP JUMPDEST PUSH0 DUP1 DUP1 MSTORE DUP7 SWAP4 POP SWAP2 SWAP1 PUSH32 0x290DECD9548B62A8D60345A988386FC84BA6BC95484008F6362F93160EF3E563 JUMPDEST DUP3 DUP5 LT PUSH2 0xCC7 JUMPI POP POP POP DUP3 ADD ADD DUP2 PUSH2 0x3B7 PUSH2 0x3A5 JUMP JUMPDEST DUP1 SLOAD DUP5 DUP11 ADD DUP7 ADD MSTORE DUP9 SWAP6 POP DUP8 SWAP5 SWAP1 SWAP4 ADD SWAP3 DUP2 ADD PUSH2 0xCB1 JUMP JUMPDEST POP SWAP1 CALLVALUE PUSH2 0x167 JUMPI PUSH1 0x20 CALLDATASIZE PUSH1 0x3 NOT ADD SLT PUSH2 0x167 JUMPI CALLDATALOAD PUSH4 0xFFFFFFFF PUSH1 0xE0 SHL DUP2 AND DUP1 SWAP2 SUB PUSH2 0x167 JUMPI PUSH1 0x20 SWAP2 PUSH4 0x24832483 PUSH1 0xE1 SHL DUP3 EQ SWAP2 DUP3 ISZERO PUSH2 0xD22 JUMPI JUMPDEST POP MLOAD SWAP1 ISZERO ISZERO DUP2 MSTORE RETURN JUMPDEST SWAP1 SWAP2 POP PUSH4 0x80AC58CD PUSH1 0xE0 SHL DUP2 EQ SWAP1 DUP2 ISZERO PUSH2 0xD57 JUMPI JUMPDEST DUP2 ISZERO PUSH2 0xD46 JUMPI JUMPDEST POP SWAP1 PUSH0 PUSH2 0xD19 JUMP JUMPDEST PUSH4 0x1FFC9A7 PUSH1 0xE0 SHL EQ SWAP1 POP PUSH0 PUSH2 0xD3E JUMP JUMPDEST PUSH4 0x5B5E139F PUSH1 0xE0 SHL DUP2 EQ SWAP2 POP PUSH2 0xD37 JUMP JUMPDEST POP CALLVALUE PUSH2 0x167 JUMPI PUSH1 0x20 CALLDATASIZE PUSH1 0x3 NOT ADD SLT PUSH2 0x167 JUMPI PUSH2 0x6C1 PUSH1 0x20 SWAP3 CALLDATALOAD PUSH2 0xFD2 JUMP JUMPDEST DUP1 MLOAD DUP1 DUP4 MSTORE PUSH1 0x20 SWAP3 SWAP2 DUP2 SWAP1 DUP5 ADD DUP5 DUP5 ADD MCOPY PUSH0 DUP3 DUP3 ADD DUP5 ADD MSTORE PUSH1 0x1F ADD PUSH1 0x1F NOT AND ADD ADD SWAP1 JUMP JUMPDEST PUSH1 0x4 CALLDATALOAD SWAP1 PUSH1 0x1 PUSH1 0x1 PUSH1 0xA0 SHL SUB DUP3 AND DUP3 SUB PUSH2 0x167 JUMPI JUMP JUMPDEST PUSH1 0x24 CALLDATALOAD SWAP1 PUSH1 0x1 PUSH1 0x1 PUSH1 0xA0 SHL SUB DUP3 AND DUP3 SUB PUSH2 0x167 JUMPI JUMP JUMPDEST PUSH1 0x40 DUP2 ADD SWAP1 DUP2 LT PUSH1 0x1 PUSH1 0x1 PUSH1 0x40 SHL SUB DUP3 GT OR PUSH2 0xDF1 JUMPI PUSH1 0x40 MSTORE JUMP JUMPDEST PUSH4 0x4E487B71 PUSH1 0xE0 SHL PUSH0 MSTORE PUSH1 0x41 PUSH1 0x4 MSTORE PUSH1 0x24 PUSH0 REVERT JUMPDEST PUSH1 0x20 DUP2 ADD SWAP1 DUP2 LT PUSH1 0x1 PUSH1 0x1 PUSH1 0x40 SHL SUB DUP3 GT OR PUSH2 0xDF1 JUMPI PUSH1 0x40 MSTORE JUMP JUMPDEST SWAP1 PUSH1 0x1F DUP1 NOT SWAP2 ADD AND DUP2 ADD SWAP1 DUP2 LT PUSH1 0x1 PUSH1 0x1 PUSH1 0x40 SHL SUB DUP3 GT OR PUSH2 0xDF1 JUMPI PUSH1 0x40 MSTORE JUMP JUMPDEST PUSH1 0x1 PUSH1 0x1 PUSH1 0x40 SHL SUB DUP2 GT PUSH2 0xDF1 JUMPI PUSH1 0x1F ADD PUSH1 0x1F NOT AND PUSH1 0x20 ADD SWAP1 JUMP JUMPDEST DUP2 PUSH1 0x1F DUP3 ADD SLT ISZERO PUSH2 0x167 JUMPI DUP1 CALLDATALOAD SWAP1 PUSH2 0xE73 DUP3 PUSH2 0xE41 JUMP JUMPDEST SWAP3 PUSH2 0xE81 PUSH1 0x40 MLOAD SWAP5 DUP6 PUSH2 0xE20 JUMP JUMPDEST DUP3 DUP5 MSTORE PUSH1 0x20 DUP4 DUP4 ADD ADD GT PUSH2 0x167 JUMPI DUP2 PUSH0 SWAP3 PUSH1 0x20 DUP1 SWAP4 ADD DUP4 DUP7 ADD CALLDATACOPY DUP4 ADD ADD MSTORE SWAP1 JUMP JUMPDEST SWAP1 PUSH1 0x40 PUSH1 0x3 NOT DUP4 ADD SLT PUSH2 0x167 JUMPI PUSH1 0x4 CALLDATALOAD SWAP2 PUSH1 0x24 CALLDATALOAD SWAP1 PUSH1 0x1 PUSH1 0x1 PUSH1 0x40 SHL SUB DUP3 GT PUSH2 0x167 JUMPI PUSH2 0xED1 SWAP2 PUSH1 0x4 ADD PUSH2 0xE5C JUMP JUMPDEST SWAP1 JUMP JUMPDEST PUSH1 0x60 SWAP1 PUSH1 0x3 NOT ADD SLT PUSH2 0x167 JUMPI PUSH1 0x1 PUSH1 0x1 PUSH1 0xA0 SHL SUB SWAP1 PUSH1 0x4 CALLDATALOAD DUP3 DUP2 AND DUP2 SUB PUSH2 0x167 JUMPI SWAP2 PUSH1 0x24 CALLDATALOAD SWAP1 DUP2 AND DUP2 SUB PUSH2 0x167 JUMPI SWAP1 PUSH1 0x44 CALLDATALOAD SWAP1 JUMP JUMPDEST SWAP1 PUSH1 0x1 DUP3 DUP2 SHR SWAP3 AND DUP1 ISZERO PUSH2 0xF37 JUMPI JUMPDEST PUSH1 0x20 DUP4 LT EQ PUSH2 0xF23 JUMPI JUMP JUMPDEST PUSH4 0x4E487B71 PUSH1 0xE0 SHL PUSH0 MSTORE PUSH1 0x22 PUSH1 0x4 MSTORE PUSH1 0x24 PUSH0 REVERT JUMPDEST SWAP2 PUSH1 0x7F AND SWAP2 PUSH2 0xF18 JUMP JUMPDEST DUP1 SLOAD PUSH0 SWAP4 SWAP3 PUSH2 0xF4F DUP3 PUSH2 0xF09 JUMP JUMPDEST SWAP2 DUP3 DUP3 MSTORE PUSH1 0x20 SWAP4 PUSH1 0x1 SWAP2 PUSH1 0x1 DUP2 AND SWAP1 DUP2 PUSH0 EQ PUSH2 0xFB3 JUMPI POP PUSH1 0x1 EQ PUSH2 0xF75 JUMPI JUMPDEST POP POP POP POP POP JUMP JUMPDEST SWAP1 SWAP4 SWAP5 SWAP6 POP PUSH0 SWAP3 SWAP2 SWAP3 MSTORE DUP4 PUSH0 KECCAK256 SWAP3 DUP5 PUSH0 SWAP5 JUMPDEST DUP4 DUP7 LT PUSH2 0xF9F JUMPI POP POP POP POP ADD ADD SWAP1 PUSH0 DUP1 DUP1 DUP1 DUP1 PUSH2 0xF6E JUMP JUMPDEST DUP1 SLOAD DUP6 DUP8 ADD DUP4 ADD MSTORE SWAP5 ADD SWAP4 DUP6 SWAP1 DUP3 ADD PUSH2 0xF87 JUMP JUMPDEST PUSH1 0xFF NOT AND DUP7 DUP6 ADD MSTORE POP POP POP SWAP1 ISZERO ISZERO PUSH1 0x5 SHL ADD ADD SWAP2 POP PUSH0 DUP1 DUP1 DUP1 DUP1 PUSH2 0xF6E JUMP JUMPDEST PUSH2 0xFDB DUP2 PUSH2 0x185B JUMP JUMPDEST SWAP1 PUSH0 MSTORE PUSH1 0xA PUSH1 0x20 MSTORE PUSH2 0x1016 PUSH2 0x101D PUSH1 0x2B PUSH1 0x40 PUSH0 KECCAK256 PUSH1 0x40 MLOAD SWAP1 PUSH11 0x1859D95B9D15D85B1B195D PUSH1 0xAA SHL DUP3 MSTORE PUSH1 0xB DUP3 ADD MSTORE KECCAK256 PUSH1 0x40 MLOAD SWAP3 DUP4 DUP1 SWAP3 PUSH2 0xF41 JUMP JUMPDEST SUB DUP3 PUSH2 0xE20 JUMP JUMPDEST DUP1 MLOAD PUSH1 0x20 DUP2 EQ PUSH2 0x102C JUMPI POP POP SWAP1 JUMP JUMPDEST DUP2 SWAP3 POP SWAP1 PUSH1 0x20 SWAP2 DUP2 ADD SUB SLT PUSH2 0x167 JUMPI PUSH1 0x20 ADD MLOAD PUSH1 0x1 PUSH1 0x1 PUSH1 0xA0 SHL SUB DUP2 AND SWAP1 DUP2 SWAP1 SUB PUSH2 0x167 JUMPI SWAP1 JUMP JUMPDEST PUSH2 0x105D DUP2 PUSH2 0x185B JUMP JUMPDEST POP PUSH0 SWAP1 DUP2 MSTORE PUSH1 0x4 PUSH1 0x20 MSTORE PUSH1 0x40 SWAP1 KECCAK256 SLOAD PUSH1 0x1 PUSH1 0x1 PUSH1 0xA0 SHL SUB AND SWAP1 JUMP JUMPDEST PUSH1 0x1 PUSH1 0x1 PUSH1 0xA0 SHL SUB SWAP2 DUP3 AND SWAP3 SWAP1 SWAP2 DUP4 ISZERO PUSH2 0x127E JUMPI DUP2 PUSH0 MSTORE PUSH1 0x20 SWAP3 PUSH1 0x2 DUP5 MSTORE PUSH1 0x40 SWAP5 DUP3 DUP7 PUSH0 KECCAK256 SLOAD AND SWAP5 CALLER ISZERO ISZERO DUP1 PUSH2 0x11F3 JUMPI JUMPDEST POP DUP6 ISZERO ISZERO DUP1 PUSH2 0x11C2 JUMPI JUMPDEST DUP3 PUSH0 MSTORE PUSH1 0x3 DUP3 MSTORE DUP8 PUSH0 KECCAK256 PUSH1 0x1 DUP2 SLOAD ADD SWAP1 SSTORE DUP6 PUSH0 MSTORE PUSH1 0x2 DUP3 MSTORE DUP8 PUSH0 KECCAK256 DUP4 PUSH1 0x1 PUSH1 0x1 PUSH1 0x60 SHL SUB PUSH1 0xA0 SHL DUP3 SLOAD AND OR SWAP1 SSTORE DUP6 DUP9 MLOAD SWAP4 DUP9 PUSH32 0xDDF252AD1BE2C89B69C2B068FC378DAA952BA7F163C4A11628F55A4DF523B3EF PUSH0 DUP1 LOG4 DUP1 PUSH2 0x11BA JUMPI JUMPDEST PUSH2 0x1146 JUMPI JUMPDEST POP POP AND SWAP3 DUP4 DUP4 SUB PUSH2 0x1125 JUMPI POP POP POP POP JUMP JUMPDEST PUSH1 0x64 SWAP5 POP MLOAD SWAP3 PUSH4 0x64283D7B PUSH1 0xE0 SHL DUP5 MSTORE PUSH1 0x4 DUP5 ADD MSTORE PUSH1 0x24 DUP4 ADD MSTORE PUSH1 0x44 DUP3 ADD MSTORE REVERT JUMPDEST PUSH1 0xA SWAP1 MSTORE PUSH2 0x1171 PUSH1 0x2B DUP8 PUSH0 KECCAK256 SWAP3 PUSH11 0x1859D95B9D15D85B1B195D PUSH1 0xAA SHL SWAP4 DUP5 DUP3 MSTORE PUSH1 0xB DUP3 ADD MSTORE KECCAK256 PUSH2 0x130B JUMP JUMPDEST DUP6 MLOAD MSTORE PUSH32 0x2AC6109326E720D1435C0DB66F7E35EDA7839F52B6F1F5520A60788E132B4E39 DUP4 PUSH0 DUP1 MLOAD PUSH1 0x20 PUSH2 0x1F6D DUP4 CODECOPY DUP2 MLOAD SWAP2 MSTORE DUP8 MLOAD DUP1 PUSH2 0x11B0 DUP2 PUSH2 0x1354 JUMP JUMPDEST SUB SWAP1 LOG3 PUSH0 DUP1 PUSH2 0x1114 JUMP JUMPDEST POP PUSH1 0x1 PUSH2 0x110F JUMP JUMPDEST PUSH0 DUP7 DUP2 MSTORE PUSH1 0x4 PUSH1 0x20 MSTORE PUSH1 0x40 DUP2 KECCAK256 DUP1 SLOAD PUSH1 0x1 PUSH1 0x1 PUSH1 0xA0 SHL SUB NOT AND SWAP1 SSTORE DUP8 DUP2 MSTORE PUSH1 0x3 DUP4 MSTORE DUP9 SWAP1 KECCAK256 DUP1 SLOAD PUSH0 NOT ADD SWAP1 SSTORE PUSH2 0x10B3 JUMP JUMPDEST DUP1 PUSH2 0x123D JUMPI JUMPDEST ISZERO PUSH2 0x1204 JUMPI PUSH0 PUSH2 0x10A9 JUMP JUMPDEST DUP7 DUP6 DUP8 PUSH2 0x1221 JUMPI PUSH1 0x24 SWAP2 MLOAD SWAP1 PUSH4 0x7E273289 PUSH1 0xE0 SHL DUP3 MSTORE PUSH1 0x4 DUP3 ADD MSTORE REVERT JUMPDEST PUSH1 0x44 SWAP2 MLOAD SWAP1 PUSH4 0x177E802F PUSH1 0xE0 SHL DUP3 MSTORE CALLER PUSH1 0x4 DUP4 ADD MSTORE PUSH1 0x24 DUP3 ADD MSTORE REVERT JUMPDEST POP CALLER DUP7 EQ DUP1 ISZERO PUSH2 0x1262 JUMPI JUMPDEST DUP1 PUSH2 0x11F9 JUMPI POP DUP5 PUSH0 MSTORE PUSH1 0x4 DUP2 MSTORE CALLER DUP5 DUP9 PUSH0 KECCAK256 SLOAD AND EQ PUSH2 0x11F9 JUMP JUMPDEST POP DUP6 PUSH0 MSTORE PUSH1 0x5 DUP2 MSTORE DUP7 PUSH0 KECCAK256 CALLER PUSH0 MSTORE DUP2 MSTORE PUSH1 0xFF DUP8 PUSH0 KECCAK256 SLOAD AND PUSH2 0x1248 JUMP JUMPDEST PUSH1 0x40 MLOAD PUSH4 0x32505749 PUSH1 0xE1 SHL DUP2 MSTORE PUSH0 PUSH1 0x4 DUP3 ADD MSTORE PUSH1 0x24 SWAP1 REVERT JUMPDEST ISZERO PUSH2 0x129D JUMPI JUMP JUMPDEST PUSH1 0x40 MLOAD PUSH3 0x461BCD PUSH1 0xE5 SHL DUP2 MSTORE PUSH1 0x20 PUSH1 0x4 DUP3 ADD MSTORE PUSH1 0x9 PUSH1 0x24 DUP3 ADD MSTORE PUSH9 0x2737BA1037BBB732B9 PUSH1 0xB9 SHL PUSH1 0x44 DUP3 ADD MSTORE PUSH1 0x64 SWAP1 REVERT JUMPDEST PUSH1 0x40 MLOAD SWAP1 PUSH2 0x12DB DUP3 PUSH2 0xDD6 JUMP JUMPDEST PUSH1 0xB DUP3 MSTORE PUSH11 0x1859D95B9D15D85B1B195D PUSH1 0xAA SHL PUSH1 0x20 DUP4 ADD MSTORE JUMP JUMPDEST DUP2 DUP2 LT PUSH2 0x1300 JUMPI POP POP JUMP JUMPDEST PUSH0 DUP2 SSTORE PUSH1 0x1 ADD PUSH2 0x12F5 JUMP JUMPDEST PUSH2 0x1315 DUP2 SLOAD PUSH2 0xF09 JUMP JUMPDEST SWAP1 DUP2 PUSH2 0x131F JUMPI POP POP JUMP JUMPDEST DUP2 PUSH1 0x1F PUSH0 SWAP4 GT PUSH1 0x1 EQ PUSH2 0x1331 JUMPI POP SSTORE JUMPDEST JUMP JUMPDEST SWAP1 DUP1 DUP4 SWAP2 DUP3 MSTORE PUSH2 0x1350 PUSH1 0x1F PUSH1 0x20 DUP5 KECCAK256 SWAP5 ADD PUSH1 0x5 SHR DUP5 ADD PUSH1 0x1 DUP6 ADD PUSH2 0x12F5 JUMP JUMPDEST SSTORE SSTORE JUMP JUMPDEST PUSH1 0xA0 SWAP1 PUSH1 0x40 DUP2 MSTORE PUSH1 0xB PUSH1 0x40 DUP3 ADD MSTORE PUSH11 0x1859D95B9D15D85B1B195D PUSH1 0xAA SHL PUSH1 0x60 DUP3 ADD MSTORE PUSH1 0x80 PUSH1 0x20 DUP3 ADD MSTORE PUSH0 PUSH1 0x80 DUP3 ADD MSTORE ADD SWAP1 JUMP JUMPDEST DUP1 MLOAD DUP3 LT ISZERO PUSH2 0x139B JUMPI PUSH1 0x20 SWAP2 PUSH1 0x5 SHL ADD ADD SWAP1 JUMP JUMPDEST PUSH4 0x4E487B71 PUSH1 0xE0 SHL PUSH0 MSTORE PUSH1 0x32 PUSH1 0x4 MSTORE PUSH1 0x24 PUSH0 REVERT JUMPDEST PUSH1 0x9 SLOAD PUSH0 NOT SWAP4 SWAP3 SWAP2 DUP5 DUP3 EQ PUSH2 0x1647 JUMPI PUSH1 0x1 SWAP5 PUSH1 0x1 DUP4 ADD PUSH1 0x9 SSTORE DUP3 SWAP6 CALLER ISZERO PUSH2 0x127E JUMPI DUP4 PUSH0 MSTORE PUSH1 0x20 SWAP5 PUSH1 0x2 DUP7 MSTORE PUSH1 0x40 SWAP3 PUSH1 0x1 DUP1 PUSH1 0xA0 SHL SUB DUP5 PUSH0 KECCAK256 SLOAD AND DUP1 ISZERO ISZERO SWAP2 DUP3 PUSH2 0x1616 JUMPI JUMPDEST POP CALLER PUSH0 MSTORE PUSH1 0x3 DUP9 MSTORE DUP5 PUSH0 KECCAK256 PUSH1 0x1 DUP2 SLOAD ADD SWAP1 SSTORE DUP7 PUSH0 MSTORE PUSH1 0x2 DUP9 MSTORE DUP5 PUSH0 KECCAK256 CALLER PUSH1 0x1 PUSH1 0x1 PUSH1 0x60 SHL SUB PUSH1 0xA0 SHL DUP3 SLOAD AND OR SWAP1 SSTORE DUP7 DUP6 MLOAD SWAP2 CALLER SWAP1 PUSH32 0xDDF252AD1BE2C89B69C2B068FC378DAA952BA7F163C4A11628F55A4DF523B3EF PUSH0 DUP1 LOG4 DUP2 DUP1 PUSH2 0x160E JUMPI JUMPDEST PUSH2 0x159B JUMPI JUMPDEST POP PUSH2 0x1584 JUMPI PUSH2 0x1466 DUP5 DUP7 PUSH2 0x18D8 JUMP JUMPDEST PUSH2 0x148A DUP4 MLOAD CALLER DUP9 DUP3 ADD MSTORE DUP8 DUP2 MSTORE PUSH2 0x147C DUP2 PUSH2 0xDD6 JUMP JUMPDEST PUSH2 0x1484 PUSH2 0x12CE JUMP JUMPDEST DUP8 PUSH2 0x19FA JUMP JUMPDEST PUSH0 DUP3 JUMPDEST PUSH2 0x14D1 JUMPI JUMPDEST POP POP POP PUSH32 0xCA52E62C367D81BB2E328EB795F7C7BA24AFB478408A26C0E201D155C449BC4A SWAP2 PUSH2 0x14CC SWAP2 MLOAD SWAP2 DUP3 SWAP2 DUP7 DUP4 MSTORE CALLER SWAP7 DUP4 ADD SWAP1 PUSH2 0xD86 JUMP JUMPDEST SUB SWAP1 LOG3 JUMP JUMPDEST DUP2 MLOAD DUP2 LT ISZERO PUSH2 0x157F JUMPI PUSH2 0x14E4 DUP2 DUP4 PUSH2 0x1387 JUMP JUMPDEST MLOAD MLOAD DUP8 DUP2 MLOAD SWAP2 ADD KECCAK256 PUSH2 0x14F4 PUSH2 0x12CE JUMP JUMPDEST DUP9 DUP2 MLOAD SWAP2 ADD KECCAK256 EQ PUSH2 0x152F JUMPI SWAP1 DUP3 DUP3 PUSH2 0x1527 PUSH2 0x1510 DUP4 SWAP6 DUP6 PUSH2 0x1387 JUMP JUMPDEST MLOAD MLOAD DUP11 PUSH2 0x151D DUP5 DUP8 PUSH2 0x1387 JUMP JUMPDEST MLOAD ADD MLOAD SWAP1 DUP11 PUSH2 0x19FA JUMP JUMPDEST ADD SWAP1 SWAP2 PUSH2 0x148D JUMP JUMPDEST DUP4 MLOAD PUSH3 0x461BCD PUSH1 0xE5 SHL DUP2 MSTORE PUSH1 0x4 DUP2 ADD DUP9 SWAP1 MSTORE PUSH1 0x23 PUSH1 0x24 DUP3 ADD MSTORE PUSH32 0x43616E6E6F7420736574206167656E7457616C6C657420766961206D65746164 PUSH1 0x44 DUP3 ADD MSTORE PUSH3 0x617461 PUSH1 0xE8 SHL PUSH1 0x64 DUP3 ADD MSTORE PUSH1 0x84 SWAP1 REVERT JUMPDEST PUSH2 0x1492 JUMP JUMPDEST DUP3 MLOAD PUSH4 0x39E35637 PUSH1 0xE1 SHL DUP2 MSTORE PUSH0 PUSH1 0x4 DUP3 ADD MSTORE PUSH1 0x24 SWAP1 REVERT JUMPDEST PUSH1 0xA DUP9 MSTORE PUSH2 0x15C6 PUSH1 0x2B DUP7 PUSH0 KECCAK256 SWAP3 PUSH11 0x1859D95B9D15D85B1B195D PUSH1 0xAA SHL SWAP4 DUP5 DUP3 MSTORE PUSH1 0xB DUP3 ADD MSTORE KECCAK256 PUSH2 0x130B JUMP JUMPDEST DUP5 MLOAD MSTORE PUSH32 0x2AC6109326E720D1435C0DB66F7E35EDA7839F52B6F1F5520A60788E132B4E39 DUP7 PUSH0 DUP1 MLOAD PUSH1 0x20 PUSH2 0x1F6D DUP4 CODECOPY DUP2 MLOAD SWAP2 MSTORE DUP7 MLOAD DUP1 PUSH2 0x1605 DUP2 PUSH2 0x1354 JUMP JUMPDEST SUB SWAP1 LOG3 PUSH0 PUSH2 0x1457 JUMP JUMPDEST POP PUSH1 0x1 PUSH2 0x1452 JUMP JUMPDEST PUSH0 DUP9 DUP2 MSTORE PUSH1 0x4 PUSH1 0x20 MSTORE PUSH1 0x40 SWAP1 KECCAK256 DUP1 SLOAD PUSH1 0x1 PUSH1 0x1 PUSH1 0xA0 SHL SUB NOT AND SWAP1 SSTORE DUP2 PUSH0 MSTORE PUSH1 0x3 DUP10 MSTORE DUP6 PUSH0 KECCAK256 SWAP1 DUP2 SLOAD ADD SWAP1 SSTORE PUSH0 PUSH2 0x13F3 JUMP JUMPDEST PUSH4 0x4E487B71 PUSH1 0xE0 SHL PUSH0 MSTORE PUSH1 0x11 PUSH1 0x4 MSTORE PUSH1 0x24 PUSH0 REVERT JUMPDEST SWAP2 SWAP3 PUSH2 0x1668 DUP5 DUP4 DUP6 PUSH2 0x1078 JUMP JUMPDEST DUP2 EXTCODESIZE PUSH2 0x1675 JUMPI JUMPDEST POP POP POP POP JUMP JUMPDEST PUSH1 0x40 MLOAD PUSH4 0xA85BD01 PUSH1 0xE1 SHL DUP1 DUP3 MSTORE CALLER PUSH1 0x4 DUP4 ADD MSTORE PUSH1 0x1 PUSH1 0x1 PUSH1 0xA0 SHL SUB SWAP5 DUP6 AND PUSH1 0x24 DUP4 ADD MSTORE PUSH1 0x44 DUP3 ADD SWAP6 SWAP1 SWAP6 MSTORE PUSH1 0x80 PUSH1 0x64 DUP3 ADD MSTORE PUSH1 0x20 SWAP6 SWAP4 SWAP1 SWAP3 AND SWAP4 SWAP2 SWAP1 DUP6 SWAP1 DUP3 SWAP1 DUP2 SWAP1 PUSH2 0x16C6 SWAP1 PUSH1 0x84 DUP4 ADD SWAP1 PUSH2 0xD86 JUMP JUMPDEST SUB DUP2 PUSH0 DUP9 GAS CALL PUSH0 SWAP2 DUP2 PUSH2 0x1769 JUMPI JUMPDEST POP PUSH2 0x1733 JUMPI POP POP POP RETURNDATASIZE PUSH0 EQ PUSH2 0x172B JUMPI RETURNDATASIZE SWAP2 PUSH2 0x16EE DUP4 PUSH2 0xE41 JUMP JUMPDEST SWAP3 PUSH2 0x16FC PUSH1 0x40 MLOAD SWAP5 DUP6 PUSH2 0xE20 JUMP JUMPDEST DUP4 MSTORE RETURNDATASIZE PUSH0 DUP3 DUP6 ADD RETURNDATACOPY JUMPDEST DUP3 MLOAD SWAP3 DUP4 PUSH2 0x1726 JUMPI PUSH1 0x40 MLOAD PUSH4 0x32505749 PUSH1 0xE1 SHL DUP2 MSTORE PUSH1 0x4 DUP2 ADD DUP5 SWAP1 MSTORE PUSH1 0x24 SWAP1 REVERT JUMPDEST ADD SWAP1 POP REVERT JUMPDEST PUSH1 0x60 SWAP2 PUSH2 0x1705 JUMP JUMPDEST SWAP2 SWAP4 POP PUSH1 0x1 PUSH1 0x1 PUSH1 0xE0 SHL SUB NOT SWAP1 SWAP2 AND SUB PUSH2 0x1751 JUMPI POP PUSH0 DUP1 DUP1 DUP1 PUSH2 0x166F JUMP JUMPDEST PUSH1 0x24 SWAP1 PUSH1 0x40 MLOAD SWAP1 PUSH4 0x32505749 PUSH1 0xE1 SHL DUP3 MSTORE PUSH1 0x4 DUP3 ADD MSTORE REVERT JUMPDEST SWAP1 SWAP2 POP DUP6 DUP2 DUP2 RETURNDATASIZE DUP4 GT PUSH2 0x17A2 JUMPI JUMPDEST PUSH2 0x1781 DUP2 DUP4 PUSH2 0xE20 JUMP JUMPDEST DUP2 ADD SUB SLT PUSH2 0x167 JUMPI MLOAD PUSH1 0x1 PUSH1 0x1 PUSH1 0xE0 SHL SUB NOT DUP2 AND DUP2 SUB PUSH2 0x167 JUMPI SWAP1 PUSH0 PUSH2 0x16D4 JUMP JUMPDEST POP RETURNDATASIZE PUSH2 0x1777 JUMP JUMPDEST PUSH2 0x17B2 DUP2 PUSH2 0x185B JUMP JUMPDEST POP PUSH1 0x40 SWAP1 DUP2 MLOAD PUSH2 0x17C1 DUP2 PUSH2 0xE05 JUMP JUMPDEST PUSH0 DUP2 MSTORE DUP2 PUSH0 MSTORE PUSH1 0x20 SWAP1 PUSH1 0x6 DUP3 MSTORE PUSH2 0x1016 PUSH2 0x17E2 DUP6 PUSH0 KECCAK256 DUP7 MLOAD SWAP3 DUP4 DUP1 SWAP3 PUSH2 0xF41 JUMP JUMPDEST DUP2 MLOAD DUP1 ISZERO PUSH2 0x1852 JUMPI DUP2 MLOAD PUSH2 0x181B JUMPI POP POP POP POP PUSH2 0x17FD SWAP1 PUSH2 0x185B JUMP JUMPDEST POP PUSH0 DUP2 MLOAD PUSH2 0x180A DUP2 PUSH2 0xE05 JUMP JUMPDEST MSTORE MLOAD PUSH2 0x1815 DUP2 PUSH2 0xE05 JUMP JUMPDEST PUSH0 DUP2 MSTORE SWAP1 JUMP JUMPDEST PUSH2 0xED1 SWAP5 POP SWAP1 DUP2 DUP5 SWAP7 SWAP3 DUP6 SWAP4 MLOAD SWAP8 DUP9 SWAP6 ADD DUP5 DUP7 ADD MCOPY DUP4 ADD SWAP1 DUP3 DUP3 ADD PUSH0 DUP2 MSTORE DUP2 MLOAD SWAP4 DUP5 SWAP3 ADD SWAP1 MCOPY ADD PUSH0 DUP4 DUP3 ADD MSTORE SUB DUP1 DUP5 MSTORE ADD DUP3 PUSH2 0xE20 JUMP JUMPDEST POP SWAP4 POP POP POP POP SWAP1 JUMP JUMPDEST PUSH0 DUP2 DUP2 MSTORE PUSH1 0x2 PUSH1 0x20 MSTORE PUSH1 0x40 SWAP1 KECCAK256 SLOAD PUSH1 0x1 PUSH1 0x1 PUSH1 0xA0 SHL SUB AND SWAP1 DUP2 ISZERO PUSH2 0x187D JUMPI POP SWAP1 JUMP JUMPDEST PUSH1 0x24 SWAP1 PUSH1 0x40 MLOAD SWAP1 PUSH4 0x7E273289 PUSH1 0xE0 SHL DUP3 MSTORE PUSH1 0x4 DUP3 ADD MSTORE REVERT JUMPDEST SWAP2 SWAP1 PUSH1 0x1F DUP2 GT PUSH2 0x18A4 JUMPI POP POP POP JUMP JUMPDEST PUSH2 0x132F SWAP3 PUSH0 MSTORE PUSH1 0x20 PUSH0 KECCAK256 SWAP1 PUSH1 0x20 PUSH1 0x1F DUP5 ADD PUSH1 0x5 SHR DUP4 ADD SWAP4 LT PUSH2 0x18CE JUMPI JUMPDEST PUSH1 0x1F ADD PUSH1 0x5 SHR ADD SWAP1 PUSH2 0x12F5 JUMP JUMPDEST SWAP1 SWAP2 POP DUP2 SWAP1 PUSH2 0x18C1 JUMP JUMPDEST SWAP2 SWAP1 SWAP2 DUP1 PUSH0 MSTORE PUSH1 0x20 SWAP1 PUSH1 0x6 DUP3 MSTORE PUSH1 0x40 PUSH0 KECCAK256 DUP5 MLOAD SWAP5 PUSH1 0x1 PUSH1 0x1 PUSH1 0x40 SHL SUB DUP7 GT PUSH2 0xDF1 JUMPI PUSH2 0x190E DUP7 PUSH2 0x1908 DUP5 SLOAD PUSH2 0xF09 JUMP JUMPDEST DUP5 PUSH2 0x1895 JUMP JUMPDEST DUP4 SWAP1 PUSH1 0x1F DUP8 GT PUSH1 0x1 EQ PUSH2 0x1976 JUMPI SWAP6 DUP1 PUSH2 0x195F SWAP3 PUSH32 0xF8E1A15ABA9398E019F0B49DF1A4FDE98EE17AE345CB5F6B5E2C27F5033E8CE7 SWAP8 SWAP9 PUSH0 SWAP3 PUSH2 0x196B JUMPI JUMPDEST POP POP DUP2 PUSH1 0x1 SHL SWAP2 PUSH0 NOT SWAP1 PUSH1 0x3 SHL SHR NOT AND OR SWAP1 JUMP JUMPDEST SWAP1 SSTORE JUMPDEST PUSH1 0x40 MLOAD SWAP1 DUP2 MSTORE LOG1 JUMP JUMPDEST ADD MLOAD SWAP1 POP PUSH0 DUP1 PUSH2 0x194B JUMP JUMPDEST SWAP1 PUSH1 0x1F NOT DUP8 AND SWAP2 DUP4 PUSH0 MSTORE DUP6 PUSH0 KECCAK256 SWAP3 PUSH0 JUMPDEST DUP2 DUP2 LT PUSH2 0x19E3 JUMPI POP SWAP2 PUSH1 0x1 SWAP4 SWAP2 DUP10 PUSH32 0xF8E1A15ABA9398E019F0B49DF1A4FDE98EE17AE345CB5F6B5E2C27F5033E8CE7 SWAP10 SWAP11 SWAP5 LT PUSH2 0x19CB JUMPI JUMPDEST POP POP POP DUP2 SHL ADD SWAP1 SSTORE PUSH2 0x1962 JUMP JUMPDEST ADD MLOAD PUSH0 NOT PUSH1 0xF8 DUP5 PUSH1 0x3 SHL AND SHR NOT AND SWAP1 SSTORE PUSH0 DUP1 DUP1 PUSH2 0x19BE JUMP JUMPDEST SWAP3 SWAP4 DUP8 PUSH1 0x1 DUP2 SWAP3 DUP8 DUP7 ADD MLOAD DUP2 SSTORE ADD SWAP6 ADD SWAP4 ADD PUSH2 0x1986 JUMP JUMPDEST SWAP3 SWAP2 SWAP1 SWAP3 DUP1 PUSH0 MSTORE PUSH1 0x20 SWAP4 PUSH1 0xA DUP6 MSTORE PUSH1 0x40 DUP1 PUSH0 KECCAK256 DUP2 MLOAD DUP8 DUP2 DUP6 MLOAD SWAP4 DUP3 DUP8 ADD SWAP5 DUP1 DUP7 DUP5 MCOPY DUP3 ADD SWAP1 DUP2 MSTORE SUB ADD SWAP1 KECCAK256 DUP6 MLOAD PUSH1 0x1 PUSH1 0x1 PUSH1 0x40 SHL SUB DUP2 GT PUSH2 0xDF1 JUMPI PUSH2 0x1A43 DUP2 PUSH2 0x1908 DUP5 SLOAD PUSH2 0xF09 JUMP JUMPDEST DUP9 PUSH1 0x1F DUP3 GT PUSH1 0x1 EQ PUSH2 0x1AC7 JUMPI SWAP2 PUSH2 0x1A86 DUP3 PUSH2 0x14CC SWAP6 SWAP4 PUSH0 DUP1 MLOAD PUSH1 0x20 PUSH2 0x1F6D DUP4 CODECOPY DUP2 MLOAD SWAP2 MSTORE SWAP10 SWAP11 SWAP12 SWAP13 SWAP6 PUSH0 SWAP2 PUSH2 0x1ABC JUMPI JUMPDEST POP DUP2 PUSH1 0x1 SHL SWAP2 PUSH0 NOT SWAP1 PUSH1 0x3 SHL SHR NOT AND OR SWAP1 JUMP JUMPDEST SWAP1 SSTORE JUMPDEST DUP4 MLOAD DUP1 SWAP2 DUP7 MLOAD DUP1 SWAP2 DUP4 MCOPY DUP2 ADD PUSH0 DUP2 MSTORE SUB SWAP1 KECCAK256 SWAP7 PUSH2 0x1AAF DUP5 MLOAD SWAP6 DUP6 DUP8 SWAP7 DUP8 MSTORE DUP7 ADD SWAP1 PUSH2 0xD86 JUMP JUMPDEST SWAP2 DUP5 DUP4 SUB SWAP1 DUP6 ADD MSTORE PUSH2 0xD86 JUMP JUMPDEST SWAP1 POP DUP12 ADD MLOAD PUSH0 PUSH2 0x1A73 JUMP JUMPDEST PUSH1 0x1F NOT DUP3 AND SWAP1 DUP4 PUSH0 MSTORE DUP11 PUSH0 KECCAK256 SWAP2 PUSH0 JUMPDEST DUP2 DUP2 LT PUSH2 0x1B26 JUMPI POP SWAP3 PUSH0 DUP1 MLOAD PUSH1 0x20 PUSH2 0x1F6D DUP4 CODECOPY DUP2 MLOAD SWAP2 MSTORE SWAP9 SWAP10 SWAP11 SWAP12 SWAP5 SWAP3 PUSH1 0x1 SWAP3 DUP3 PUSH2 0x14CC SWAP9 SWAP7 LT PUSH2 0x1B0E JUMPI JUMPDEST POP POP DUP2 SHL ADD SWAP1 SSTORE PUSH2 0x1A89 JUMP JUMPDEST DUP13 ADD MLOAD PUSH0 NOT PUSH1 0xF8 DUP5 PUSH1 0x3 SHL AND SHR NOT AND SWAP1 SSTORE PUSH0 DUP1 PUSH2 0x1B02 JUMP JUMPDEST SWAP2 SWAP3 DUP13 PUSH1 0x1 DUP2 SWAP3 DUP7 DUP15 ADD MLOAD DUP2 SSTORE ADD SWAP5 ADD SWAP3 ADD PUSH2 0x1AD6 JUMP JUMPDEST ADDRESS PUSH32 0x0 PUSH1 0x1 PUSH1 0x1 PUSH1 0xA0 SHL SUB AND EQ DUP1 PUSH2 0x1C3E JUMPI JUMPDEST ISZERO PUSH2 0x1B98 JUMPI PUSH32 0x0 SWAP1 JUMP JUMPDEST PUSH1 0x40 MLOAD PUSH1 0x20 DUP2 ADD SWAP1 PUSH32 0x8B73C3C69BB8FE3D512ECC4CF759CC79239F7B179B0FFACAA9A75D522B39400F DUP3 MSTORE PUSH32 0x0 PUSH1 0x40 DUP3 ADD MSTORE PUSH32 0x0 PUSH1 0x60 DUP3 ADD MSTORE CHAINID PUSH1 0x80 DUP3 ADD MSTORE ADDRESS PUSH1 0xA0 DUP3 ADD MSTORE PUSH1 0xA0 DUP2 MSTORE PUSH1 0xC0 DUP2 ADD DUP2 DUP2 LT PUSH1 0x1 PUSH1 0x1 PUSH1 0x40 SHL SUB DUP3 GT OR PUSH2 0xDF1 JUMPI PUSH1 0x40 MSTORE MLOAD SWAP1 KECCAK256 SWAP1 JUMP JUMPDEST POP PUSH32 0x0 CHAINID EQ PUSH2 0x1B6F JUMP JUMPDEST DUP2 MLOAD SWAP2 SWAP1 PUSH1 0x41 DUP4 SUB PUSH2 0x1C97 JUMPI PUSH2 0x1C90 SWAP3 POP PUSH1 0x20 DUP3 ADD MLOAD SWAP1 PUSH1 0x60 PUSH1 0x40 DUP5 ADD MLOAD SWAP4 ADD MLOAD PUSH0 BYTE SWAP1 PUSH2 0x1EDF JUMP JUMPDEST SWAP2 SWAP3 SWAP1 SWAP2 SWAP1 JUMP JUMPDEST POP POP PUSH0 SWAP2 PUSH1 0x2 SWAP2 SWAP1 JUMP JUMPDEST PUSH1 0x4 DUP2 LT ISZERO PUSH2 0x1D10 JUMPI DUP1 PUSH2 0x1CB3 JUMPI POP POP JUMP JUMPDEST PUSH1 0x1 DUP2 SUB PUSH2 0x1CCD JUMPI PUSH1 0x40 MLOAD PUSH4 0xF645EEDF PUSH1 0xE0 SHL DUP2 MSTORE PUSH1 0x4 SWAP1 REVERT JUMPDEST PUSH1 0x2 DUP2 SUB PUSH2 0x1CEE JUMPI PUSH1 0x40 MLOAD PUSH4 0xFCE698F7 PUSH1 0xE0 SHL DUP2 MSTORE PUSH1 0x4 DUP2 ADD DUP4 SWAP1 MSTORE PUSH1 0x24 SWAP1 REVERT JUMPDEST PUSH1 0x3 EQ PUSH2 0x1CF8 JUMPI POP JUMP JUMPDEST PUSH1 0x24 SWAP1 PUSH1 0x40 MLOAD SWAP1 PUSH4 0x35E2F383 PUSH1 0xE2 SHL DUP3 MSTORE PUSH1 0x4 DUP3 ADD MSTORE REVERT JUMPDEST PUSH4 0x4E487B71 PUSH1 0xE0 SHL PUSH0 MSTORE PUSH1 0x21 PUSH1 0x4 MSTORE PUSH1 0x24 PUSH0 REVERT JUMPDEST PUSH1 0xFF DUP2 EQ PUSH2 0x1D62 JUMPI PUSH1 0xFF DUP2 AND SWAP1 PUSH1 0x1F DUP3 GT PUSH2 0x1D50 JUMPI PUSH1 0x40 MLOAD SWAP2 PUSH2 0x1D46 DUP4 PUSH2 0xDD6 JUMP JUMPDEST DUP3 MSTORE PUSH1 0x20 DUP3 ADD MSTORE SWAP1 JUMP JUMPDEST PUSH1 0x40 MLOAD PUSH4 0x2CD44AC3 PUSH1 0xE2 SHL DUP2 MSTORE PUSH1 0x4 SWAP1 REVERT JUMPDEST POP PUSH1 0x40 MLOAD PUSH1 0x7 SLOAD DUP2 PUSH0 PUSH2 0x1D74 DUP4 PUSH2 0xF09 JUMP JUMPDEST DUP1 DUP4 MSTORE SWAP3 PUSH1 0x20 SWAP1 PUSH1 0x1 SWAP1 DUP2 DUP2 AND SWAP1 DUP2 ISZERO PUSH2 0x1DFE JUMPI POP PUSH1 0x1 EQ PUSH2 0x1D9F JUMPI JUMPDEST POP POP PUSH2 0xED1 SWAP3 POP SUB DUP3 PUSH2 0xE20 JUMP JUMPDEST SWAP2 POP SWAP3 PUSH1 0x7 PUSH0 MSTORE PUSH32 0xA66CC928B5EDB82AF9BD49922954155AB7B0942694BEA4CE44661D9A8736C688 SWAP4 PUSH0 SWAP3 JUMPDEST DUP3 DUP5 LT PUSH2 0x1DE6 JUMPI POP PUSH2 0xED1 SWAP5 POP POP POP DUP2 ADD PUSH1 0x20 ADD PUSH0 DUP1 PUSH2 0x1D91 JUMP JUMPDEST DUP6 SLOAD DUP8 DUP6 ADD DUP4 ADD MSTORE SWAP5 DUP6 ADD SWAP5 DUP7 SWAP5 POP SWAP3 DUP2 ADD SWAP3 PUSH2 0x1DCB JUMP JUMPDEST SWAP2 POP POP PUSH1 0x20 SWAP3 POP PUSH2 0xED1 SWAP5 SWAP2 POP PUSH1 0xFF NOT AND DUP3 DUP5 ADD MSTORE ISZERO ISZERO PUSH1 0x5 SHL DUP3 ADD ADD PUSH0 DUP1 PUSH2 0x1D91 JUMP JUMPDEST PUSH1 0xFF DUP2 EQ PUSH2 0x1E44 JUMPI PUSH1 0xFF DUP2 AND SWAP1 PUSH1 0x1F DUP3 GT PUSH2 0x1D50 JUMPI PUSH1 0x40 MLOAD SWAP2 PUSH2 0x1D46 DUP4 PUSH2 0xDD6 JUMP JUMPDEST POP PUSH1 0x40 MLOAD PUSH1 0x8 SLOAD DUP2 PUSH0 PUSH2 0x1E56 DUP4 PUSH2 0xF09 JUMP JUMPDEST DUP1 DUP4 MSTORE SWAP3 PUSH1 0x20 SWAP1 PUSH1 0x1 SWAP1 DUP2 DUP2 AND SWAP1 DUP2 ISZERO PUSH2 0x1DFE JUMPI POP PUSH1 0x1 EQ PUSH2 0x1E80 JUMPI POP POP PUSH2 0xED1 SWAP3 POP SUB DUP3 PUSH2 0xE20 JUMP JUMPDEST SWAP2 POP SWAP3 PUSH1 0x8 PUSH0 MSTORE PUSH32 0xF3F7A9FE364FAAB93B216DA50A3214154F22A0A2B415B23A84C8169E8B636EE3 SWAP4 PUSH0 SWAP3 JUMPDEST DUP3 DUP5 LT PUSH2 0x1EC7 JUMPI POP PUSH2 0xED1 SWAP5 POP POP POP DUP2 ADD PUSH1 0x20 ADD PUSH0 DUP1 PUSH2 0x1D91 JUMP JUMPDEST DUP6 SLOAD DUP8 DUP6 ADD DUP4 ADD MSTORE SWAP5 DUP6 ADD SWAP5 DUP7 SWAP5 POP SWAP3 DUP2 ADD SWAP3 PUSH2 0x1EAC JUMP JUMPDEST SWAP2 SWAP1 PUSH32 0x7FFFFFFFFFFFFFFFFFFFFFFFFFFFFFFF5D576E7357A4501DDFE92F46681B20A0 DUP5 GT PUSH2 0x1F61 JUMPI SWAP2 PUSH1 0x20 SWAP4 PUSH1 0x80 SWAP3 PUSH1 0xFF PUSH0 SWAP6 PUSH1 0x40 MLOAD SWAP5 DUP6 MSTORE AND DUP7 DUP5 ADD MSTORE PUSH1 0x40 DUP4 ADD MSTORE PUSH1 0x60 DUP3 ADD MSTORE DUP3 DUP1 MSTORE PUSH1 0x1 GAS STATICCALL ISZERO PUSH2 0x1F56 JUMPI PUSH0 MLOAD PUSH1 0x1 PUSH1 0x1 PUSH1 0xA0 SHL SUB DUP2 AND ISZERO PUSH2 0x1F4C JUMPI SWAP1 PUSH0 SWAP1 PUSH0 SWAP1 JUMP JUMPDEST POP PUSH0 SWAP1 PUSH1 0x1 SWAP1 PUSH0 SWAP1 JUMP JUMPDEST PUSH1 0x40 MLOAD RETURNDATASIZE PUSH0 DUP3 RETURNDATACOPY RETURNDATASIZE SWAP1 REVERT JUMPDEST POP POP POP PUSH0 SWAP2 PUSH1 0x3 SWAP2 SWAP1 JUMP INVALID 0x2C EQ SWAP15 0xD5 BASEFEE 0xC6 0xD2 SWAP10 EXTCODECOPY 0xD7 RETURNDATACOPY INVALID XOR PUSH30 0xF6ECCABE4538091B33ADBD25FAFDB8A1468BA26469706673582212203CC1 DUP7 DUP10 0x4C PUSH6 0x9A62A52AEA65 0xD4 0xE5 0xEB SUB 0x2E 0xBF COINBASE SWAP12 PUSH19 0x4B4210D42527EFD26BAB464736F6C63430008 NOT STOP CALLER "},"methodIdentifiers":{"approve(address,uint256)":"095ea7b3","balanceOf(address)":"70a08231","eip712Domain()":"84b0196e","getAgentWallet(uint256)":"00339509","getApproved(uint256)":"081812fc","getMetadata(uint256,string)":"cb4799f2","isApprovedForAll(address,address)":"e985e9c5","name()":"06fdde03","ownerOf(uint256)":"6352211e","register()":"1aa3a008","register(string)":"f2c298be","register(string,(string,bytes)[])":"8ea42286","safeTransferFrom(address,address,uint256)":"42842e0e","safeTransferFrom(address,address,uint256,bytes)":"b88d4fde","setAgentURI(uint256,string)":"0af28bd3","setAgentWallet(uint256,address,uint256,bytes)":"2d1ef5ae","setApprovalForAll(address,bool)":"a22cb465","setMetadata(uint256,string,bytes)":"466648da","supportsInterface(bytes4)":"01ffc9a7","symbol()":"95d89b41","tokenURI(uint256)":"c87b56dd","transferFrom(address,address,uint256)":"23b872dd","unsetAgentWallet(uint256)":"3fddcf19"}}}}}