{
  "_format": "hh-sol-artifact-1",
  "contractName": "ReputationRegistry",
  "sourceName": "contracts/ReputationRegistry.sol",
  "abi": [
    {
      "inputs": [
        {
          "internalType": "address",
          "name": "identityRegistry_",
          "type": "address"
        }
      ],
      "stateMutability": "nonpayable",
      "type": "constructor"
    },
    {
      "anonymous": false,
      "inputs": [
        {
          "indexed": true,
          "internalType": "uint256",
          "name": "agentId",
          "type": "uint256"
        },
        {
          "indexed": true,
          "internalType": "address",
          "name": "clientAddress",
          "type": "address"
        },
        {
          "indexed": false,
          "internalType": "uint64",
          "name": "feedbackIndex",
          "type": "uint64"
        }
      ],
      "name": "FeedbackRevoked",
      "type": "event"
    },
    {
      "anonymous": false,
      "inputs": [
        {
          "indexed": true,
          "internalType": "uint256",
          "name": "agentId",
          "type": "uint256"
        },
        {
          "indexed": true,
          "internalType": "address",
          "name": "clientAddress",
          "type": "address"
        },
        {
          "indexed": false,
          "internalType": "uint64",
          "name": "feedbackIndex",
          "type": "uint64"
        },
        {
          "indexed": false,
          "internalType": "int128",
          "name": "value",
          "type": "int128"
        },
        {
          "indexed": false,
          "internalType": "uint8",
          "name": "valueDecimals",
          "type": "uint8"
        },
        {
          "indexed": true,
          "internalType": "string",
          "name": "indexedTag1",
          "type": "string"
        },
        {
          "indexed": false,
          "internalType": "string",
          "name": "tag1",
          "type": "string"
        },
        {
          "indexed": false,
          "internalType": "string",
          "name": "tag2",
          "type": "string"
        },
        {
          "indexed": false,
          "internalType": "string",
          "name": "endpoint",
          "type": "string"
        },
        {
          "indexed": false,
          "internalType": "string",
          "name": "feedbackURI",
          "type": "string"
        },
        {
          "indexed": false,
          "internalType": "bytes32",
          "name": "feedbackHash",
          "type": "bytes32"
        }
      ],
      "name": "NewFeedback",
      "type": "event"
    },
    {
      "anonymous": false,
      "inputs": [
        {
          "indexed": true,
          "internalType": "uint256",
          "name": "agentId",
          "type": "uint256"
        },
        {
          "indexed": true,
          "internalType": "address",
          "name": "clientAddress",
          "type": "address"
        },
        {
          "indexed": false,
          "internalType": "uint64",
          "name": "feedbackIndex",
          "type": "uint64"
        },
        {
          "indexed": true,
          "internalType": "address",
          "name": "responder",
          "type": "address"
        },
        {
          "indexed": false,
          "internalType": "string",
          "name": "responseURI",
          "type": "string"
        },
        {
          "indexed": false,
          "internalType": "bytes32",
          "name": "responseHash",
          "type": "bytes32"
        }
      ],
      "name": "ResponseAppended",
      "type": "event"
    },
    {
      "inputs": [
        {
          "internalType": "uint256",
          "name": "agentId",
          "type": "uint256"
        },
        {
          "internalType": "address",
          "name": "clientAddress",
          "type": "address"
        },
        {
          "internalType": "uint64",
          "name": "feedbackIndex",
          "type": "uint64"
        },
        {
          "internalType": "string",
          "name": "responseURI",
          "type": "string"
        },
        {
          "internalType": "bytes32",
          "name": "responseHash",
          "type": "bytes32"
        }
      ],
      "name": "appendResponse",
      "outputs": [],
      "stateMutability": "nonpayable",
      "type": "function"
    },
    {
      "inputs": [
        {
          "internalType": "uint256",
          "name": "agentId",
          "type": "uint256"
        }
      ],
      "name": "getClients",
      "outputs": [
        {
          "internalType": "address[]",
          "name": "",
          "type": "address[]"
        }
      ],
      "stateMutability": "view",
      "type": "function"
    },
    {
      "inputs": [],
      "name": "getIdentityRegistry",
      "outputs": [
        {
          "internalType": "address",
          "name": "",
          "type": "address"
        }
      ],
      "stateMutability": "view",
      "type": "function"
    },
    {
      "inputs": [
        {
          "internalType": "uint256",
          "name": "agentId",
          "type": "uint256"
        },
        {
          "internalType": "address",
          "name": "clientAddress",
          "type": "address"
        }
      ],
      "name": "getLastIndex",
      "outputs": [
        {
          "internalType": "uint64",
          "name": "",
          "type": "uint64"
        }
      ],
      "stateMutability": "view",
      "type": "function"
    },
    {
      "inputs": [
        {
          "internalType": "uint256",
          "name": "agentId",
          "type": "uint256"
        },
        {
          "internalType": "address[]",
          "name": "clientAddresses",
          "type": "address[]"
        },
        {
          "internalType": "string",
          "name": "tag1",
          "type": "string"
        },
        {
          "internalType": "string",
          "name": "tag2",
          "type": "string"
        }
      ],
      "name": "getSummary",
      "outputs": [
        {
          "internalType": "uint64",
          "name": "count",
          "type": "uint64"
        },
        {
          "internalType": "int128",
          "name": "summaryValue",
          "type": "int128"
        },
        {
          "internalType": "uint8",
          "name": "summaryValueDecimals",
          "type": "uint8"
        }
      ],
      "stateMutability": "view",
      "type": "function"
    },
    {
      "inputs": [
        {
          "internalType": "uint256",
          "name": "agentId",
          "type": "uint256"
        },
        {
          "internalType": "int128",
          "name": "value",
          "type": "int128"
        },
        {
          "internalType": "uint8",
          "name": "valueDecimals",
          "type": "uint8"
        },
        {
          "internalType": "string",
          "name": "tag1",
          "type": "string"
        },
        {
          "internalType": "string",
          "name": "tag2",
          "type": "string"
        },
        {
          "internalType": "string",
          "name": "endpoint",
          "type": "string"
        },
        {
          "internalType": "string",
          "name": "feedbackURI",
          "type": "string"
        },
        {
          "internalType": "bytes32",
          "name": "feedbackHash",
          "type": "bytes32"
        }
      ],
      "name": "giveFeedback",
      "outputs": [],
      "stateMutability": "nonpayable",
      "type": "function"
    },
    {
      "inputs": [
        {
          "internalType": "uint256",
          "name": "agentId",
          "type": "uint256"
        },
        {
          "internalType": "address[]",
          "name": "clientAddresses",
          "type": "address[]"
        },
        {
          "internalType": "string",
          "name": "tag1",
          "type": "string"
        },
        {
          "internalType": "string",
          "name": "tag2",
          "type": "string"
        },
        {
          "internalType": "bool",
          "name": "includeRevoked",
          "type": "bool"
        }
      ],
      "name": "readAllFeedback",
      "outputs": [
        {
          "internalType": "address[]",
          "name": "clients",
          "type": "address[]"
        },
        {
          "internalType": "uint64[]",
          "name": "feedbackIndexes",
          "type": "uint64[]"
        },
        {
          "internalType": "int128[]",
          "name": "values",
          "type": "int128[]"
        },
        {
          "internalType": "uint8[]",
          "name": "valueDecimals",
          "type": "uint8[]"
        },
        {
          "internalType": "string[]",
          "name": "tag1s",
          "type": "string[]"
        },
        {
          "internalType": "string[]",
          "name": "tag2s",
          "type": "string[]"
        },
        {
          "internalType": "bool[]",
          "name": "revokedStatuses",
          "type": "bool[]"
        }
      ],
      "stateMutability": "view",
      "type": "function"
    },
    {
      "inputs": [
        {
          "internalType": "uint256",
          "name": "agentId",
          "type": "uint256"
        },
        {
          "internalType": "address",
          "name": "clientAddress",
          "type": "address"
        },
        {
          "internalType": "uint64",
          "name": "feedbackIndex",
          "type": "uint64"
        }
      ],
      "name": "readFeedback",
      "outputs": [
        {
          "internalType": "int128",
          "name": "value",
          "type": "int128"
        },
        {
          "internalType": "uint8",
          "name": "valueDecimals",
          "type": "uint8"
        },
        {
          "internalType": "string",
          "name": "tag1",
          "type": "string"
        },
        {
          "internalType": "string",
          "name": "tag2",
          "type": "string"
        },
        {
          "internalType": "bool",
          "name": "isRevoked",
          "type": "bool"
        }
      ],
      "stateMutability": "view",
      "type": "function"
    },
    {
      "inputs": [
        {
          "internalType": "uint256",
          "name": "agentId",
          "type": "uint256"
        },
        {
          "internalType": "uint64",
          "name": "feedbackIndex",
          "type": "uint64"
        }
      ],
      "name": "revokeFeedback",
      "outputs": [],
      "stateMutability": "nonpayable",
      "type": "function"
    }
  ],
  "bytecode": "0x60a034607b57601f611bcc38819003918201601f19168301916001600160401b03831184841017607f57808492602094604052833981010312607b57516001600160a01b0381168103607b57608052604051611b389081610094823960805181818161089501528181610f26015281816114af015261154d0152f35b5f80fd5b634e487b7160e01b5f52604160045260245ffdfe6102606040526004361015610012575f80fd5b5f3560e01c8063232b0810146116235780633c036a7e14610e4e57806342dd519c14610dc55780634ab3ca9914610cc057806381bbba58146108c4578063bc4d861b14610880578063c2349ab2146107a1578063d9d84224146100cd5763f2d817591461007d575f80fd5b346100c95760403660031901126100c95761009661173c565b6004355f525f60205260405f209060018060a01b03165f5260205260206001600160401b0360405f205416604051908152f35b5f80fd5b346100c95760a03660031901126100c9576024356001600160401b0381116100c9576100fd9036906004016117f5565b9060a0526044356001600160401b0381116100c95761012090369060040161178c565b61020052610220526064356001600160401b0381116100c95761014790369060040161178c565b6101c0526101a0526084356080526080511515608051036100c9575f805b82811061068557508061018d61017d61028a93611a8e565b60405161016052610160516119b7565b80610160515261019c81611a8e565b601f19013660206101605101376101c36101b582611a8e565b60405160c05260c0516119b7565b8060c051526101d181611a8e565b601f190136602060c05101376101f76101e982611a8e565b60405160e05260e0516119b7565b8060e0515261020581611a8e565b601f190136602060e051013761022d61021d82611a8e565b60405161018052610180516119b7565b80610180515261023c81611a8e565b601f190136602061018051013761025281611aa5565b6101005261025f81611aa5565b6101205261027f61026f82611a8e565b60405161014052610140516119b7565b806101405152611a8e565b601f19013660206101405101375f610240525f5b8181106103ff5760405160e08152806102bd60e08201610160516117b9565b8181036020830152602060c05151918281520190602060c05101905f5b8181106103dd575050508181036040830152602060e05151918281520190602060e05101905f5b8181106103c15750505081810360608301526020610180515191828152019060206101805101905f5b8181106103a55750505061034c818361035d9303608085015261010051611825565b82810360a084015261012051611825565b81810360c08301526020610140515191828152019060206101405101905f5b81811061038a575050500390f35b8251151584528594506020938401939092019160010161037c565b825160ff1684528594506020938401939092019160010161032a565b8251600f0b845285945060209384019390920191600101610301565b82516001600160401b03168452859450602093840193909201916001016102da565b61041461040f828460a051611a5c565b611a6c565b6004355f525f60205260405f2060018060a01b0382165f5260205260405f20905f6101e05281545b806101e051106104515750505060010161029e565b608051158061066a575b6105f35761020051151580610631575b6105f3576101c0511515806105f8575b6105f35761024051610160516001600160a01b0384169161049b91611aee565b5260016101e051016101e051116105df576001600160401b0360016101e05101166104cb6102405160c051611aee565b526104d96101e051846118d5565b5054600f0b6104ed6102405160e051611aee565b526104fb6101e051846118d5565b5060ff80915460801c166105156102405161018051611aee565b5260016105406105286101e051876118d5565b506105396040518094819301611926565b03826119b7565b6105506102405161010051611aee565b526105616102405161010051611aee565b5060026105746105286101e051876118d5565b6105846102405161012051611aee565b526105956102405161012051611aee565b5060036105a56101e051866118d5565b500154166105b96102405161014051611aee565b90151590526105ca61024051611a80565b610240525b60016101e051016101e05261043c565b634e487b7160e01b5f52601160045260245ffd5b6105cf565b50600261060b6105286101e051866118d5565b60208151910120610623366101c0516101a0516119f7565b60208151910120141561047b565b5060016106446105286101e051866118d5565b6020815191012061065c3661020051610220516119f7565b60208151910120141561046b565b5060ff600361067c6101e051866118d5565b5001541661045b565b6004355f525f60205260405f2060018060a01b036106a961040f848760a051611a5c565b165f5260205260405f205f908054905b8183106106cb57505050600101610165565b9091936080511560805115610789575b6107145761020051151580610753575b610714576101c05115158061071d575b6107145761070a600191611a80565b945b0191906106b9565b9360019061070c565b50600261072d61052887856118d5565b60208151910120610745366101c0516101a0516119f7565b6020815191012014156106fb565b50600161076361052887856118d5565b6020815191012061077b3661020051610220516119f7565b6020815191012014156106eb565b5060ff600361079887856118d5565b500154166106db565b346100c95760a03660031901126100c9576004356107bd61173c565b906107c6611752565b6001600160401b0391906064358381116100c9577fb1c6be0b5b8aef6539e2fac0fd131a2faa7b49edf8e505b5eb0ad487d56051d49161080d61083b92369060040161178c565b959091169485151580610857575b61082490611881565b604051958652606060208701526060860191611a3c565b608435604085015233946001600160a01b0316939081900390a4005b505f858152602081815260408083206001600160a01b038b16845290915290205486111561081b565b346100c9575f3660031901126100c9576040517f00000000000000000000000000000000000000000000000000000000000000006001600160a01b03168152602090f35b346100c95760803660031901126100c9576024356001600160401b0381116100c9576108f49036906004016117f5565b6044356001600160401b0381116100c95761091390369060040161178c565b926064356001600160401b0381116100c95761093390369060040161178c565b9190928415610c82575f935f935f965f5b818110610b6c57505f5b8181106109bf57886001600160401b038816898115806109b25761099e57600160ff1b81145f198314166105df576060928260ff9205600f0b5b604051938452600f0b6020840152166040820152f35b634e487b7160e01b5f52601260045260245ffd5b505060ff6060925f610988565b6004355f9081526020819052604090206001600160a01b036109e561040f84868b611a5c565b165f5260205260405f205f908054905b818310610a075750505060010161094e565b9091989960ff6003610a198c856118d5565b50015416610afd578c15158d8b82610b37575b5050610afd5785151580610b07575b610afd57898c60ff80610a5d610a5185886118d5565b5054600f0b94876118d5565b505460801c169116809110610aad575b50905f82820192831291129080158216911516176105df576001600160401b03909a166001600160401b0381146105df576001809101995b0191906109f5565b60ff610ab98d866118d5565b505460801c16900360ff81116105df5760ff16604d81116105df57600a0a81810291905f8212600160ff1b8214166105df5781830514901517156105df578e610a6d565b9998600190610aa5565b506002610b176105288c856118d5565b60208151910120610b2936888a6119f7565b602081519101201415610a3b565b610b5c919250610b4c610528600192876118d5565b602081519101209136908b6119f7565b6020815191012014158d8b610a2c565b6004355f9081526020819052604090206001600160a01b03610b9261040f84868b611a5c565b165f5260205260405f205f908054915b828110610bb457505050600101610944565b60ff6003610bc283856118d5565b50015416610c28578c151580610c60575b610c285785151580610c30575b610c285760ff610bf082846118d5565b505460801c1660ff8d1610610c0a575b6001905b01610ba2565b9a50600160ff610c1a8d846118d5565b505460801c169b9050610c00565b600190610c04565b506002610c4061052883856118d5565b60208151910120610c5236888a6119f7565b602081519101201415610be0565b508c610c746001610b4c61052885876118d5565b602081519101201415610bd3565b60405162461bcd60e51b815260206004820152601660248201527510db1a595b9d1cc8185c9c985e481c995c5d5a5c995960521b6044820152606490fd5b346100c95760403660031901126100c957600435602435906001600160401b038216918281036100c957610d2660039184151580610da1575b610d0290611881565b835f525f60205260405f20335f52602052610d2060405f20916118bd565b906118d5565b5001805460ff8116610d6a5760019060ff19161790556040519182527f25156fd3288212246d8b008d5921fde376c71ed14ac2e072a506eb06fde6d09d60203393a3005b60405162461bcd60e51b815260206004820152600f60248201526e105b1c9958591e481c995d9bdad959608a1b6044820152606490fd5b50835f525f60205260405f20335f52602052610d0260405f20548611159050610cf9565b346100c9576020806003193601126100c9576004355f526001906001815260405f209160405190819384918482549485815201915f52845f20905f5b86868210610e2f578590610e17828703836119b7565b610e2b6040519282849384528301906117b9565b0390f35b83546001600160a01b0316855288955090930192918101918101610e01565b346100c9576101003660031901126100c95760243580600f0b81036100c95760443560ff811681036100c9576064356001600160401b0381116100c957610e9990369060040161178c565b906084356001600160401b0381116100c957610eb990369060040161178c565b9060a4356001600160401b0381116100c957610ed990369060040161178c565b91909260c4356001600160401b0381116100c957610efb90369060040161178c565b959096601260ff8a16116115e6576040516331a9108f60e11b815260048035908201526020816024817f00000000000000000000000000000000000000000000000000000000000000006001600160a01b03165afa908115611522575f916115c7575b50336001600160a01b0382161415908161152d575b8161147e575b5015611439576004355f525f60205260405f20335f5260205260405f206040518060a08101106001600160401b0360a08301111761127e5760a081016040528b600f0b81526020810160ff8c168152610fd33685876119f7565b60408301908152610fe536888a6119f7565b60608401525f60808401528354600160401b81101561127e5780600161100e92018655856118d5565b9290926114265783518354915170ffffffffffffffffffffffffffffffffff199092166fffffffffffffffffffffffffffffffff9091161760809190911b60ff60801b16178255518051906001600160401b03821161127e57819061107660018501546118ee565b601f81116113d6575b50602090601f8311600114611368575f9261135d575b50508160011b915f199060031b1c19161760018201555b60608201518051906001600160401b03821161127e576110cf60028401546118ee565b601f8111611315575b50602090601f831160011461129d5792826080936003936001600160401b039897965f92611292575b50508160011b915f1990851b1c19161760028201555b01910151151560ff801983541691161790555416986004355f52600260205260405f20335f5260205260ff60405f205416156111f9575b60405182848237808381015f81520390209a6040519a8b52600f0b60208b015260ff1660408a015260608901610100905261010089019061118e92611a3c565b9087820360808901526111a092611a3c565b9085820360a08701526111b292611a3c565b9083820360c08501526111c492611a3c565b60e43560e083015233918060043592037f6a4a61743519c9d648a14e6493f47dbe3ff1aa29e7785c96c8326a205e58febc91a4005b6004355f52600160205260405f20805490600160401b82101561127e576001820180825582101561126a575f5260205f2001336bffffffffffffffffffffffff60a01b8254161790556004355f52600260205260405f20335f5260205260405f20600160ff1982541617905561114e565b634e487b7160e01b5f52603260045260245ffd5b634e487b7160e01b5f52604160045260245ffd5b015190505f80611101565b90601f19831691600285015f5260205f20925f5b8181106112fd5750936003936001600160401b039897969360019383608098106112e6575b505050811b016002820155611117565b01515f1983871b60f8161c191690555f80806112d6565b929360206001819287860151815501950193016112b1565b600284015f5260205f20601f840160051c81019160208510611353575b601f0160051c01905b81811061134857506110d8565b5f815560010161133b565b9091508190611332565b015190508f80611095565b9250600184015f5260205f20905f935b601f19841685106113bb576001945083601f198116106113a3575b505050811b0160018201556110ac565b01515f1960f88460031b161c191690558f8080611393565b81810151835560209485019460019093019290910190611378565b909150600184015f5260205f20601f840160051c81016020851061141f575b90849392915b601f830160051c8201811061141157505061107f565b5f81558594506001016113fb565b50806113f5565b634e487b7160e01b5f525f60045260245ffd5b60405162461bcd60e51b815260206004820152601960248201527f43616e6e6f7420666565646261636b206f776e206167656e74000000000000006044820152606490fd5b60405163e985e9c560e01b81526001600160a01b0391821660048201523360248201529150602090829060449082907f0000000000000000000000000000000000000000000000000000000000000000165afa908115611522575f916114e7575b50158b610f79565b90506020813d60201161151a575b81611502602093836119b7565b810103126100c9575180151581036100c9578b6114df565b3d91506114f5565b6040513d5f823e3d90fd5b60405163020604bf60e21b815260048035908201529091506020816024817f00000000000000000000000000000000000000000000000000000000000000006001600160a01b03165afa908115611522575f91611598575b506001600160a01b031633141590610f73565b6115ba915060203d6020116115c0575b6115b281836119b7565b8101906119d8565b8c611585565b503d6115a8565b6115e0915060203d6020116115c0576115b281836119b7565b8b610f5e565b60405162461bcd60e51b8152602060048201526015602482015274088cac6d2dac2d8e640daeae6e840c4ca40605a627605b1b6044820152606490fd5b346100c95760603660031901126100c95760ff61168f60043561164461173c565b61164c611752565b9161166a6001600160401b0384168015159081611712575b50611881565b5f525f60205260405f209060018060a01b03165f52602052610d2060405f20916118bd565b5080549061170660026116f885600385015416936116d2604051916116c2836116bb8160018501611926565b03846119b7565b6116bb6040518096819301611926565b60405196868897600f0b885260801c16602087015260a0604087015260a0860190611768565b908482036060860152611768565b90151560808301520390f35b5f848152602081815260408083206001600160a01b03891684529091529020541015905087611664565b602435906001600160a01b03821682036100c957565b604435906001600160401b03821682036100c957565b805180835260209291819084018484015e5f828201840152601f01601f1916010190565b9181601f840112156100c9578235916001600160401b0383116100c957602083818601950101116100c957565b9081518082526020808093019301915f5b8281106117d8575050505090565b83516001600160a01b0316855293810193928101926001016117ca565b9181601f840112156100c9578235916001600160401b0383116100c9576020808501948460051b0101116100c957565b90808251908181526020809101926020808460051b8301019501935f915b8483106118535750505050505090565b9091929394958480611871600193601f198682030187528a51611768565b9801930193019194939290611843565b1561188857565b60405162461bcd60e51b815260206004820152600d60248201526c092dcecc2d8d2c840d2dcc8caf609b1b6044820152606490fd5b6001600160401b039081165f1901919082116105df57565b805482101561126a575f5260205f209060021b01905f90565b90600182811c9216801561191c575b602083101461190857565b634e487b7160e01b5f52602260045260245ffd5b91607f16916118fd565b80545f9392611934826118ee565b918282526020936001916001811690815f14611998575060011461195a575b5050505050565b90939495505f92919252835f2092845f945b83861061198457505050500101905f80808080611953565b80548587018301529401938590820161196c565b60ff19168685015250505090151560051b010191505f80808080611953565b90601f801991011681019081106001600160401b0382111761127e57604052565b908160209103126100c957516001600160a01b03811681036100c95790565b9291926001600160401b03821161127e5760405191611a20601f8201601f1916602001846119b7565b8294818452818301116100c9578281602093845f960137010152565b908060209392818452848401375f828201840152601f01601f1916010190565b919081101561126a5760051b0190565b356001600160a01b03811681036100c95790565b5f1981146105df5760010190565b6001600160401b03811161127e5760051b60200190565b90611aaf82611a8e565b611abc60405191826119b7565b8281528092611acd601f1991611a8e565b01905f5b828110611add57505050565b806060602080938501015201611ad1565b805182101561126a5760209160051b01019056fea26469706673582212207da7b6efa492feed4e0b1512a26e99ce7fa2c252a8de7e05a65e62cd1cbcce0e64736f6c63430008190033",
  "linkReferences": {},
  "deployedLinkReferences": {}
}